:020000040800F2
:10000000184A00209D010008332D000837260008FB
:100010007D2C000877160008CB6F00080000000058
:10002000000000000000000000000000D9320008BD
:10003000F120000800000000E52D00084134000810
:10004000B7010008B7010008B7010008B7010008B0
:10005000B7010008B7010008B12200080523000815
:10006000B7010008B7010008B7010008511E0008D9
:10007000B7010008B7010008B7010008B701000880
:10008000B7010008B7010008B7010008B701000870
:10009000B7010008B7010008B7010008B701000860
:1000A000B7010008B7010008B7010008B701000850
:1000B000CD340008B7010008D5340008B7010008A6
:1000C000B7010008B7010008B7010008B701000830
:1000D000B92F0008B7010008B7010008B7010008F0
:1000E000B7010008B7010008B7010008B701000810
:1000F000B7010008B7010008B7010008591E000841
:10010000B7010008B7010008B70100082530000852
:10011000B7010008B7010008B7010008B7010008DF
:10012000B7010008B7010008B7010008B7010008CF
:10013000B7010008B7010008B7010008B7010008BF
:10014000B7010008B7010008B7010008D52D000865
:10015000B7010008B7010008B7010008B70100089F
:10016000B7010008B7010008B7010008B70100088F
:10017000B7010008B7010008B7010008B70100087F
:10018000B7010008B7010008DFF80CD001F072F8E1
:100190000048004741900008184A00200648804760
:1001A00006480047FEE7FEE7FEE7FEE7FEE7FEE75C
:1001B000FEE7FEE7FEE7FEE7653400088901000878
:1001C0002DE9F05F0446FF48FD4901600268FE48E2
:1001D000FE490026824232D10860E661A66166616E
:1001E0002661A662666226626068DFF8E4A3DFF833
:1001F000E4B304F11005814610F0FF4F21D02088B0
:1002000000F070FF52465B4600F0FDFE0746884650
:10021000484600F08DFF3A46434600F0DBFD0746B6
:1002200088460821484600F0C9FD00F081FF3A46A3
:10023000434600F0E8FE00F062FFA88302E00E6093
:10024000FEE7AE83A76817F0FF4F1FD0B4F8008019
:10025000404600F047FF06468946384600F068FFF2
:1002600052465B4600F05DFE4B46324600F0B2FD62
:1002700006460F464FEA082000F034FF32463B4660
:1002800000F0C1FE00F03BFFE88300E0EE83208831
:100290004FF47A71B0FBF1F02884BDE8F09F2DE9AE
:1002A000FF4FCA49C84A97B00968914200D0FEE79B
:1002B0001A99103100250A6903924A6908928A69DD
:1002C0000792D1E901620C680592CA6806921A9AEF
:1002D0008B8B92890993CB8B0E9316E10778BE4BDB
:1002E000A3F5807813F807C0B444CDF844C018F8DB
:1002F000076010F802A004EB4606A3F5007413F89B
:100300000AC0E75D0CEB0609CDF82C9010F81290AE
:1003100018F80A6007EB460613F809C014F80A70CB
:100320000CEB060E18F8096002EB420C07EB4606D0
:1003300014F80970CDF84CC010F80C9013F809C0EF
:100340000CEB060B18F8096007EB460614F8097069
:1003500010F8229013F809C0B444CDF848C018F83A
:10036000096002EB820C07EB460614F8097010F8DE
:100370000C9013F809C00CEB060A18F80960DDF8B8
:100380004CC007EB460614F8097010F81C9013F8DF
:1003900009C0B444CDF850C018F8096014F809C079
:1003A00007EB4606C2EBC207DDF82C90C75DDB5DAC
:1003B0003344139318F80730E45D0CEB4306C9EBA4
:1003C000C903DDF844C003EB4307CCEBCC0307EBD8
:1003D0008303CEEB0E1C63440BEB8B0C03EB4C0343
:1003E000DDF848C00CEB4C0803EB48030AEB4A0C61
:1003F0006344DDF850C09C44069B6344DDF844C070
:1004000001930CEBCC039B0003EB4703CEEBCE0731
:1004100007EB0E1703EB47030BEB4B0703EB07133D
:10042000CAEBCA0703EB081307EB0A17DDF850C045
:1004300003EB4703CCEBCC0707EB470803EB48077C
:10044000139BDDF848C003EBC30307EB8307059B51
:100450000CEB8C0C3B4406930BEB4B070EEB4E0363
:100460007F004B4407EB4C073B44CAEB0A173B4465
:1004700003EB0807139BC3EBC30307EB830305934D
:10048000019B0E9FA3F500338FB1039F07EB030C75
:10049000089FACEB0707DDF838C007FB0CF74FEA05
:1004A000E77C07EB1C673F12039708933B46099FC5
:1004B00077B1DDF81CC0C7F5807707FB0CF7DDF8D6
:1004C00024C00CFB0373DF1703EB17631B120793A6
:1004D000199F7B43002B01DD083300E0083BDF1749
:1004E00003EB17733D4F1B11BB4203DB7F42BB4243
:1004F00000DC1F463B461A9FDDF860C000EBC200DF
:10050000FF896F436D1C2CF817300B8CAB423FF703
:10051000E5AEC1E90046059888600698C860039872
:100520000861089848610798886198B21BB0BDE8D7
:10053000F08F2DE9FF4F2549234A97B00968914272
:1005400000D0FEE71A99103100250A6903924A6922
:1005500008928A690792D1E901620C680592CA681B
:1005600006921A9A8B8B92890993CB8B0E9328E172
:100570000778194BA3F5807813F807C0B444CDF879
:1005800044C018F8076010F802A004EB4606A3F573
:10059000007413F80AC0E75D0CEB0609CDF82C9047
:1005A00010F8129018F80A6007EB460613F809C015
:1005B00014F80A700CEB060E18F8096010E0000041
:1005C000C2A507F400300240CDB5E8B59401002083
:1005D0001F85EB51B81E1940980300204480FFFF8F
:1005E00007EB460614F8097002EB420CCDF84CC03C
:1005F00010F80C9013F809C00CEB060B18F8096002
:1006000007EB460614F8097010F8229013F809C099
:10061000B444CDF848C018F8096002EB820C07EB2F
:10062000460614F8097010F80C9013F809C00CEB8A
:10063000060A18F80960DDF84CC007EB460614F806
:10064000097010F81C9013F809C0B444CDF850C0DC
:1006500018F8096014F809C007EB4606C2EBC20798
:10066000DDF82C90C75DDB5D3344139318F8073039
:10067000E45D0CEB4306C9EBC903DDF844C003EBB2
:100680004307CCEBCC0307EB8303CEEB0E1C634498
:100690000BEB8B0C03EB4C03DDF848C00CEB4C0868
:1006A00003EB48030AEB4A0C6344DDF850C09C445A
:1006B000069B6344DDF844C001930CEBCC039B0024
:1006C00003EB4703CEEBCE0707EB0E1703EB470315
:1006D0000BEB4B0703EB0713CAEBCA0703EB08133B
:1006E00007EB0A17DDF850C003EB4703CCEBCC0750
:1006F00007EB470803EB4807139BDDF848C003EB03
:10070000C30307EB8307059B0CEB8C0C3B44069360
:100710000BEB4B070EEB4E037F004B4407EB4C07F4
:100720003B44CAEB0A173B4403EB0807139BC3EB9C
:10073000C30307EB83030593019B0E9FA3F50033CF
:100740008FB1039F07EB030C089FACEB0707DDF8A5
:1007500038C007FB0CF74FEAE77C07EB1C673F123A
:10076000039708933B46099F77B1DDF81CC0C7F596
:10077000807707FB0CF7DDF824C00CFB0373DF1751
:1007800003EB17631B120793199F7B43002B01DDBB
:10079000083300E0083BDF1703EB1773FE4F1B1114
:1007A000BB4203DB7F42BB4200DC1F463B461A9F35
:1007B000DDF860C000EBC200FF896F436D1C2CF8B0
:1007C00017300B8CAB423FF7D3AEC1E9004605981A
:1007D00088600698C860039808610898486107987F
:1007E000886198B2A2E62DE9FF4FEC49EC4A97B038
:1007F0000968914200D0FEE71A99103100250A6974
:1008000003924A6908928A690792D1E901620C68E9
:100810000592CA6806921A9A8B8B92890993CB8BA0
:100820000E9317E1DD4B07781B1D03F5807813F855
:1008300007C0B444CDF844C018F8076010F802A00F
:1008400004EB460603F5007413F80AC0E75D0CEBF1
:100850000609CDF82C9010F8129018F80A6007EBF2
:10086000460613F809C014F80A700CEB060E18F8C7
:10087000096002EB420C07EB460614F80970CDF84C
:100880004CC010F80C9013F809C00CEB060B18F8CC
:10089000096007EB460614F8097010F8229013F867
:1008A00009C0B444CDF848C018F8096002EB820CC6
:1008B00007EB460614F8097010F80C9013F809C0FD
:1008C0000CEB060A18F80960DDF84CC007EB460689
:1008D00014F8097010F81C9013F809C0B444CDF84E
:1008E00050C018F8096014F809C007EB4606C2EBBF
:1008F000C207DDF82C90C75DDB5D3344139318F815
:100900000730E45D0CEB4306C9EBC903DDF844C0D6
:1009100003EB4307CCEBCC0307EB8303CEEB0E1CBE
:1009200063440BEB8B0C03EB4C03DDF848C00CEB82
:100930004C0803EB48030AEB4A0C6344DDF850C053
:100940009C44069B6344DDF844C001930CEBCC034C
:100950009B0003EB4703CEEBCE0707EB0E1703EB31
:1009600047030BEB4B0703EB0713CAEBCA0703EB79
:10097000081307EB0A17DDF850C003EB4703CCEB75
:10098000CC0707EB470803EB4807139BDDF848C08B
:1009900003EBC30307EB8307059B0CEB8C0C3B4479
:1009A00006930BEB4B070EEB4E037F004B4407EB1C
:1009B0004C073B44CAEB0A173B4403EB0807139B65
:1009C000C3EBC30307EB83030593019B0E9FA3F5C2
:1009D00000338FB1039F07EB030C089FACEB0707B5
:1009E000DDF838C007FB0CF74FEAE77C07EB1C6724
:1009F0003F12039708933B46099F77B1DDF81CC06F
:100A0000C7F5807707FB0CF7DDF824C00CFB0373F8
:100A1000DF1703EB17631B120793199F7B43002B10
:100A200001DD083300E0083BDF1703EB17735A4F73
:100A30001B11BB4203DB7F42BB4200DC1F463B462F
:100A40001A9FDDF860C000EBC200FF896F436D1C88
:100A50002CF817300B8CAB423FF7E4AEC1E90046EF
:100A6000059888600698C8600398086108984861EE
:100A70000798886198B259E52DE9FF4F4749484AE0
:100A800098B00968914200D0FEE71B99103100250B
:100A90000A6902924A6906928A690492D1E901625E
:100AA0000B680592CA6808921B9A94898A8B0992EE
:100AB000CA8B10926BE1394A0778121D02F58078D3
:100AC00012F807C0B444CDF858C018F8076010F801
:100AD00004A003EB460602F5007312F80AC0DF5DBE
:100AE0000CEB0609CDF8289010F8149018F80A605D
:100AF00007EB460612F809C013F80A70B444CDF8A3
:100B00002CC018F8096004EB440A07EB460613F8FA
:100B1000097010F80A9012F809C0B444CDF838C032
:100B200018F8096007EB460613F8097010F82490CE
:100B300012F809C0B444CDF83CC018F8096004EBC1
:100B4000840C07EB460613F80970CDF854C010F872
:100B50000C9012F809C0B444CDF844C018F80960EC
:100B600007EB460613F8097010F81A9012F809C03E
:100B70000CEB060E18F80960C4EBC40C07EB460634
:100B800013F8097010F80C9012F809C00CEB060A63
:100B900018F8096006E000004480FFFF940100207F
:100BA000CDB5E8B507EB460613F8097010F8349098
:100BB00012F809C00CEB060B18F8096013F809C00D
:100BC00007EB460604EBC407DDF82890C75DD25D4D
:100BD000DB5D324418F807600CEB4606DDF858C0C0
:100BE000CCEB0C1707EB470709EBC90C07EB8C079D
:100BF000DDF82CC0CCEBCC0C07EB8C07DDF838C053
:100C0000CCEBCC0C0CEB4C0C6744DDF83CC0CCEBD3
:100C10000C1C6744DDF844C00CEB8C0C07EB4C0754
:100C20000EEB4E0C07EB4C070AEB4A0C674407EB44
:100C30000B0C089F6744DDF858C001970CEBCC07FC
:100C4000C7EB8C17C9EB891C6744DDF82CC00CEB93
:100C50008C0808EB8C1C6744DDF838C00CEBCC0822
:100C600008EB8C1C6744DDF83CC00EEBCE08CCEBE7
:100C70000C1C0CEB8C0C6744DDF844C0CCEB0C1C5A
:100C80000CEB8C0C674408EB8E1C67440AEB8A085B
:100C900008EB8A1C6744CBEB8B1C674402EBC20C4D
:100CA000CCEB821CBC44059FC2EB02126744DDF80A
:100CB0002CC008970CEB4C07DDF838C04F440CEB08
:100CC0004C0C4FEA4C08DDF83CC002EB42020CEB46
:100CD0008C0C08EB4C0C6744DDF844C0CCEB0C1CCE
:100CE0006744CEEBCE0C0CEB4C0C6744CAEBCA0C41
:100CF00007EB8C070BEBCB0C07EB8C073A44059208
:100D0000019F109AA7F57A378AB1029A02EB070C75
:100D1000069AACEB0202DDF840C0069702FB0CF22B
:100D20004FEAE27C02EB1C62121202921746099A09
:100D30007AB1DDF810C0C2F5807202FB0CF2DDF86A
:100D400024C00CFB0722D71702EB176212121746BA
:100D500004921A9A5743002F01DD103700E0103F2C
:100D6000FA1707EBD262144F5211BA4203DB7F42EB
:100D7000BA4200DC17463A461B9FDDF864C0FF8983
:100D80006F436D1C2CF81720159A00EB42000A8C5B
:100D9000AA423FF790AEC1E90036059888600898EE
:100DA000C8600298086106984861049888611CB080
:100DB00090B2BDE8F08F00004480FFFF420005D0F4
:100DC000C0F3C7525242914201DC0020704700EB51
:100DD000C15070472DE9FE4F804681EA0300C00FE5
:100DE0000C46009021F0004123F00045B8EB0200D2
:100DF000A94105D24046214690461C460B46024674
:100E000023F00040104347D0270DC7F30A00C3F377
:100E10000A510290401A019040286BDAC3F3130084
:100E200040F4801B0098924620B10023D2EB030AC5
:100E300063EB0B0B01985946C0F14002504600F09D
:100E40008AF906460D4650465946019A00F0A2F925
:100E500010EB08006141002487EA115284EAE7732D
:100E60001A4340D0009A62B3019A012A4FEA07520E
:100E700015DC001B61EB02014FF0004202EA075251
:100E8000CDE90042001C41F5801132462B4600F0AE
:100E9000A2F903B0BDE8F08F40462146F9E7001BF8
:100EA00061EB0201001C41F5801300185B41201822
:100EB000A2F5001747EB030140EAD570B6196D4162
:100EC00011E06D084FEA360645EAC0754FEA075251
:100ED000001B61EB0201001C41F5801149084FEA3B
:100EE00030000019514132462B4603B0BDE8F04FA7
:100EF00000F062B90098012240000023D0EB02020A
:100F000063EBE073009821464FEAE074B8EB000011
:100F100061EB0401E9E783F000435BE781F0004106
:100F200058E72DE9FE4F81EA030404F0004421F064
:100F3000004100944FF0000B23F0004350EA0104FD
:100F40005ED052EA03045BD0C3F30A54C1F30A55DE
:100F50002C44A4F2F3340194A0FB0254C1F3130116
:100F600041F48011C3F3130343F4801301FB0244E3
:100F700000FB034E840A970A44EA815447EA8357E8
:100F8000A4FB076802958D0A05FB07854FEA932CA1
:100F900004FB0C542705029D4FEA065847EA163712
:100FA000B5EB08056EEB070C870E920E47EA81172A
:100FB00042EA8312A7FB0201B6EB0B0164EB0004CB
:100FC0002B0D43EA0C335E1844EB1C50DA465146B5
:100FD000E7FB0201C5F313044FEA0B3343EA145352
:100FE0004FEA0432019C43EA0603A4F10C04029484
:100FF000009CCDE900B400F0EEF803B0BDE8F08F3E
:1010000000200146F9E72DE9F04D81EA030404F0E0
:10101000004B21F0004514464FF0000A23F0004138
:1010200050EA050220D054EA01021DD0C5F30A5748
:101030000246C5F31303C1F31300C1F30A5640F48B
:10104000801543F48013A7EB0608101BD64608F260
:10105000FD3873EB050002D308F1010801E0921896
:101060005B41B8F1000F03DA00200146BDE8F08DC6
:1010700000204FF48011064684460EE0171B73EBE8
:10108000050705D3121B63EB050306434CEA010C6D
:1010900049084FEA300092185B4150EA0107EDD150
:1010A00052EA030012D082EA040083EA05010843F1
:1010B00005D0101BAB4106D20122002306E000221E
:1010C0004FF0004302E06FF0010253101AEB0600EC
:1010D0004CEB085110EB0A0041EB0B01BDE8F04D61
:1010E00000F06AB80EB540F2334102910021CDE91B
:1010F00000110A460B4600F06EF803B000BDC1F3C4
:101100000A5210B5C1F3130140F2FF3341F48011CC
:101110009A4201DA002010BD40F233439A42A2F213
:10112000334203DC524200F025F810BD904010BD60
:1011300000F0004230F000400AD0C10D01F56071AE
:10114000C0F3160042EA0151C2084007114370473C
:10115000002001467047202A04DB203A00FA02F101
:10116000002070479140C2F1200320FA03F3194395
:1011700090407047202A04DB203A21FA02F0002137
:10118000704721FA02F3D040C2F120029140084397
:1011900019467047202A06DBCB17203A41FA02F0A5
:1011A00043EAE07306E041FA02F3D040C2F12002C4
:1011B000914008431946704710B5141E73F100049E
:1011C00008DA401C41F1000192185B411A4301D139
:1011D00020F0010010BD2DE9F04D92469B4611B163
:1011E000B1FA81F202E0B0FA80F220329046FFF7C5
:1011F000B2FF04460F4640EA0A0041EA0B0153469B
:101200005A46084313D0114653EA010019D0C8F1D9
:1012100040025046FFF7AEFF05460E46504659467F
:101220004246FFF798FF084305D0012004E020461E
:101230003946BDE8F08D0020054346EAE0762C43B0
:1012400037430A986305E40AA0EB08000022FD0A70
:1012500044EA47540A3002D500200146E9E7010577
:1012600010196941DDE9084500196941BDE8F04DF3
:10127000A2E70000064C074D06E0E06840F00103DD
:1012800094E8070098471034AC42F6D3FEF780FF8D
:10129000A8950008C895000870B58C1810F8015B77
:1012A00015F0070301D110F8013B2A1106D110F8FF
:1012B000012B03E010F8016B01F8016B5B1EF9D103
:1012C0002B0705D40023521E0DD401F8013BFAE789
:1012D00010F8013BCB1A921C03E013F8015B01F8F4
:1012E000015B521EF9D5A142D8D3002070BD000089
:1012F00010B5344801683448006800F08DFE0028BD
:101300005ED03248006800284AD000BF2E480068EE
:1013100000F078FE0028F9D12A4801682A480068C0
:1013200000F09EFD2A4800682A4988602748006826
:10133000B0F5803F02D22548006801E04FF6FF700B
:10134000244908612048006800F0A6FE01211E48DB
:10135000006800F09FFD1E4800681C490968B1F54F
:10136000803F02D21949096801E04FF6FF7100EB96
:1013700041001749086015480068B0F5803F02D267
:101380001248006801E04FF6FF7010490968081A1A
:101390000E49086001210C48006800F07BFD0FE059
:1013A00000210948006800F075FD064801680648FC
:1013B000006800F055FD00210548006800F05EFF60
:1013C00010BD00002401002014010020FC000020BA
:1013D000000100200441002008B5364800680128BB
:1013E00047D101213448006801F0FEFC0021334858
:1013F000006800F04FFD3148006800F057FD3048AC
:101400000068304908603048006848600020886003
:101410004020C8604FF6FE700861002048614FF41C
:10142000806088614000C8618000086200204862D6
:101430004FF4003088620020C86208634863886304
:101440001E48006800F028FE012210211B48006899
:1014500000F004FE1D4800788DF8000000208DF893
:1014600001008DF8020001208DF80300684601F0AC
:1014700061FC10480068012805D1012202211448AE
:1014800001F0FAFD14E000F091FC012271211048F6
:1014900001F04BFE33208DF8000000208DF8010094
:1014A0008DF8020001208DF80300684601F042FC2F
:1014B00008BD00000C0100201001002014010020D4
:1014C0001C01002004410020180100202001002000
:1014D000003C004070B504460D4654B9002202217C
:1014E0000E4801F0C9FD00210D48006800F0D2FC53
:1014F00013E001220221094801F0BEFD0121084844
:10150000006800F0C7FC05481C30008800F48060CB
:1015100018B90121014801F0ABF970BD003C004051
:101520001401002070B505460C46154800680128D6
:101530000ED114488560600812490861124800689D
:1015400000F0AAFD01211048006800F0A3FC0CE0A7
:101550000C488560046101460B48006800F09CFD62
:1015600001210948006800F095FC0848008800F453
:10157000806020B9012105481C3801F079F970BD5F
:101580000C01002004410020140100201C3C0040FC
:1015900010B500210C48006800F07CFC0B48006886
:1015A0000B4A126810430B4A126810430A4A126829
:1015B00040EA02010448006800F052FC002107489C
:1015C00001F056F910BD0000140100202401002094
:1015D000280100202C01002030010020003C0040A8
:1015E00070B505460C4608480560204600F00EF828
:1015F00000BF054800680028FBD100214FF0804063
:1016000001F0EDFF70BD0000240000203EB504464F
:1016100000214FF0804001F0E2FF00220121880705
:1016200001F0FDFF022C02D10B20019004E0012CFF
:1016300002D142F6DF6001900520ADF800000020E5
:10164000ADF80800ADF8020069464FF0804002F0A6
:101650009BF80121880701F0BFFF0121880701F0F5
:10166000AFFF01221146900701F0D9FF0121880741
:1016700001F0B5FF3EBD00BFFEE7000010B50A480F
:10168000007810B101280CD105E00848007808B9AD
:1016900005F0E6FD06E000200449087005F0D8FFDB
:1016A00000E000BF00BF10BD2800002000000020A7
:1016B00010B588B004460121C80301F0B5FB1548F8
:1016C00001F0E4FC06940020ADF81200ADF814001F
:1016D000ADF81C004FF40070ADF81000ADF8160026
:1016E00004A90C4801F0D0F80B48006802280ED17C
:1016F0000121000701F098FB002000900190039069
:10170000694600F07BFB0121002000F03BFB08B0A4
:1017100010BD0000003C00400C0100201FB501215D
:10172000480501F081FB0F4800F0BAFF0020ADF83A
:1017300004004BF6FF70ADF806003320ADF808004A
:101740004FF48060ADF80A000001ADF80C000648C7
:1017500000900121034800F097FF6946014801F01D
:1017600005F81FBD00540040A08601001CB50121F2
:10177000082001F039FB1020009001208DF80400B2
:1017800002208DF8050000208DF806008DF8070076
:1017900069463A4800F076FE0121072001F024FB5B
:1017A0004FF41070009002208DF804008DF80500B1
:1017B00001208DF8060000208DF8070069463048AA
:1017C00000F060FE042206212D4800F0A3FE042252
:1017D00009212B4800F09EFE4FF4A05000900220FB
:1017E0008DF804008DF8050000208DF806008DF8B6
:1017F00007006946234800F045FE062204212248DE
:1018000000F088FE06220A211E4800F083FE1F48D1
:10181000006802280BD01020009069461A4800F09A
:1018200031FE06220C21174800F074FE0FE0012162
:10183000084601F0D9FA1020009003208DF804002A
:1018400000208DF8070069460F4800F01BFE80203D
:10185000009002208DF804008DF8050000208DF81E
:1018600006008DF807006946064800F00BFE0622C8
:101870000721044800F04EFE1CBD0000000C024091
:101880000004024000080240000002400C01002059
:101890002DE9F04107460D4616460024FFF766FF86
:1018A00000F084F9FFF73AFF0121022000F0D6F999
:1018B0000444AF21042000F0D1F90444AF202C49A6
:1018C00008708121052000F0C9F904440421062094
:1018D00000F0C4F90444284600F09CF9254800684B
:1018E000022818D10121082000F0B8F90444012190
:1018F000092000F0B3F90444C0210E2000F0AEF935
:1019000004440021142000F0A9F90444002115200A
:1019100000F0A4F904449E21022000F09FF9044441
:1019200000210A2000F09AF90444124800680228B5
:1019300004D004210E2000F091F904440021272056
:1019400000F08CF904440F211F2000F087F90444B3
:101950000A211A2000F082F904440A211B2000F019
:101960007DF904443046FFF7A3FE2046BDE8F08130
:10197000080100200C01002070B505460024012D4F
:1019800005D1FF21042000F069F9044405E0044872
:101990000178042000F062F90444204670BD000084
:1019A0000801002070B5054600244DB90120FFF75D
:1019B000E3FF04440121022000F050F904440EE04A
:1019C0000020FFF7D9FF044406480178042000F006
:1019D00045F904449E21022000F040F904442046C9
:1019E00070BD00000801002070B5044600254FF4CA
:1019F00096106849086008E066490868411E654A13
:101A0000116010B900F004F970BD4FF40031624864
:101A100000F08EFE0028EFD101215F4800F070FE3B
:101A20004FF480505B49086008E05A490868411E3D
:101A3000584A116010B900F0EBF8E5E757495648ED
:101A400000F007FE0028F0D000229421524800F058
:101A500005FF4FF480504F49086008E04D49086881
:101A6000411E4C4A116010B900F0D2F8CCE74C4945
:101A7000494800F0EEFD0028F0D02146464800F02D
:101A8000F5FE4FF480504349086008E0414908687A
:101A9000411E404A116010B900F0BAF8B4E741495C
:101AA0003D4800F045FE0028F0D001213A4800F002
:101AB00027FE4FF480503749086008E03549086830
:101AC000411E344A116010B900F0A2F89CE7334976
:101AD000314800F0BEFD0028F0D0012294212E48AC
:101AE00000F0BCFE4FF480502A49086008E0294904
:101AF0000868411E274A116010B900F089F883E791
:101B00002849891E244800F013FE0028EFD0002148
:101B1000214800F092FD20481830008801211E481D
:101B200000F0FAFD4FF480501A49086008E01949A6
:101B30000868411E174A116010B900F069F863E7A0
:101B400018493C31144800F0F3FD0028EFD012484A
:101B500000F080FE05464FF480500E49086008E012
:101B60000C490868411E0B4A116010B900F050F88A
:101B70004AE70948008800F400700028F0D10121EC
:101B8000054800F05AFD0849034800F077FD284653
:101B90003AE7000004010020005400400100030067
:101BA00082000700040000100004001010B500229D
:101BB0001021064800F0D5FC44F6FF7000F0A6FAAC
:101BC00001221021014800F0CCFC10BD000C0240A5
:101BD00070B5054600240120FFF7CEFE022D05D189
:101BE0009F21022000F03AF804440DE09F210220DA
:101BF00000F034F8044440F6FF7000F087FA002249
:101C00001021024800F0ADFC204670BD000C0240DF
:101C10000020704770B504460025E62C0EDDA4F1C7
:101C2000E700C1B2202000F019F80544A4F1E70054
:101C3000C1B2212000F012F805440DE004F11900B2
:101C4000C1B2202000F00AF8054404F11900C1B225
:101C5000212000F003F80544284670BD70B5044605
:101C60000D4600264FF496104149086008E04049AF
:101C70000868411E3E4A116010B9FFF7C9FF70BDE8
:101C80004FF400313B4800F053FD0028EFD1012113
:101C9000384800F035FD4FF480503549086008E0C1
:101CA00033490868411E324A116010B9FFF7B0FF8E
:101CB000E5E731492F4800F0CCFC0028F0D00022A5
:101CC00094212C4800F0CAFD4FF480502849086048
:101CD00008E027490868411E254A116010B9FFF73E
:101CE00097FFCCE72549234800F0B3FC0028F0D04B
:101CF0002146204800F0BAFD4FF480501C4908608E
:101D000008E01B490868411E194A116010B9FFF725
:101D10007FFFB4E71949891E164800F09AFC002895
:101D2000EFD02946134800F0A1FD4FF4961010495A
:101D3000086007E00E490868411E0D4A116008B9A5
:101D4000FFF766FF0E490B4800F0F2FC0028F1D0C7
:101D50000121084800F0E0FC2046FFF745FEA842BC
:101D600001D0012000E000200646304687E7000051
:101D7000040100200054004001000300820007001D
:101D80000400001039B1084A1268012383401A4345
:101D9000054B1A6006E0044A1268012383409A4307
:101DA000014B1A60704700000074004000B587B016
:101DB0000121104801F018F80121480701F034F81A
:101DC0001020019003208DF8080000208DF80B00F2
:101DD00001A9094800F056FB0020039004900690EA
:101DE00003A900F00BF801210020FFF7CBFF07B09B
:101DF00000BD0000010020000000024030B50022BC
:101E000000230A4C226840F6FE748440A243D1E9C4
:101E100000452C438D682C43CD6844EA050303FA42
:101E200000F42243014C226030BD000000740040E9
:101E300008B500220092054A009200F10802009BBA
:101E40001A440092009A116008BD0000007400401E
:101E500010B5FFF74DFA10BD10B5FFF749FA10BDE8
:101E60000246094B9A4201D2084801E00648103860
:101E700001F000531BB1064B0B40C36002E0044B62
:101E80000B40836070470000106402400060024015
:101E90007D0F7D0F21B1026842F00102026003E074
:101EA000026822F00102026070470000016821F020
:101EB000010101600021016041608160C160016138
:101EC000212141614A49884204D13D21484A103AC2
:101ED00091608CE046491831884205D14FF4746115
:101EE000434A103A916082E041493031884205D13D
:101EF0004FF474113E4A103A916078E03C49483101
:101F0000884205D14FF07461394A103A91606EE011
:101F100037496031884204D13649354A103AD16098
:101F200065E033497831884204D13349304A103A68
:101F3000D1605CE02E499031884204D12F492C4A6F
:101F4000103AD16053E02A49A831884205D14FF0B8
:101F50003D51274A103AD16049E02949884204D1CD
:101F60003D21274A083A116041E02549183188424D
:101F700005D14FF47461224A083A116037E02049D4
:101F80003031884205D14FF474111D4A083A11606E
:101F90002DE01B494831884205D14FF07461184A41
:101FA000083A116023E016496031884204D1114992
:101FB000134A121F11601AE011497831884204D186
:101FC0000D490F4A121F116011E00D4990318842EE
:101FD00004D10A490A4A121F116008E00849A831D1
:101FE000884204D14FF03D51054A121F11607047DD
:101FF000106002403D000020400F002000003D2006
:1020000010640240014600200A6802F001020AB191
:10201000012000E00020704730B503460A4600204A
:1020200000240B4DAB4201D20A4901E008491039A6
:1020300002F000550DB14C6800E00C68064D2C40D4
:1020400004EA02050DB1012000E0002030BD0000CF
:1020500010640240006002407D0F7D0F10B501F05A
:1020600080034BB122B1436943F08003436103E035
:10207000436923F08003436180290BD02AB10368B0
:1020800001F01E042343036004E0036801F01E0412
:10209000A343036010BD000010B500220268134B7B
:1020A0001A40CC680B6823434C6923438C69234353
:1020B000CC6923430C6A23434C6A23438C6A234331
:1020C0004C6B23438C6B23431A430260426922F01A
:1020D0000702D1E90B3423431A4342610B69436081
:1020E0004B6883608B68C36010BD00003F801CF0AC
:1020F0007047000001B504490098086000BF02481D
:1021000000680028FBD108BDA800002001B502E04E
:102110000098401E009000980028F9D108BD0020CA
:1021200070472DE9F04105460C461646642C01DD4A
:10213000642005E0C4EB0420642190FBF1F0C0B200
:102140000746324639462846FFF7A2FB10B1012068
:10215000BDE8F081FFF740F90020F9E710B504462B
:102160002046FFF71FFC08B1012010BD00212046CA
:10217000FFF7B0F90020F8E726490860096801294F
:1021800023D14905244A11602449254A1160254973
:10219000254A11600021254A11602F21244A11602F
:1021A0004FF02051234A11604FF01051224A116024
:1021B0004FF00151214A11604FF00851204A11603F
:1021C0004FF004511F4A116023E0022821D101057C
:1021D000114A11601149A839114A11601A49124A6D
:1021E00011600021114A11600B21114A1160174939
:1021F000104A1160154910390F4A116014490F4AED
:102200001160124918390E4A11601149C91C0D4A52
:10221000116070470C01002010010020B8600240DE
:10222000140100200C3C0040180100201C0100207B
:102230002001002024010020280100202C01002082
:1022400030010020340100200C74004020000010F8
:102250000100801010B504462046FFF7B9FC08B114
:10226000012010BDFFF794F9024800680249086098
:102270000020F6E7F8000020FC00002001220A4BB5
:102280001A600A4A12682AB1084A1268A2F58062E6
:10229000064B1A60054A1268B2F5806F02D200221E
:1022A000024B1A607047000090000020A40000203C
:1022B00010B5012000F088F8D0B10F48007801284F
:1022C00005D100200D4908700B49087010E00A483C
:1022D000007840B9012008490870094908600220C7
:1022E000FFF7B8FF04E000200449087002490870B5
:1022F000012000F063F810BD28000020000000203D
:102300009000002010B5022000F05EF890B10A485D
:102310000078012805D10949087000200649087095
:1023200005E00020054908700120034908700220DB
:1023300000F044F810BD000005000020040000205B
:1023400000B585B00121102000F04EFD0121880369
:1023500000F08AFD00208DF810008DF81300032096
:10236000039003A9144800F08DF80121042000F027
:10237000B5FF0220009000208DF8040008208DF8A1
:10238000050001208DF80600684600F031F84FF492
:10239000806000F00BFD07208DF8080000208DF80C
:1023A00009008DF80A0001208DF80B0002A800F04A
:1023B000C1FC05B000BD00000010024001490860EA
:1023C00070470000143C0140014600200022074BEA
:1023D0001B6803EA0102054B14331B680B4013B161
:1023E0000AB1012000E0002070470000003C0140DD
:1023F000002123498279002A3AD00A4612680368EC
:102400009A430B461A600A1D126803689A430B1D13
:102410001A60027911440A6803681A430A60184A6C
:102420000832126803689A43154B08331A601A1D64
:10243000126803689A43124B0C331A604279102ACF
:102440000ED11A1F126803681A430D4B08331A6025
:102450001A1D126803681A43094B0C331A600DE009
:102460000749427911440A6803681A430A6005E083
:10247000027911440A6803689A430A6070470000B1
:10248000003C0140F0B50A4600210023002400BFB3
:102490003DE0012505FA01F3156805EA03049C42B5
:1024A00034D105684F000326BE40B5430560157959
:1024B0004E00B5400668354305601579012D02D000
:1024C0001579022D16D185684F000326BE40B5430D
:1024D000856055794E00B54086683543856045680E
:1024E00001268E40B5434560456896798E40B6B268
:1024F00035434560C5684F000326BE40B543C560FF
:10250000D5794E00B540C6683543C560491C1029D1
:10251000BFD3F0BDF0B5002300244D07ED0E02FA45
:1025200005F3CE1000F1200555F826504E07F70EA2
:102530000F26BE40B543CF1000F1200646F82750C5
:10254000CE1000F1200555F8265045EA0304CE10C0
:1025500000F1200545F82640F0BD41837047018316
:1025600070470AB1018300E0418370470146486922
:10257000806880B2704708B50146D1F8CC00006889
:1025800000900098C0F3414008BD024602F29B2033
:10259000405C7047024602F5147050F82100704705
:1025A00070B504460E4600250021C4F8101200BF85
:1025B0000BE0002104F5057040F825103C3040F890
:1025C00025103C304155681CC5B20F2DF1DB0821A8
:1025D000A4F8B2123146204603F092FD204603F0E3
:1025E0009DF9204603F01AF80121204603F0F0FD82
:1025F000204603F0FAF8204603F0E7F9002070BD0A
:102600000146D1F81002704710B50446204603F089
:1026100056FD002010BD70B504460D46002104F2A1
:102620009B204155113000EB451041612946204661
:1026300003F0F4FB70BD00BFFEE721B1028842F455
:102640008062028004E002884FF6FF331A40028065
:10265000704770B502460024002500230020958AAB
:10266000138B1B0445EA030626F07F4404EA0106A7
:102670008E4201D1012000E0002070BD002221F037
:102680007F42D3438382704721B1028842F0010226
:10269000028004E002884FF6FE731A400280704701
:1026A00010B504461348844209D10121480500F0C1
:1026B000CBFB00214FF4001000F0C6FB18E00E48E1
:1026C000844209D10121880500F0BEFB00214FF4AE
:1026D000800000F0B9FB0BE00848844208D10121DA
:1026E000C80500F0B1FB00214FF4000000F0ACFB86
:1026F00010BD00000054004000580040005C004045
:1027000021B1028842F48072028004E002884FF610
:10271000FF631A400280704721B1028842F40072C0
:10272000028004E002884FF6FF531A40028070478F
:102730000CB50246002000230193009300920B0F7A
:10274000019321F07F41019B1BB1009B1433009347
:1027500003E0090C009B18330093009B1B680B409F
:102760000BB1012000E000200CBD00002DE9FF4767
:1027700004460D460026B1460427DFF8CC80A68823
:102780004FF6C0700640684600F08EFBDDF808800A
:102790002E48B8FBF0F01FFA80F946EA0906A68039
:1027A00020884FF6FE7108402080002628492868BE
:1027B00088420CD828684000B8FBF0F087B2042F9C
:1027C00000DA04273E4309F10100208427E0E8886D
:1027D0004BF6FF71884206D1286800EB4000B8FB39
:1027E000F0F087B209E0286800EBC00101EB0010AF
:1027F000B8FBF0F087B247F48047C7F30B0008B985
:1028000047F0010747F4004006434FF4967009FB78
:1028100000F04FF47A7190FBF1F0401C2084A68305
:10282000208840F00100208026884FF6F5300640D1
:10283000A8886989084306432680A889298908430E
:102840002081BDE8FF87000000127A0040420F009F
:10285000A08601000146088AC0B2704712B141F05B
:10286000010101E001F0FE01018270470182704721
:1028700021B1828B42F48062828304E0828B4FF626
:10288000FF331A40828370472DE9F04F0025022361
:102890000024012700220026944690469146B0F875
:1028A0001CA04FF2400B0AEA0B0AA0F81CA04FF044
:1028B000020AA0F820A0858BD1F808A0BAF1020F77
:1028C00001D100BF6CE0B1F804A0BAF1000F01D152
:1028D000012700E00227DFF810A1DAF800A00AF4CF
:1028E000000ABAF1000F09D0DFF8FCA0DAF800A066
:1028F0002AF4000ADFF8F0B0CBF800A0DFF8E8A077
:102900000AF17C0ADAF800A0CAF38818DFF8D8A028
:102910000AF17C0ADAF800A0CAF30279DFF8C8A04D
:10292000AAF1040ADAF800A00AF03F0CDFF8BCA014
:10293000BAFBFCFA0AFB08FABAFBF9F6B1F806A0F2
:10294000BAF5007F0ED14FEA162A0AEB8A0A4FEA3F
:102950004A0AD1F808B0BAFBFBFA0AF1050A1FFAD5
:102960008AF20FE04FEA471AB6FBFAFA0AEB8A0A34
:102970004FEA4A0AD1F808B0BAFBFBFA0AF1050A95
:102980001FFA8AF24FF00A0AB2FBFAF202F00104CF
:10299000A2EB040ACAF34F034FF6FF7A0AEA0424B3
:1029A000022B01DBFF2B01DD02230024B1F806A07E
:1029B0004AEA040A4AEA030AA0F820A0B1F804A0EF
:1029C000B1F80CB04AEA0B0AB1F802B04AEA0B0AB5
:1029D000B1F800B04AEA0B0A4AF4006A4AEA05056F
:1029E0008583BDE8F08F00000838024000127A00AD
:1029F00038B504460020009000F026F86078217871
:102A00000843E178084321790843A17808430090FE
:102A100001222021684600F011F938BD38B504467E
:102A20000020009001223821684600F0A7F82078A5
:102A300061780843A1780843009001223821684654
:102A400000F0FCF838BD000000B587B00121080394
:102A500000F00AFA0121084600F0C6F90121102011
:102A600000F0C2F90121102000F0BEF90121102070
:102A700000F0BAF9052211463D48FFF74BFD05224B
:102A800006213B48FFF746FD052207213848FFF79E
:102A900041FD02208DF8180000208DF81A00022058
:102AA0008DF81B008DF819002020059005A93048ED
:102AB000FFF7E8FC8020059005A92D48FFF7E2FC10
:102AC0004020059005A92A48FFF7DCFC294800F0C2
:102AD000DDFA0020ADF80000ADF80400ADF8060006
:102AE000ADF808004FF40070ADF80A000820ADF80A
:102AF0000C000020ADF80E000720ADF810004FF4D8
:102B00008270ADF8020069461A4800F023FB0121EB
:102B1000184800F0A5FA0820059001208DF818004B
:102B200000208DF81A0002208DF8190005A912481E
:102B3000FFF7A8FC08211048FFF711FD01200590C0
:102B400000208DF818008DF81A0002208DF8190069
:102B500000208DF81B0005A90748FFF793FC022011
:102B6000059005A90448FFF78DFC07B000BD0000E3
:102B700000000240003001400010024070B50646DF
:102B80000C461546012D02DD44F0C00401E044F07E
:102B9000800408210A48FFF7E0FC204600F012F804
:102BA00006E0002000F00EF83070681E85B2761C3A
:102BB000002DF6DC08210248FFF7D1FC70BD0000B3
:102BC0000010024010B504464FF4805018490860C8
:102BD00009E017490868411E154A116018B900F04C
:102BE0002BF8C0B210BD0221124800F07BFA002879
:102BF000EFD021460F4800F0ABFA4FF480500C495B
:102C0000086009E00A490868411E094A116018B9BC
:102C100000F012F8C0B2E5E70121064800F062FAC0
:102C20000028EFD0034800F090FAC0B2DAE70000C5
:102C3000F40000200030014000BFFEE770B50546FB
:102C40000E461446012C01DD46F0400608210A48D4
:102C5000FFF783FC3046FFF7B5FF05E02878FFF764
:102C6000B1FF601E84B26D1C012CF7DA0821024806
:102C7000FFF775FC70BD00000010024000BFFEE7CA
:102C80001FB50020039040208DF8040000208DF82F
:102C9000050007208DF8060000208DF807008DF84C
:102CA000080001A8FFF7A4FE40208DF800001020C6
:102CB0008DF8010020208DF802006846FFF7AEFE77
:102CC0003F2003900122222103A8FFF7B7FF5020E5
:102CD00003900122382103A8FFF7B0FFAA20039038
:102CE00001223B2103A8FFF7A9FF0A20039001223C
:102CF0003C2103A8FFF7A2FF4C20039001223021C2
:102D000003A8FFF79BFF0320039001223D2103A8A6
:102D1000FFF794FF7F20039001223E2103A8FFF7D5
:102D20008DFF7F20039001223F2103A8FFF786FF3C
:102D30001FBD704770B5002100230F22C4781CB35B
:102D4000174C246804F4E064C4F5E064C4F307217C
:102D5000C1F10404E3B20A4144789C40E1B28478B2
:102D6000144021430C07210E0E4C05786155047860
:102D700004F01F050124AC4005786D11AD0005F18C
:102D8000E025C5F8004109E0047804F01F0501249E
:102D9000AC40054D0678761145F8264070BD000020
:102DA0000CED00E000E400E080E100E002490143B6
:102DB000024A1160704700000000FA050CED00E0C7
:102DC000024A0A400243024B1A60704780FFFF1F0D
:102DD00008ED00E010B5024802F024F810BD000034
:102DE000980400207047000029B1064A1268024387
:102DF000044B1A6004E0034A12688243014B1A60D4
:102E0000704700003038024029B1064A1268024378
:102E1000044B1A6004E0034A12688243014B1A60B3
:102E2000704700003438024029B1064A1268024354
:102E3000044B1A6004E0034A12688243014B1A6093
:102E4000704700004038024029B1064A1268024328
:102E5000044B1A6004E0034A12688243014B1A6073
:102E6000704700002038024029B1064A1268024328
:102E7000044B1A6004E0034A12688243014B1A6053
:102E8000704700004438024029B1064A12680243E4
:102E9000044B1A6004E0034A12688243014B1A6033
:102EA0007047000024380240F0B5002100220024C1
:102EB000022500260223324F3F6807F00C0121B1A2
:102EC000042905D0082937D105E02E4F076036E0E8
:102ED0002D4F076033E02A4F3F1F3F68C7F38056EE
:102EE000274F3F1F3F6807F03F036EB1264FB7FBE8
:102EF000F3F7DFF88CC0ACF1040CDCF800C0CCF3C5
:102F0000881C07FB0CF40CE01E4FB7FBF3F7DFF84F
:102F100070C0ACF1040CDCF800C0CCF3881C07FBDB
:102F20000CF4174F3F1F3F68C7F301477F1C7D001C
:102F3000B4FBF5F7076002E0124F076000BF00BF67
:102F40000F4F3F6807F0F0010909104F7A5C0768DE
:102F5000D74047600A4F3F6807F4E051890A0B4F9A
:102F60007A5C4768D7408760054F3F6807F4604147
:102F7000490B064F7A5C4768D740C760F0BD000038
:102F8000083802400024F40000127A0038010020C2
:102F9000F0B504460D460021002000BF05E06E1884
:102FA000A65DCF00BE403043491C9142F7D3012BB0
:102FB00000D100BAF0BD000070B56021134800F0E8
:102FC0009AF810B3114800F0C0F80446200AE1B2A4
:102FD00040EA01210E4802680068401C0C4B186052
:102FE0000C4820F812101846006840280DD3002025
:102FF000194608603225084B2A46084801680548EA
:10300000FDF74DF901200649086070BD0038004009
:10301000D800002084400020103E0020CC0000207A
:10302000C400002010B502210B4800F05BF888B105
:103030000A480068022806D1FFF771F804462146C5
:103040000420FEF7F5FEFFF76AF804462146024821
:1030500000F07EF810BD0000003C00400C01002094
:1030600021B1028842F04002028004E002884FF65B
:10307000BF731A40028070471AB183880B43838064
:1030800002E083888B4383807047000010B50446BC
:103090001148844208D101218014FFF7F5FE002178
:1030A000A014FFF7F1FE16E00C48844208D101217C
:1030B0000014FFF7C9FE00212014FFF7C5FE0AE047
:1030C0000748844207D10121C013FFF7BDFE00214C
:1030D000E013FFF7B9FE10BD00300140003800409A
:1030E000003C00400246002013890B400BB1012038
:1030F00000E000207047F0B50246002000240023C5
:10310000002501F00F070126BE40B4B20B110126C5
:103110009E40B3B2968806EA03051689264016B18A
:103120000DB1012000E00020F0BD30B500240023E7
:103130000C110125A540ABB21AB185881D438580CD
:1031400002E085889D43858030BD014688897047AF
:103150008181704710B50022028802F441520B8829
:103160004C8823438C882343CC8823430C892343F6
:103170004C8923438C892343CC8923431A430280FF
:10318000838B4FF2FF74234083830B8A038210BD2D
:103190001CB504460E4951F824000121FFF724FE16
:1031A0000C4830F81400009001208DF80400002035
:1031B0008DF8060001208DF8070002208DF805002B
:1031C000054951F824006946FFF75CF91CBD000071
:1031D000C4940008BC940008DC000020034931F8C6
:1031E0001010034A52F8202051837047BC94000805
:1031F000DC000020034931F81010034A52F8202067
:1032000011837047BC940008DC000020064951F887
:1032100020104969054A32F810205140024A52F8FC
:103220002020516170470000DC000020BC940008A1
:1032300030B585B004460D46204951F824000121DF
:10324000FFF7D2FD01218803FFF70EFE00208DF865
:1032500010008DF813001A4830F814000390194933
:1032600051F8240003A9FFF70DF9012D24D1164AC6
:10327000115D164A105D00F031F8154830F8140061
:10328000019000208DF8080008208DF80900012029
:103290008DF80A0001A8FFF7ABF80E48005D8DF825
:1032A00000000F208DF801008DF8020001208DF83C
:1032B00003006846FFF73EFD05B030BDD894000816
:1032C000D4940008EC000020DF940008DE9400088D
:1032D000DC940008E09400087047000030B500223C
:1032E0008B071C0F0F2303FA04F20B4B8C1053F8BF
:1032F00024309343084C8D1044F8253023468C101D
:1033000053F824308C07240F00FA04F42343024CB2
:103310008D1044F8253030BD083801400CB5002030
:10332000019000904148006840F480303F490860B7
:1033300000BF3E48006800F4003000900198401C37
:103340000190009818B90198B0F5A06FF1D13748F5
:10335000006800F4003010B10120009001E000206E
:1033600000900098012846D130484030006840F075
:1033700080502E49403108602D48006840F480405C
:103380002B4908602948083000682849083108603E
:103390000846006840F4004008600846006840F4B1
:1033A000A05008602348091F0860081F006840F00B
:1033B0008070091F086000BF1C48006800F00070A2
:1033C0000028F9D040F205601B4908601748083012
:1033D000006820F0030015490831086008460068BD
:1033E00040F00200086000BF10480830006800F09C
:1033F0000C000828F8D10D480830006820F40000BF
:103400000A49083108600D480849843108600748B6
:10341000006840F080600549086000BF034800680C
:1034200000F000600028F9D00CBD00000038024018
:103430000070004008544007003C024080400030CB
:1034400010B500F0E3F905480078012804D10448DC
:103450000088401C0249088010BD000028000020A0
:103460000A00002010B51548006840F470001349A8
:1034700008601348006840F001001149086000200E
:103480000F49083108600E4800680E4908400C4991
:1034900008600D48091D0860081F006820F480209E
:1034A000091F0860002006490C310860FFF736FF4D
:1034B0004FF0006001498039086010BD88ED00E0E0
:1034C00000380240FFFFF6FE1030002410B502F075
:1034D0007BF810BD08B5002000903348007848B153
:1034E000012239216846FFF749FB062227212F4890
:1034F000FFF744FB02212E4800F080F8002851D04D
:1035000002212B4800F068F82A480078032809D1E6
:103510000120FFF77BFE0320FFF760FE0020FFF78E
:103520005DFE32E023480078042809D10020FFF72F
:103530006DFE0320FFF752FE0120FFF74FFE24E04F
:103540001C480078062809D10120FFF747FE00201B
:10355000FFF744FE0320FFF759FE16E015480078F8
:1035600018B90320FFF746FE0FE01248007807283D
:103570000BD10120FFF732FE0020FFF72FFE0220C3
:10358000FFF72CFE0320FFF729FE094800F033F86F
:103590000949088008460088084A128881180448AA
:1035A00000F0EFF808BD0000950000209C0000200E
:1035B0000008004006000020080000200200002053
:1035C00021B1028842F08002028004E002884FF6B6
:1035D0007F731A4002807047CA430282704721B14C
:1035E000028842F00102028004E002884FF6FE7376
:1035F0001A40028070470146486B704730B502465A
:10360000002000230024158A05EA0103958905EAB4
:10361000010413B10CB1012000E0002030BD1AB14B
:1036200083890B43838102E083898B4383817047C5
:1036300010B58AB0002401210420FFF7F5FB4FF4F8
:10364000A060FFF7B3FB1E208DF8040000208DF86A
:1036500005008DF8060001208DF8070001A8FFF78E
:1036600069FB0120FFF794FD0020FFF791FD032087
:10367000FFF78EFD1B4800681B49B0FBF1F0401EB0
:1036800084B24FF6FF700390ADF808400020ADF80B
:103690001000ADF80A0002A9144800F075F80121E5
:1036A0001248FFF78DFF0020ADF814000120ADF89F
:1036B00016000F48008807900020ADF8200005A9EB
:1036C0000A4800F017F80021084800F051F80122DC
:1036D00002210648FFF7A3FF01210448FFF77FFFFF
:1036E0000AB010BD0C000020706408000008004003
:1036F0000200002070B5002400220023058C4FF644
:10370000FE7635400584028C8388048B4FF68F75D6
:103710002C40B51E2C400D882C43751E2A408D89E7
:103720002A434D882A43104DA84202D00F4DA8428B
:1037300013D14FF6F7752A40CD892A434FF6FB7512
:103740002A408D882A434FF6FF652B404FF6FF55E0
:103750002B400D8A2B434D8A2B43838004838D6835
:103760004563028470BD0000000001400004014078
:103770000A460021018B4FF6F7731940114301836C
:10378000704741637047000000220288184B98423E
:103790000ED0184B98420BD0B0F1804F08D0164B8A
:1037A000984205D0154B984202D0154B984204D14F
:1037B0004FF68F731A404B881A43124B984207D02A
:1037C000114B984204D04FF6FF431A400B891A431D
:1037D00002804B68C3620B880385054B984202D078
:1037E000044B984201D18B7A038601238382704770
:1037F00000000140000401400004004000080040B7
:10380000000C004000100040001400400448006814
:1038100020B103480068401E01490860704700005D
:10382000A800002070B505460E46284600F0CCF9E9
:1038300004464FF6FF70844205D046F4004105F27D
:103840008C4020F81410E0B270BD2DE9F04105461F
:103850000E4617461C46012105F52B7000EB44105F
:10386000817005F52B7000EB4410C66005F52B70D8
:1038700000EB4410076105F52B7000EB4410007E4F
:1038800030B9002105F52B7000EB4410017205E002
:10389000022105F52B7000EB4410017221462846E9
:1038A000FEF7B9FE0020BDE8F0812DE9F0410546A4
:1038B0000E4617461C46002105F52B7000EB441000
:1038C000817005F52B7000EB4410C66005F52B7078
:1038D00000EB4410076105F52B7000EB4410407EAF
:1038E00028B905F52B7000EB4410017205E00221A8
:1038F00005F52B7000EB4410017221462846FEF7B7
:103900008AFE0020BDE8F0812DE9F04105460C4615
:1039100016461F4602212175012161750021E182B1
:103920002683618306F08000802805D105F52B7081
:1039300000EB4710017605E0002105F52B7000EB48
:103940004710417600231A462146284600F02FF8FA
:10395000BDE8F08101460123D1F8AC2413720023A5
:10396000D1F8AC24937270472DE9F04105460E461C
:1039700017461C46012105F52B7000EB44108170A1
:10398000022105F52B7000EB4410017205F52B7038
:1039900000EB4410C66005F52B7000EB4410076186
:1039A00021462846FEF737FE0020BDE8F0812DE9CC
:1039B000F04780460C4616461F4600256179404672
:1039C000FEF7E3FD05464FF00109E078012802D03B
:1039D00002281FD109E03A463146204601F097FC03
:1039E0000220E0704FF0010915E0012D04D1012003
:1039F000E0704FF000090CE0032D04D10120E070CD
:103A00004FF0020905E0042D03D10120E0704FF0D2
:103A1000030900E000BF00BF4846BDE8F0872DE97C
:103A2000F04105460F4616461C46002105F52B7051
:103A300000EB4410817005F52B7000EB4410C7605B
:103A400005F52B7000EB441006612EB9012105F538
:103A50002B7000EB4410417605F52B7000EB441001
:103A6000407E30B9002105F52B7000EB4410017247
:103A700005E0022105F52B7000EB44100172214690
:103A80002846FEF7C8FD0020BDE8F08170B5054668
:103A90000E461446002105F52B7000EB4410817092
:103AA000032105F52B7000EB4410017205F52B7016
:103AB00000EB4410C660082105F52B7000EB4410A4
:103AC000016121462846FEF7A6FDC0B270BD024640
:103AD000022106E0002302F28C4020F81130481C3D
:103AE000C1B20829F6DB0020704770B505460C46C8
:103AF000002020706070A0700120E070012121770B
:103B00004021A171002084F82000012121200155CD
:103B10002179284600F027F86179284600F023F83B
:103B2000002070BD01460123D1F8AC24537200235C
:103B3000D1F8AC24D372704770B504460D46052DFC
:103B400001D0042D06D1D4F88010486C80470C2099
:103B5000207007E0062D05D10C202070D4F88010CD
:103B60000868804770BD0246082909DA02F28C40D5
:103B700030F81100C0F30E0302F28C4020F811302F
:103B8000002070472DE9F04780460C4616461D463A
:103B9000DDE9089746F08001217506216175E5820F
:103BA00005F47F40B0F5407F03D140F20941218305
:103BB00001E00021218367833B464A462146404677
:103BC000FFF7F5FEBDE8F0870246002100BF0AE0DE
:103BD00002F28C4030F8110000F4004008B90846A9
:103BE0007047481CC1B20829F2DB4FF6FF70F7E7B7
:103BF00010B502460B88147823440B80137898186C
:103C000010BD2DE9FC4105460C46164605F58870A9
:103C10004FF4007300222146CDE900062846FFF745
:103C2000B1FF07000AD105F5887304F1500204F1D1
:103C30003E0104F13400009601F095F93846BDE8E4
:103C4000FC812DE9FC4104460D46164604F58870BA
:103C50004FF4807300222946CDE900062046FFF785
:103C600091FF070006D1324604F5887105F1220064
:103C700001F0E6F93846BDE8FC812DE9FC47044631
:103C8000884615461E460A9F04F5887045F4407321
:103C900000224146CDE900072046FFF773FF5FEAA7
:103CA000000905D13A46314604F5887001F017FA4B
:103CB0004846BDE8FC8700002DE9F04106460C4669
:103CC0004FF0000800250021A174207F0C287DD230
:103CD000DFE800F0FE060F3D46657D969FC3DAEEF5
:103CE000627904F114013046FFF7D0FE02212177FA
:103CF000EFE061793046FEF748FC0546012D1FD103
:103D0000207D00F08007608B58B141F28830734904
:103D10000880802F02D1032121770CE00521217733
:103D200009E032206D490880802F02D109212177D6
:103D300001E0072121773046FEF718FC208205E0DC
:103D4000032D03D10B2121770521A174C1E0237933
:103D5000227B3046A168FFF707FE04212177B8E0F7
:103D600021793046FEF711FC0546012D01D10921CC
:103D70002177042D02D1607820700FE0032D02D14D
:103D80000B2121770AE03046FEF7F0FB218A401A2A
:103D900052490988884201D90B21217799E061793C
:103DA00006F52B7000EB4110407E80F00101627936
:103DB00006F52B7000EB421041766379227B30468A
:103DC000A168FFF72CFE0621217782E080E061796F
:103DD0003046FEF7DAFB0546012D02D10721217797
:103DE0000DE0042D02D16078207008E0022D02D190
:103DF0000521217703E0032D01D10B21217768E014
:103E00002379002211463046FFF7AEFD08212177C5
:103E10005FE021793046FEF7B8FB0546012D02D15F
:103E20006078207018E0032D02D10B21217713E078
:103E30003046FEF79BFB218A401A284909888842B0
:103E400002D90B21217707E0042D05D1607820707D
:103E50000421A1744FF003083BE0617906F52B7053
:103E600000EB4110407E80F00101627906F52B7075
:103E700000EB421041766379002211463046FFF78D
:103E8000CEFD0A21217724E061793046FEF77DFBE3
:103E90000546012D02D16078207008E0022D02D184
:103EA0000921217703E0032D01D10B21217710E0B7
:103EB000A07B401CC1B2A173022902DC0121217741
:103EC00005E00821A174607820704FF0020800E03E
:103ED00000BF00BF4046BDE8F0810000880100201F
:103EE00070B592B005460C460126A0780A2877D214
:103EF000DFE800F00528375A637794B1CED808225E
:103F000021462846FFF79DFED8B994F82910A171E3
:103F10002846FEF779FB0120A070A0790021CDE9A9
:103F20000010617900231A46284600F049FFA07965
:103F30000021CDE90010217900231A46284600F01F
:103F40003FFFB2E0122221462846FFF77AFE38B939
:103F5000D4F88000C16904F1220088470220A070D3
:103F6000A3E001222146284601F0ABF9D8B901208F
:103F7000A41CA077D4F87E10086A80470320207024
:103F8000002000900190A27FA1780346284600F00F
:103F900017FF002000900190A27FA41E61790346C4
:103FA000284600F00DFF80E0092221462846FFF751
:103FB00028FE08B90420A07077E0E28E214628464A
:103FC000FFF71FFE58B9D4F8800004F1500204F145
:103FD0003E01436A04F1340098470520A07064E074
:103FE00062E094F8300088B1FF20009094F830200F
:103FF00002AB21462846FFF740FE70B9D4F8800096
:10400000816A02A888470620A07006E0D4F88000E4
:10401000816A28A088470620A07046E094F8310005
:1040200088B1FF20009094F8312002AB2146284649
:10403000FFF723FE70B9D4F88000C16A02A8884750
:104040000720A07006E0D4F88000C16A19A0884754
:104050000720A07029E094F8320088B1FF2000907A
:1040600094F8322002AB21462846FFF706FE70B9CD
:10407000D4F88000016B02A888470820A07006E0F1
:10408000D4F88000016B0BA088470820A0700CE0DA
:1040900094F839202146284601F026F908B909206C
:1040A000A07002E0002600E000BF00BF304612B062
:1040B00070BD00004E2F41002DE9F04105460F462E
:1040C00014461E46DDF81880284601F017FA002035
:1040D00001F0BEF921462846FFF707FDE667C4F860
:1040E00080800B49C5F8AC140021D5F8AC040172EE
:1040F000D5F8AC04417239462846FEF751FAD4F897
:10410000801008688047284601F0D4F9BDE8F081A6
:104110007C01002070B505460C4621212175FF2148
:1041200061750021E1822183618300231A462146C3
:104130002846FFF73CFC70BD2DE9F04105460E46D0
:104140001446012714B1012C12D108E0104803785D
:10415000C27831462846FFF7D7FB074609E00C48EE
:104160004378827831462846FFF7CEFB074600E0C9
:1041700000BF00BF07480068401C064908600846A9
:104180000068042800D904273846BDE8F081000003
:10419000CC4500204C01002010B502460020002331
:1041A000014C237010BD0000BC4500202DE9F041FA
:1041B00005460F46002601242846FEF721FA20B3C3
:1041C000154801782846FEF7E5F906460D2E01D080
:1041D00002241CE0114800681149884216D10F489A
:1041E000406810494968884211D10C48007B08B9E1
:1041F00000240CE00948007B012801D1012406E0DD
:104200000648007B022802D1022400E0022406486E
:10421000C4732046BDE8F081CC450020AC450020A9
:10422000555342538C450020BC450020012812D133
:104230000D490978491C0C4A1170114609780A2960
:1042400005DA0621094A11700121D1700AE00A211C
:10425000064A117006E0022803D10A21034A1170B0
:1042600000E000BF7047000064010020BC45002052
:1042700070B505460C46A1212175FE21617500210E
:10428000E1822183012161830123034A21462846DB
:10429000FFF78DFB70BD0000D44500202DE9F047ED
:1042A00081460F463E46012403254FF0000848464C
:1042B000FEF7A6F9002878D05E4800780B2875D262
:1042C000DFE800F0060D1E5566798A999E44B0001D
:1042D000484600F035FA012056490870A5E03946F5
:1042E0004846FFF717FF044614B9022051490870E9
:1042F000032C04D102204F4948700920087094E033
:1043000039464846FFF7B4FF0446BCB94A48007A2C
:10431000494981F84800084690F8480000280ADD1D
:104320004648007838B9012044490870D6F8801012
:10433000086C804779E003203E490870032C04D1C3
:1043400003203C494870092008706EE07379002210
:1043500039464846FFF7D8FA04463CB900203649AA
:1043600081F8480033484078324908705DE048469B
:1043700000F05CFC05463DB904202E490870002081
:104380002F490870002402E02846FFF74FFF4CE059
:10439000484600F06DFB05464DB9052025490870DB
:1043A000002027490870002404E03FE03CE0284654
:1043B000FFF73CFF39E0484600F072FA05463DB988
:1043C00008201C49087000201D490870002402E0E4
:1043D0002846FFF72BFF28E0484600F0B7FB0546CC
:1043E0002DB91448407813490870002402E028468B
:1043F000FFF71CFF19E03946484600F023F814E0A7
:10440000D6F88010C86B804700F0FF08B8F1000FA5
:1044100003D108200749087003E0B8F1010F00D16B
:10442000062402E0042400E000BF00BF2046BDE8EF
:10443000F0870000BC450020CC450020780100201A
:10444000640100202DE9F04780468946002440465B
:10445000FEF7D6F800287BD0B1480079092878D239
:10446000DFE800F07705124D98EAF5F4F300AD4867
:1044700043781F22AC494046FFF717FA0120A849AC
:1044800048710220087147E1A64841784046FEF78E
:104490007CF80446012C22D10020A44908600220A7
:1044A0009F494871A048007B00F080079E488068C3
:1044B00088B19D4880689E490860994880689D49F8
:1044C0000860802F03D103209549087116E004206D
:1044D0009349087112E00520914908710EE0022C01
:1044E00004D18F4840798E49087107E0042C05D12A
:1044F0000120914908700820894908710CE1894818
:1045000001784046FEF741F80446012C03D0844868
:104510004079032833D00020844908600320804973
:10452000487183480068402814D97E4803784022A7
:10453000804801684046FFF788F97D4800684038A8
:104540007B4908607B48006840307A49086020E079
:10455000E3E0E0E07648006818B90520704908718A
:1045600017E0704803787248008882B27148016889
:104570004046FFF76AF900206D49086009E0042C05
:1045800007D100206C490870072065490871052093
:104590004871C1E0634841784046FDF7F6FF0446A4
:1045A000012C31D100206149086004205C49487128
:1045B0005F480068402812D95A48437840225D4835
:1045C00001684046FFF771F95A4800684030594980
:1045D0000860574800684038554908602BE0544847
:1045E000006818B905204E49087124E04D48437809
:1045F0004F48008882B24F4801684046FFF755F99E
:1046000000204B49086016E0022C0AD14548437847
:1046100048480068A0F1400140224046FFF745F9B4
:1046200009E0042C07D101204349087008203C49C7
:104630000871052048716FE00520394948713F48ED
:1046400088603F2088810D2607E052E037E015E0C2
:1046500000203A498855701EC6B2002EF8D10020BD
:10466000364908702F4803782D483F22816840461C
:10467000FFF7EBF806202A4908714DE02948017838
:104680004046FDF782FF0446012C0FD10020274948
:10469000086005202249487108468078087049461C
:1046A0004046FFF783FD1E49C87307E0042C05D17F
:1046B0000020214908700720194908712CE00022C8
:1046C00049464046FFF738FD054665B91A48007867
:1046D000022803D108201249087109E010484079E6
:1046E0000F49087104E0042D02D102200C49C8735F
:1046F00012E0012249464046FFF71EFD054625B956
:10470000074840790649087104E0042D02D10220CF
:104710000349C87300E000BF00BFBDE8F087000098
:10472000BC450020CC4500208C4500204C010020D9
:10473000500100205401002058010020AC45002009
:1047400010B504462046FDF75BFF48B1074808490D
:104750000860084848600020487301200649C87076
:104760000020064908600649087010BD55534243B1
:104770008C45002050403020BC4500204C010020DA
:104780006401002070B504460D461048407860B1C1
:104790000E484178204601F0E6F90C484178204661
:1047A000FFF7E1F90020094948700848007860B136
:1047B00006480178204601F0D6F9044801782046E1
:1047C000FFF7D1F900200149087070BDCC450020E9
:1047D0007CB506460D462C4694F84300082856D171
:1047E00094F84500502852D194F8520000F080000F
:1047F00038B194F852002949C870B4F85400888040
:1048000006E094F8520025498870B4F85400C88036
:1048100094F85A0000F0800038B194F85A001F490B
:10482000C870B4F85C00888006E094F85A001B4910
:104830008870B4F85C00C880184881783046FEF76C
:10484000F1FF164948700846C1783046FEF7EAFF86
:10485000124908700846C0880221CDE900102120C5
:10486000035D94F820200D484178304600F02EFB7F
:104870000A4880880221CDE900102120035D94F8C8
:10488000202006480178304600F020FB03E0D4F8F1
:104890008010086C804700207CBD0000CC450020C3
:1048A00070B5054603262846FDF7AAFE002855D018
:1048B0002B48C078012802D002284DD127E03F20A4
:1048C00028498860802008730A2088732648244974
:1048D000886005208870102405E0002121480F30F1
:1048E0000155601EC4B2002CF7D11A201D49C873AF
:1048F0003F211C484174C1740120194908710720E7
:1049000008700320C8730220C870032625E01448ED
:10491000C07B80B91448807800F0800018B1012075
:104920001249087302E000201049087301200C4965
:10493000C87000260FE00A48C07B012803D108494F
:10494000C870012607E00648C07B022803D1012079
:104950000349C870022600E000BF00BF304670BDAA
:10496000BC4500208C4500208C4100207C4100206B
:10497000FFB581B007460E461D4603203949087031
:104980003846FDF73DFE002867D03748C07801283B
:1049900002D002285FD139E0344885608020334955
:1049A00008730A20887330488660102405E00021CF
:1049B0002E480F300155601EC4B2002CF7D12820BC
:1049C0002A49C8739DF80F10284841749DF80E10AD
:1049D00081749DF80D10C1749DF80C100175C5F31C
:1049E0004F2000909DF80110204881759DF800101F
:1049F000C17501201C490871072008700320C87385
:104A00000220C87003201749087025E01648C07BB3
:104A100050B93846FDF7F4FD30B101201249C87095
:104A200000201049087015E00F48C07B012807D10D
:104A30003846FDF7E5FD18B101200B49C87009E0C3
:104A40000948C07B022805D101200749C87002200F
:104A50000449087000E000BF00BF0248007805B0BC
:104A6000F0BD000048010020BC4500208C4500201E
:104A700070B5054603262846FDF7C2FD00285AD02A
:104A80002E48C078012802D0022852D123E0082005
:104A90002B498860802008730A2088732948274999
:104AA000886004208870102405E0002124480F301D
:104AB0000155601EC4B2002CF7D125202049C873CF
:104AC00001201E490871072008700320C8730220C6
:104AD000C87003262EE01948C07BC8B91948007871
:104AE0001949C8701748407888701648807848700F
:104AF0001448C078087013488179134841721148EE
:104B0000C0791149087201200C49C87000260FE0D5
:104B10000A48C07B012803D10849C870012607E074
:104B20000648C07B022803D101200449C870022630
:104B300000E000BF00BF304670BD0000BC45002053
:104B40008C4500208C4100207C41002070B505463A
:104B500003262846FDF754FD00285DD02F48C07875
:104B6000012802D0022855D12BE03F202C49886033
:104B7000802008730A2088732A48284988600846DC
:104B80008078487006208870102405E000212448B1
:104B90000F300155601EC4B2002CF7D1032020490C
:104BA000C87300211E4801743F21C17401201B49B4
:104BB0000871072008700320C8730220C8700326FC
:104BC00029E01648C07BA0B9164801781648C17183
:104BD0001448417814488171124881781248417113
:104BE0001048C0781049087101200C49C87000268F
:104BF0000FE00A48C07B012803D10849C87001268C
:104C000007E00648C07B022803D101200349C87091
:104C1000022600E000BF00BF304670BDBC4500204A
:104C20008C4500208C4100207C41002070B5054659
:104C300003262846FDF7E4FC002846D02448C07827
:104C4000012802D002283ED124E0002021498860BA
:104C500008730620887320481D4988603F2088819A
:104C600003208870102405E000211A480F300155F8
:104C7000601EC4B2002CF7D100201649C873012071
:104C800013490871072008700320C8730220C870F8
:104C9000032619E00E48C07B20B901200C49C870DA
:104CA00000260FE00A48C07B012803D10849C870DC
:104CB000012607E00648C07B022803D101200449F1
:104CC000C870022600E000BF00BF304670BD000083
:104CD000BC4500208C450020AC4500202DE9FF415B
:104CE00082B007460E461D464FF003083846FDF7D2
:104CF00087FC00285BD03048C078012802D0022809
:104D000053D138E02D48856000202C4908730A20D3
:104D1000887329488660102405E0002127480F3059
:104D20000155601EC4B2002CF7D12A202349C87354
:104D30009DF81310214841749DF8121081749DF85C
:104D40001110C1749DF810100175C5F34F2001902A
:104D50009DF80510194881759DF80410C175012052
:104D600015490871072008700320C8730220C87015
:104D70004FF003081AE01048C07B28B901200E4903
:104D8000C8704FF000080FE00B48C07B012802D12B
:104D90000949C87008E00848C07B022804D10120F6
:104DA0000549C8704FF0020800E000BF00BF404650
:104DB00006B0BDE8F0810000BC4500208C45002015
:104DC0002DE9F04704460D4617461E46DDE90898D2
:104DD00027B104F52B7000EB4510077004F52B701C
:104DE00000EB4510C088404508D0B8F1000F05D051
:104DF00004F52B7000EB4510A0F8068004F52B702D
:104E000000EB4510C078B04205D026B104F52B70F8
:104E100000EB4510C6702946204600F0E3FE002056
:104E2000BDE8F08738B505460024002000902846EC
:104E300001F003F9002847D0284601F008F9009056
:104E4000009808B9002038BD0098C0F3C00018B120
:104E5000284602F08CF804430098C0F3001018B103
:104E6000284601F0D2FF04430098C0F3401018B167
:104E7000284601F011FE04430098C0F3806018B189
:104E8000284601F02BFF04430098C0F3406018B19E
:104E9000284601F0FEF904430098C0F3006018B101
:104EA000284601F08FFE04430098C0F3407018B10B
:104EB000284601F0B4F904430098C0F3405018B1FB
:104EC000284601F0C3F904432046BCE72DE9F0472A
:104ED00004460D4617461E46DDE9088904F28C405B
:104EE00010F8150000F07F0104F52B7000EB451061
:104EF000417004F28C4010F81500C0F3C01104F5A5
:104F00002B7000EB4510817004F52B7000EB451001
:104F1000077004F52B7000EB451080F8058004F550
:104F20002B7000EB4510A0F8069004F52B7000EBF9
:104F30004510C670002104F52B7000EB451001767A
:104F400004F52B7000EB451041762EB9012104F5D4
:104F50002B7000EB451001712946204600F042FEFF
:104F60000020BDE8F0872DE9FC5F05468A469346A0
:104F70001E46344600BF3078287070786870B1786B
:104F8000F07801EB002068803079287170796871C1
:104F9000B079A871F079E871307A28720C980928F4
:104FA0004CDD092000902879022847DC4FF00008EA
:104FB00000272879022841DC3DE069462046FEF7BB
:104FC00017FE0446607804282FD108EBC80000EBD8
:104FD0000A072146384600F06FF84FF0000938798B
:104FE00002281DDC19E069462046FEF701FE044652
:104FF000607805280BD10BEBC90001902146019880
:1050000000F04AF809F101004FFA80F905E0207834
:10501000BDF80010084480B2009038794845E2DCC1
:1050200008F101004FFA80F805E02078BDF8001083
:10503000084480B2009028794045BEDCBDE8FC9F62
:1050400010B50B7803704B7843708C78CB7804EBF9
:10505000032343800B7903714B7943718B798371FF
:10506000CB79C371082A16DD0C7A4B7A04EB032343
:1050700003818C7ACB7A04EB032343810C7B4B7B3B
:1050800004EB032383818B7B8373CB7BC3730B7C08
:1050900003744B7C437410BD0A7802704A784270E6
:1050A0008A788270CA78C2700B794A7903EB02223F
:1050B00082808A79827170470A7802704A784270D9
:1050C0008A788270CA78C2700A7902714A7942710C
:1050D0008A798271CA79C2710A7A0272704730B5D0
:1050E00013464578032D14D10578AD1E9D4202DC90
:1050F0000578AD1E00E01D46ACB2801C002204E025
:10510000855C0D70491C951CAAB2A242F8DB0025F3
:105110000D7030BD3EB505460C4602200290207849
:105120000D2879D2DFE800F00E0718ACACAC5D7941
:105130008B97699C9D002846FDF766FA08B9002008
:1051400020709EE02846FDF75BFA20B12846FEF766
:10515000BEFC0220207094E0D4F88010886880475C
:105160000021D5F8AC0441720121D5F8AC0481725C
:1051700000212846FEF756FB607180212846FEF785
:1051800051FB20712846FDF73FFA48BBD4F8801048
:10519000C86880472846FDF7EEF9C1B221200155C5
:1051A000062020702122105DD4F880209169884764
:1051B000A0790021CDE900102120035D94F8202082
:1051C00021792846FFF782FEA0790021CDE9001061
:1051D0002120035D94F8202061792846FFF776FEB0
:1051E0004FE021462846FEF77BFE28B9D4F8801010
:1051F000486B80470A20207043E0D4F88010886B09
:105200008047012807D1E06F214602682846904771
:1052100008B90720207034E032E0E06F2146826850
:105220002846904702909DF8080010B90820207089
:1052300004E09DF808102046FEF77EFC21E0E06FB8
:105240002146C2682846904702909DF808102046E3
:10525000FEF772FC15E021462846FEF72DFD10E012
:105260000FE021462846FEF740FCD4F8801048683D
:105270008047E06F04F1200142682846904700E033
:1052800000BF00BF2846FDF7BBF9C8B9D5F8AC048C
:10529000C07AA8B9D4F88010086980470121D5F8F0
:1052A000AC04C17221462846FEF71FFCD4F88010DA
:1052B00048688047E06F04F1200142682846904723
:1052C0003EBD70B506460C461546002121750521E8
:1052D0006175E58200212183618300231A462146FE
:1052E0003046FEF764FB70BD70B506460C461546A9
:1052F0000021217509216175E582002121836183E7
:1053000000231A4621463046FEF751FB70BD10B50A
:105310000346187858700920187099609A81012402
:105320001C77002010BD70470020014908707047AD
:10533000760000207047000010B500200849087072
:105340000720084908700220FDF748FF0020FDF7FC
:1053500051FF012202210448FEF761F910BD00004F
:1053600000000020060000200008004010B50220C8
:10537000FDF740FF002202211048FEF750F91048C7
:10538000006840B10F480078012804D001F0E2FF26
:1053900000200C4908700B48007801280DD102F05C
:1053A00047F90120FDF71AFF012006490870002087
:1053B0000549088007200549087010BD0008004015
:1053C000A4000020280000200A0000200600002081
:1053D00070477047704710B54FF4FA7000F010F93D
:1053E00000F002F810BD704710B51248007810B1F7
:1053F00001281BD114E01049002003F03DF910B141
:105400004FF0FF3010BD0D48007B012804D102E0B1
:105410000220FDF7EFFEFBE701200649087006E0D9
:10542000FCF72CF900200349087000E000BF00BF22
:105430000020E7E776000020DC0900207C41002006
:10544000704770477047704770477047012070473A
:105450001CB5044601210420FDF7C6FC0120009084
:1054600002208DF8050001208DF8040000208DF841
:1054700006008DF8070069460548FDF703F801218D
:105480000348FDF76CF8C82000F0BAF81CBD000016
:105490000008024070B505460C4624B901210448B5
:1054A000FDF75DF803E001210148FDF756F870BDF6
:1054B0000008024038B504464FF4C060FDF776FCA2
:1054C00043208DF8000001208DF801008DF80200C6
:1054D0008DF803006846FDF72DFC17208DF80000BD
:1054E00001208DF8010002208DF8020001208DF8C6
:1054F00003006846FDF71EFC38BD00001CB50446DD
:1055000001210846FDF770FC4FF4D05000900320B5
:105510008DF8050002208DF8040000208DF80600AB
:105520008DF8070069461848FCF7ACFF0A220921EC
:105530001548FCF7EFFF0A220B211348FCF7EAFF9E
:105540000A220C211048FCF7E5FF4FF48060009020
:1055500001208DF806008DF8070003208DF8050066
:1055600069460948FCF78EFF0A2211460648FCF7F7
:10557000D1FF01218803FDF777FC01218020FDF791
:1055800043FC00F003F81CBD0000024008B50021F8
:105590004FF00060FDF714FC4FF4A060FDF706FC2F
:1055A0001C208DF8000000208DF8010001208DF8EE
:1055B00002008DF803006846FDF7BCFB0121084698
:1055C000FDF732FC08BD000010B501218807FEF789
:1055D00015F888B101218807FDF7FEFF074800682C
:1055E00028B106480068401E0449086004E0002114
:1055F0004FF08040FDF7F3FF10BD000024000020B5
:1056000010B5044601212046FBF7EAFF10BD10B596
:10561000044602212046FBF7E3FF10BD7FB5044698
:1056200000250020039002900090207A01284AD1A2
:10563000E068806B0290029820F480300290607ADB
:1056400028B1029820F4801000F580100290029892
:10565000E168886300200390E068C06803900398C5
:1056600020F040000390039820F4800003900398FA
:1056700020F0100010300390039820F008000390F1
:10568000039820F080000390039820F400300390EA
:10569000039820F4002003900398E168C860204636
:1056A00000F004F9E07801280CD1009820F01E00E9
:1056B0000A300090009820F02000203000900098E0
:1056C000E16888607BE0E068C0680390039820F0A0
:1056D0004000403003900398E168C860204600F025
:1056E000E5F800200290029820F4803000F5803028
:1056F0000290207A032805D1029820F4003000F5AA
:1057000000300290029820F4802000F58020029062
:10571000029820F4002000F500200290029820F466
:10572000001000F500100290607A28B1029820F471
:10573000801000F5801002900298E16888631420C0
:10574000FFF75EFFE068C0680390207A032805D168
:10575000039820F4803000F5803003900398E168CE
:10576000C860207A03282AD1E068006B0190019874
:1057700020F0406000F180600190019820F400006A
:105780000190019820F0805000F180500190019824
:1057900020F4FE0000F5341001900198E1680863E0
:1057A000C820FFF72DFF019820F4000000F500004D
:1057B00001900198E1680863C820FFF721FFE078B5
:1057C00001280FD1E06880680090009820F01E004A
:1057D0000A300090009820F02000203000900098BF
:1057E000E1688860284604B070BDFEB50446002616
:1057F000002500200290019000902046FFF728FE2F
:105800000021D4F80C0101600121204600F001FCC8
:10581000606900680090009820F0040000900099F2
:1058200060690160E07A01281DD18020E16848624A
:1058300002986FF30F0080300290029880B200F55A
:10584000C00002900298E168886201986FF30F002F
:10585000E0300190019880B200F5C00001900198FD
:10586000E168C1F800011021204600F01FF9204630
:1058700000F0F6F800250DE04FF0FF3104F1900044
:1058800050F825008160002104F1900050F82500B7
:10589000C1606D1C2078A842EED80121204600F09E
:1058A0004EF8204600F0A2F83046FEBDF8B504469A
:1058B000002600250020009000BF0320FFF7A7FE70
:1058C000E06800690090681C05461349884201D9C8
:1058D0000020F8BD0098C00F0028EED000250098E9
:1058E00020F00100401C00900098E168086100BFB2
:1058F000E06800690090681C05460749884200D9A5
:1059000004E0009800F001000028F1D100BF03205E
:10591000FFF77DFE3046DCE7400D030008B5014689
:10592000002000220092009A22F00102521C0092F4
:10593000CA689268009B9A43CB689A6008BD38B5E4
:1059400005460C460020009021462846FFF7A2FDA0
:10595000284600F084FB00900098C0F3003058B94E
:10596000012C09D1009820F4805000F5805000905F
:105970000099D5F8CC0001600098C0F3003040B128
:105980003CB9009820F4805000900099D5F8CC00E4
:105990000160C820FFF734FE38BD08B50021009132
:1059A000491EC2685160C2685161009921F00041EE
:1059B00001F100410091009921F4006101F50061BD
:1059C00000910099C268916108BD08B501460020A8
:1059D00000220092009A22F00102521C0092CA6832
:1059E0009268009B1A43CB689A6008BD38B504469C
:1059F000002500200090E1688861401EE168486150
:105A00002046FFF7CAFFE07820B9009820F0100088
:105A100010300090009820F0807000F180700090AD
:105A2000009820F0007000F100700090009820F0C5
:105A3000005000F100500090009820F0080008305D
:105A40000090009820F4001000F500100090E0682D
:105A50008069009988430843E1688861284638BD19
:105A6000F8B504460025002600200090009820F09C
:105A70001000103000900098E168086100BFE068F5
:105A800000690090701C06460749884200D904E06E
:105A90000098C0F300100028F1D100BF0320FFF7E9
:105AA000B6FD2846F8BD0000400D0300F8B50446D9
:105AB0000D460026002700200090009820F02000CE
:105AC00020300090009865F38A1000900098E168FB
:105AD000086100BFE06800690090781C074607492C
