:020000040800F2
:1000000000000220CDE600087DCE00087FCE00086B
:1000100081CE000883CE000885CE000800000000D5
:1000200000000000000000000000000087CE000873
:1000300089CE0008000000008BCE00088DCE00089D
:100040001DE700081DE700081DE700081DE7000880
:100050001DE700081DE700081DE700081DE7000870
:100060001DE700081DE700081DE700081DE7000860
:100070001DE700081DE7000895CE00081DE70008F1
:10008000A5CE00081DE700081DE700081DE70008D1
:100090001DE700081DE700081DE700081DE7000830
:1000A0001DE700081DE700081DE700081DE7000820
:1000B0001DE700081DE700081DE700081DE7000810
:1000C0001DE700081DE700081DE700081DE7000800
:1000D0001DE700081DE700081DE700081DE70008F0
:1000E0001DE700081DE700081DE700081DE70008E0
:1000F0001DE700081DE700081DE700081DE70008D0
:100100001DE700081DE700081DE700081DE70008BF
:100110001DE700081DE700081DE700081DE70008AF
:100120001DE700081DE700081DE700081DE700089F
:100130001DE700081DE700081DE700081DE700088F
:100140001DE700081DE700081DE70008B5CE000800
:100150001DE700081DE700081DE700081DE700086F
:100160001DE700081DE700081DE700081DE700085F
:100170001DE700081DE700081DE70008000000005B
:080180001DE700081DE700085F
:1001880010B5054C237833B9044B13B10448AFF3C9
:1001980000800123237010BDE80300200000000048
:1001A8007C00010808B5034B1BB103490348AFF3B2
:1001B800008008BD00000000EC0300207C0001085E
:1001C800002070470020704708B500F05CFC002054
:1001D80008BD70B564291AD8C1EB0123154C84FBFE
:1001E8000324DA17C2EB6412D2B2E62911D8C5B2D9
:1001F8001932D4B2224620212846FFF7E5FF0646E9
:10020800224621212846FFF7DFFF304470BD6422D3
:10021800EBE7C5B21932D4B2224620212846FFF7AF
:10022800D3FF0646224621212846FFF7CDFF30445A
:1002380070BD00BF1F85EB512DE9F04107460E4602
:10024800904600F0EDFBFDB2012202212846FFF79F
:10025800BBFF0446731E032B64D8DFE803F0025784
:100268005B5FFA22314B1A70304B1A78042128460A
:10027800FFF7AAFF0444812205212846FFF7A4FFBF
:100288000444042206212846FFF79EFF0444414601
:100298003846FFF79EFF0444022E11D006220F2194
:1002A8002846FFF791FF0444002224212846FFF73F
:1002B8008BFF0444002225212846FFF785FF0444CC
:1002C80000220A212846FFF77FFF044404220E215A
:1002D8002846FFF779FF0444002227212846FFF724
:1002E80073FF04440F221F212846FFF76DFF0444C3
:1002F8000A221A212846FFF767FF04440A221B2115
:100308002846FFF761FF2044BDE8F081AF22074B84
:100318001A70A9E7AA22054B1A70A5E70522034B14
:100328001A70A1E70522014B1A709DE7040400200A
:1003380038B5012914D0C5B2002222212846FFF77A
:1003480043FF0446002223212846FFF73DFF0444CB
:100358000D4B1A7804212846FFF736FF204438BD94
:10036800C5B2FF2204212846FFF72EFF04460122CA
:1003780022212846FFF728FF04440122232128468A
:10038800FFF722FF204438BD040400200E4B1B78E1
:10039800012B01D00020704770B50546C6B2062271
:1003A8000E213046FFF710FF044600212846FFF7CC
:1003B800BFFF04449E2202213046FFF705FF204478
:1003C8000022014B1A7070BD0000002038B50546A8
:1003D8000121FFF7ADFF044601220221E8B2FFF731
:1003E800F3FE204438BD70B582B00446002601965D
:1003F8003146FFF79DFF0546019602E0019B013358
:100408000193019BFE2BF9D9E4B2074B1A7804211A
:100418002046FFF7D9FE05449E2202212046FFF719
:10042800D3FE284402B070BD0404002038B5044649
:100438000121FFF77DFF0546E4B204220E21204684
:10044800FFF7C2FE05449F2202212046FFF7BCFEAB
:100458000122024B1A70284438BD00BF000000205A
:1004680008B50139032927D8DFE801F0020B141D6C
:10047800FA220421C0B2FFF7A7FEFA22134B1A7022
:1004880008BDAF220421C0B2FFF79EFEAF220F4B7A
:100498001A7008BDAA220421C0B2FFF795FEAA224D
:1004A8000A4B1A7008BD05220421C0B2FFF78CFE62
:1004B8000522064B1A7008BD05220421C0B2FFF7B9
:1004C80083FE0522014B1A7008BD00BF04040020FA
:1004D80008B500F0D7FA08BD10B5044600F0A0FA38
:1004E8000121E0B200F0D3FA00F0F80010BD00BF1F
:1004F80000B589B000210191114B5A6C42F4805229
:100508005A645A6C02F480520192019A02911A6B51
:1005180042F001021A631B6B03F001030293029B72
:10052800E0230393022304930593012306930523F1
:10053800079303A9034801F055FC09B05DF804FBD3
:10054800003802400000024030B589B0002501950E
:100558001D4C236B43F002032363236B03F0020358
:100568000193019B4FF41073039312230493022306
:10057800069305950423079303A9144801F032FC58
:100588000295236C43F400132364236C03F40013D3
:100598000293029B236A43F400132362236A23F421
:1005A800001323622A4629461F2000F003FF1F205C
:1005B80000F032FF2A462946202000F0FBFE2020CA
:1005C80000F02AFF09B030BD0038024000040240A4
:1005D80010B5104809F01CFF00B110BD0D4C0E4BB2
:1005E80023601823E3610023A36063612361A3628E
:1005F8000722E262E36023624FF40072A261636241
:100608004FF482736360FFF773FF204608F070FCB5
:10061800E3E700BF080400200030014008B50348A4
:1006280008F0A7FCFFF7D4FF08BD00BF08040020AE
:1006380000B587B08DF80F0006AA002302F8013D27
:10064800084B1B68009301230DF10F01064808F0C1
:1006580076FD20B99DF8170007B05DF804FBFFF799
:10066800DDFFF7E7340000200804002010B50C482F
:1006780006F0E0F900B110BD0A4C0B4BE36500230E
:100688002366332363664FF48043A366074B44F81D
:10069800583FFFF759FF204603F009F8EBE700BF82
:1006A8006004002008040020A086010000540040D7
:1006B80008B5034803F0CBF8FFF7D8FF08BD00BF23
:1006C8006004002010B586B0044606A800F8012D85
:1006D800084B5B6802930123019300900A46214668
:1006E800054804F045F808B906B010BD2046FFF7E4
:1006F800DFFFF9E7340000206004002010B586B061
:10070800044606AA002302F8013D0A4B5B680293DF
:100718000123019300920A460146074804F0DCF8D9
:1007280018B99DF8170006B010BD2046FFF7C0FFA6
:10073800F7E700BF3400002060040020004870473D
:100748000000010230B58BB0034690B1012833D0C8
:1007580002283ED0032818D100220492234A116BA4
:1007680041F008011163126B02F008020492049A26
:100778000BE0002201921D4A116B41F00801116340
:10078800126B02F008020192019A194A32F81350CA
:10079800059501220692079202220892154C04EB55
:1007A800830405A9A06801F01DFB00222946A06862
:1007B80001F097FC0BB030BD002202920B4A116B7E
:1007C80041F008011163126B02F008020292029ACA
:1007D800DBE700220392054A116B41F0080111631F
:1007E800126B02F008020392039ACEE70038024027
:1007F800980001083400002008B5054B03EB80037E
:100808000122044931F81010986801F06AFC08BD0B
:10081800340000209800010808B5054B03EB80035D
:100828000022044931F81010986801F05AFC08BDFC
:10083800340000209800010808B5054B03EB80033D
:10084800044A32F81010986801F051FC08BD00BF46
:10085800340000209800010830B587B00C460546E2
:1008680058B9002300931B4B1A6B42F001021A631C
:100878001B6B03F001030093009B1CB1012C10D0EB
:1008880007B030BD01230193002302930393022391
:100898000493114B03EB850301A9986901F0A2FAAF
:1008A800ECE70123019300240394022304930B4BE8
:1008B8000293094B03EB850501A9A86901F092FA97
:1008C80022460F21062000F075FD062000F0A4FD49
:1008D800D6E700BF003802403400002000001110A5
:1008E80008B5044B03EB80000121806901F0F2FB9D
:1008F80008BD00BF3400002070B586B0002100910B
:100908000E4B1A6B42F010021A631B6B03F01003B4
:100918000093009B082601960124029403910494F5
:10092800074D01A9284601F05DFA224631462846BE
:1009380001F0D7FBFFF74CFE06B070BD003802404F
:100948000010024010B586B0002400940E4B1A6BBC
:1009580042F010021A631B6B03F010030093009B14
:1009680002230193094A02920493039401A90848B7
:1009780001F038FA22460F21072000F01BFD07205E
:1009880000F04AFD06B010BD00380240000011100A
:100998000010024070B505460E461446012A01D9DA
:1009A80041F04006002208210A4801F09AFB30462F
:1009B800FFF73EFE05E015F8010BFFF739FE013C95
:1009C800A4B2002CF7D101220821024801F089FBCA
:1009D80070BD00BF0010024070B505461446012ADC
:1009E8000AD941F0C006002208210C4801F079FB21
:1009F8003046FFF71DFE09E041F08006F3E70020CE
:100A0800FFF716FE05F8010B013CA4B2002CF6D145
:100A180001220821014801F064FB70BD001002406A
:100A2800F0B587B000260096144B1A6B42F0080206
:100A38001A631B6B03F008030093009B10250195B4
:100A4800012702970223049303960D4C01A920461F
:100A580001F0C8F9FFF70AFE32462946204601F0A0
:100A680040FB052000F010FC3A462946204601F0DC
:100A780038FB052000F008FC07B0F0BD0038024044
:100A8800000C0240704708B5FFF71CFE08BD08B50A
:100A9800FFF734FE08BD00BF70B58AB00025009589
:100AA8003F4C236C43F400432364236C03F400435A
:100AB8000093009B0195236B43F004032363236B8E
:100AC80003F004030193019B0295236B43F0010398
:100AD8002363236B03F001030293029B4FF4A0539B
:100AE80005930223069307950893062309932D4E31
:100AF80005A9304601F076F91023059305A92A487F
:100B080001F070F90395236B43F004032363236B0F
:100B180003F004030393039B8023059305A9304640
:100B280001F060F90495236B43F400132363236BEE
:100B380003F400130493049B1C4B1A681C4B9A4241
:100B480009D0002205212F2000F034FC2F2000F0CE
:100B580063FC0AB070BD174C65604022A260E56076
:100B68004FF4806222614FF4006262614FF40052D8
:100B7800A261E5614FF4003222620422626203221C
:100B8800A262E56225630C4B2360084B9C63A36358
:100B9800204600F04BFE204600F0DFFDD1E700BF05
:100BA800003802400008024000000240C80500204A
:100BB800003C0040B4040020B860024008B50E4B69
:100BC8000E4A1A60D16921F48061D161586100220E
:100BD800DA619A61DA604FF40071196159609A60BC
:100BE800184606F0CEFC18B1034805F055FF08BDBD
:100BF800FFF752FFF8E700BFC8050020003C00409F
:100C080070B58AB0002501953B4C236C43F48043B2
:100C18002364236C03F480430193019B0295236BA7
:100C280043F002032363236B03F002030293029B46
:100C38000395236B43F004032363236B03F004033E
:100C48000393039B02230693079508934FF480634D
:100C580005930526099605A9284801F0C3F8082335
:100C68000593099605A9264801F0BCF80495236B5D
:100C780043F400132363236B03F400130493049BCE
:100C8800204B1A68204B9A4209D0002206210E20D8
:100C980000F090FB0E2000F0BFFB0AB070BD1B4BAC
:100CA8005D669D66DD664FF4806119674FF40061EB
:100CB80059674FF4005199674FF48071D9674FF421
:100CC8000031C3F88010C3F884500321C3F888109A
:100CD800C3F88C50C3F890501C460D4A44F8602F56
:100CE800084AD463C3F89820204600F09FFD2046A8
:100CF80000F033FDC9E700BF00380240000402409D
:100D0800000802401006002000380040B40400200B
:100D18005860024008B50F4B0F4A1A60D16921F498
:100D28008061D161400058610022DA61082199612F
:100D3800DA601A614FF440725A6020229A601846AD
:100D480006F01FFC18B1034805F0A6FE08BDFFF722
:100D580057FFF8E710060020003800402DE9F0435F
:100D680083B080460F4600240194134B1A6B42F45B
:100D780080521A631B6B03F480530193019BBC429E
:100D880002D303B0BDE8F083DFF83490342606FBC5
:100D980004F609EB06054FEA58000DF0EDF8686017
:100DA800064BAB6029F806800223EB81AF81284609
:100DB8000DF0B2FC0134E2E70038024000002041A7
:100DC800940500202DE9F04184B080460F46144672
:100DD800FF25002301E00133DBB2072B06D8224AA6
:100DE80052F82320A242F6D11D46F4E7684607F0E0
:100DF80039FE15F0070F19D1012300931A4B03EBA5
:100E080085052B6A01932B6C0293684607F080FDD9
:100E1800164B9B689420984700F0F800E02810D003
:100E28000125A5B1284604B0BDE8F081012300934F
:100E38004FF48173019303230293684607F068FD1A
:100E4800E6E70A4A0A4BC3F8C0200025E9E7084B41
:100E5800D3F8C0301E6823463A4641469420B0472E
:100E68002046FFF7ABFEDDE7A800010804000020DC
:100E7800B404002038B505460C460C4BD3F8C030F6
:100E8800DB688AB201469420984768B9B4F5003FF8
:100E980007D2C4F34F022946054806F0A1F80020FE
:100EA80038BD4FF6FF72F6E7012038BDB4040020C4
:100EB800C805002008B50A460146024806F090F821
:100EC80008BD00BFC805002008B5074BD3F8C030DF
:100ED8001B699420984708B1012008BD034806F013
:100EE8006FF9002008BD00BFB4040020C805002029
:100EF80008B5074BD3F8C0305B699420984708B110
:100F0800012008BD034806F09BF9002008BD00BF7A
:100F1800B4040020C805002010B504460D4806F0AA
:100F2800E9F90D4BD3F8C0309B69214694209847C6
:100F380068B9012C01D0002010BD012000F0A4F9EF
:100F480000221021054801F0CCF8002010BD012036
:100F580010BD00BFC8050020B4040020000C0240EA
:100F680008B5064BD3F8C0301B6A01469420984751
:100F780008B9002008BD012008BD00BFB404002046
:100F880008B5064BD3F8C0305B6A014694209847F1
:100F980008B9002008BD012008BD00BFB404002026
:100FA80008B5064BD3F8C0309B6A01469420984791
:100FB80008B9002008BD012008BD00BFB404002006
:100FC80010B584B00446684607F04CFD14F0070FCE
:100FD8000ED0012300934FF49173019302230293DF
:100FE800684607F095FC2046FFF7E8FD04B010BD01
:100FF80001230093C023019306230293684607F058
:1010080087FCF0E7704708B50268034B9A4200D0A6
:1010180008BDFFF7F7FFFBE7003C0040704708B545
:101028000268034B9A4200D008BDFFF7F7FFFBE7C1
:10103800003C0040704730B585B004461546684608
:1010480007F010FD14F0070F13D0012300934FF49D
:101058009173019302230293684607F059FC2946CD
:101068002046FFF77BFE2046FFF754FE002005B020
:1010780030BD01230093C0230193062302936846E1
:1010880007F046FCEBE708B58AB20146024806F0CD
:1010980017F8002008BD00BF1006002008B5024858
:1010A80006F028F9002008BD1006002008B50248FF
:1010B80006F086F8002008BD1006002008B5024892
:1010C80006F0BEF8002008BD10060020014B18806D
:1010D800002070475000002030B5A1B00C46002316
:1010E8000AE030F813100A0242EA112220A901EBA3
:1010F800430121F8802C01333F2BF2D900250CE065
:1011080068000D4B1A880D4B342101FB053392B250
:10111800211868440DF0ECFB0135002DF0D00023B8
:1011280005E09A00023234F82310A15201330F2B44
:10113800F7D9002021B030BD5000002094050020D0
:10114800704708B5FFF7FCFF08BD704708B5FFF703
:10115800FCFF08BD704710B504460268064B9A426A
:1011680004D02268054B9A4203D010BDFFF762FFF6
:10117800F7E7FFF7EFFFF8E7003C004000380040D2
:101188007047704710B5094B4FF0FF321A620024C0
:101198001C625A625C621A611C615A615C619A61E4
:1011A8009C61FFF7EEFF204610BD00BF00380240EB
:1011B80010B504460E4B18784FF47A73B3FBF0F36E
:1011C8000C4A1068B0FBF3F000F05AF968B90F2C1C
:1011D80001D9012010BD002221464FF0FF3000F058
:1011E800E9F8034B5C60002010BD012010BD00BF72
:1011F800540000207C00002008B50B4B1A6842F40C
:1012080000721A601A6842F480621A601A6842F41E
:1012180080721A60032000F0BBF80020FFF7C8FFB7
:101228000BF064FC002008BD003C0240034A116832
:10123800034B1B780B441360704700BF580600200F
:1012480054000020014B1868704700BF5806002062
:10125800014B5868704700BF5400002008B5064B82
:101268001B78834205D0044B18705868FFF7A0FF1D
:1012780008BD002008BD00BF54000020014B1878AD
:10128800704700BF5400002038B50446FFF7DAFF66
:101298000546B4F1FF3F02D0044B1B781C44FFF70E
:1012A800D1FF401B8442FAD838BD00BF540000204B
:1012B800024A136823F002031360704710E000E04D
:1012C800024A136843F002031360704710E000E01D
:1012D8000048704700060701014B1868000C70476A
:1012E800002004E0024B1868C0F30B00704700BFF1
:1012F800002004E0024A536843F00103536070473A
:10130800002004E0024A536823F001035360704749
:10131800002004E0024A536843F002035360704718
:10132800002004E0024A536823F002035360704728
:10133800002004E0024A536843F0040353607047F6
:10134800002004E0024A536823F004035360704706
:10135800002004E00122014B1A6070470004274274
:101368000022014B1A60704700042742014B18689D
:10137800704700BF107AFF1F014B1868704700BF05
:10138800147AFF1F014B1868704700BF187AFF1FB7
:10139800074AD36823F4E0631B041B0C000200F423
:1013A800E060184340F0BF6040F40030D060704700
:1013B80000ED00E030B4164BDB68C3F30223C3F141
:1013C8000704042C28BF04241D1D062D17D9033B30
:1013D800012505FA04F4013C2140994005FA03F37C
:1013E800013B1340194300280BDB0901C9B200F186
:1013F800604000F5614080F8001330BC704700235E
:10140800E6E700F00F000901C9B2024B1954F4E7EE
:1014180000ED00E014ED00E0002808DB420900F0D0
:101428001F00012303FA00F0014B43F82200704724
:1014380000E100E000280DDB430900F01F00012255
:1014480002FA00F02033044A42F82300BFF34F8F1A
:10145800BFF36F8F704700BF00E100E0BFF34F8F0D
:101468000549CA6802F4E062044B1343CB60BFF33A
:101478004F8F00BFFDE700BF00ED00E00400FA0554
:101488000138B0F1807F0AD2064B5860F021064A35
:1014980082F823100020986007221A607047012004
:1014A800704700BF10E000E000ED00E0BFF35F8F81
:1014B800044A536A23F4803353620022024B5A6071
:1014C800704700BF00ED00E090ED00E040F0010043
:1014D800054B5860054A536A43F480335362BFF39F
:1014E8004F8FBFF36F8F704790ED00E000ED00E085
:1014F8004278134B9A60037823B9114B0022DA60C3
:101508001A61704743680E4AD360017BC37A1B0691
:1015180043EA0173817A43EAC143417B43EA814349
:10152800817B43EA4143C17B43EA0143417A43EA71
:101538000123017A43EA410301780B4313617047A1
:1015480090ED00E0024BD868C0F30220704700BF5E
:1015580000ED00E070B400281FDB00F1604000F5EA
:10156800614090F80003050901F00701C1F1070483
:10157800042C28BF0424081D062814D9033925FA89
:1015880001F6012000FA04F4013C3440146088405C
:1015980001382840186070BC704700F00F00034CF9
:1015A800205C0509E0E70021E9E700BF14ED00E051
:1015B800002809DB430900F01F00012202FA00F0AD
:1015C8004033024A42F82300704700BF00E100E0C0
:1015D800031E0ADB5A094032054951F8220003F07C
:1015E8001F03D84000F0010070470020704700BF7B
:1015F80000E100E0002809DB430900F01F00012298
:1016080002FA00F06033024A42F82300704700BF34
:1016180000E100E0031E0ADB5A098032054951F84F
:10162800220003F01F03D84000F00100704700209B
:10163800704700BF00E100E0042805D0054A1368A0
:1016480023F0040313607047024A136843F004034D
:101658001360704710E000E0704708B5FFF7FCFF23
:1016680008BD00BF30B405682C6824F480242C60C1
:10167800046863608368402B05D003689960036839
:10168800DA6030BC704703689A600368D960F8E78D
:101698000268D3B2103B0B49A1FB03131B090A498B
:1016A800C95CC165032B06D822F47F7222F00302BD
:1016B8008265806D704722F47F7222F00302043243
:1016C8008265F6E7ABAAAAAA08010108836A8269BB
:1016D80092B9012B0AD01BB1022B01D00020704710
:1016E800C36A13F0807F2CD100207047C36AB3F11E
:1016F800C07F28D000207047B2F5005F05D0022BCC
:1017080029D9032B15D000207047032B03D8DFE815
:1017180003F01C041C0A00207047C36A13F0807F82
:1017280015D100207047C36AB3F1C07F11D00020E3
:101738007047C36A13F0807F01D0012070470020F2
:101748007047012070470120704701207047012031
:101758007047012070470120704770B50446FFF7B5
:1017680071FD002C5DD00546002384F83430022337
:1017780084F835302268136823F001031360236866
:101788001A6812F0010F0AD0FFF75CFD401B05280C
:10179800F5D920236365032084F8350070BD1A68E5
:1017A800214911406268A0680243E0680243206949
:1017B800024360690243A0690243E0690243206A68
:1017C80002430A43616A042916D01A6026687569BB
:1017D80025F00705636A1D43042B12D07561204666
:1017E800FFF756FFE26D3F2393408360002060655A
:1017F800012384F8353070BDE16A206B01430A4348
:10180800E3E7A36A1D43E36A002BE7D02046FFF70E
:101818005DFF0028E2D040236365012084F835008D
:1018280070BD012070BD00BF3F8010F000282ED091
:1018380038B5044690F83530DBB2022B01D10220CE
:1018480038BD0268136823F001031360036800259C
:101858001D6003685D6003689D600368DD60036860
:101868001D61036821225A61FFF712FFE5632564B1
:101878006564A564E5642565E26D3F239340836054
:10188800656584F8355084F83450284638BD012001
:10189800704738B590F83440012C1CD0012480F8EA
:1018A800344090F83540E4B2012C04D0002380F88D
:1018B8003430022038BD0546022085F83500002462
:1018C8006C652846FFF7CEFE2A68136843F00103CB
:1018D8001360204638BD022038BD38B5856D90F8B4
:1018E8003440012C31D0012480F8344090F8354040
:1018F800E4B2012C04D0002380F83430022038BD33
:101908000446022084F83500002060652046FFF771
:10191800A9FEE26D3F239340AB602268136843F051
:10192800160313602268536943F080035361236CE4
:1019380023B12268136843F0080313602268136810
:1019480043F001031360002038BD022038BD70B594
:101958000446866DFFF776FC94F83530DBB2022B2F
:1019680006D080236365002384F83430012070BDDD
:1019780005462268136823F016031360226853692A
:1019880023F080035361236CE3B12268136823F0CA
:10199800080313602268136823F0010313602368A7
:1019A8001B6813F0010F11D0FFF74CFC401B0528F2
:1019B800F5D920236365002384F83430032084F8A4
:1019C800350070BDA36C002BDFD1E3E7E26D3F2348
:1019D8009340B360002084F83400012384F8353044
:1019E80070BD90F83530DBB2022B03D080234365FD
:1019F80001207047052380F835300268136823F00A
:101A080001031360002070472DE9F8430446894616
:101A18001546FFF717FC94F83530DBB2022B07D0D8
:101A280080236365002384F834300120BDE8F883FF
:101A3800804623681B6813F4807F38D1B9F1000F02
:101A48003BD1E36D20279F40A66D33681F4243D1E9
:101A5800636D13F0010F3FD1B5F1FF3F07D0002DA3
:101A68002FD0FFF7EFFBA0EB0800854229D333689E
:101A7800E16D08228A40134204D0616D41F00101F2
:101A88006165B260E16D01228A40134204D0616D44
:101A980041F002016165B260E16D04228A4013429F
:101AA800D4D0616D41F004016165B260CEE74FF4B6
:101AB800807363650120BDE8F883E36D10279F40BC
:101AC800C2E720236365002384F83430012384F8B7
:101AD80035300320BDE8F883636D1BB1636D13F0E7
:101AE800010F09D1B9F1000F15D0E26D1023934011
:101AF800B3600020BDE8F8832046FFF728FFE26DB9
:101B080030239340B360002384F83430012084F8F4
:101B18003500BDE8F883E26D30239340B3600020C0
:101B280084F83400012384F83530BDE8F883F0B533
:101B380083B0044600230193724B1D68724BA3FBCC
:101B48000535AD0A876D3E68C26D082393401E4275
:101B580010D003681A6812F0040F0BD01A6822F02C
:101B680004021A60C26D08239340BB60436D43F0C2
:101B780001034365E26D012393401E4209D02268A8
:101B8800526912F0800F04D0BB60636D43F002030A
:101B98006365E26D042393401E4209D022681268EF
:101BA80012F0020F04D0BB60636D43F00403636559
:101BB800E26D102393401E4224D02268126812F06E
:101BC800080F1FD0BB6023681A6812F4802F0DD04D
:101BD8001B6813F4002F04D1236C9BB1204698474F
:101BE80010E0A36C73B1204698470BE01A6812F412
:101BF800807F03D11A6822F008021A60236C0BB1A7
:101C080020469847E26D202393401E4255D0226813
:101C1800126812F0100F50D0BB6094F83530DBB268
:101C2800052B0ED023681A6812F4802F33D01B6856
:101C380013F4002F2AD1636C002B3ED0204698471E
:101C48003BE02268136823F0160313602268536987
:101C580023F080035361236CA3B12268136823F037
:101C680008031360E26D3F239340BB60002384F8B0
:101C78003430012384F83530236D002B3FD02046C3
:101C880098473CE0A36C002BE7D1EBE7E36BA3B1EB
:101C98002046984711E01A6812F4807F09D11A6823
:101CA80022F010021A60002384F83430012384F8EB
:101CB8003530E36B0BB120469847636DFBB1636D1C
:101CC80013F0010F17D0052384F835302268136804
:101CD80023F001031360019B013301939D4204D358
:101CE80023681B6813F0010FF5D1002384F8343002
:101CF800012384F83530E36C0BB12046984703B0D4
:101D0800F0BD00BF7C000020B5814E1B034690F853
:101D18003400012827D0012083F8340093F83500D7
:101D2800C0B2012804D00120002283F83420704773
:101D3800052916D8DFE801F00306090C0F12DA634B
:101D48000020F1E71A640020EEE75A640020EBE770
:101D58009A640020E8E7DA640020E5E71A650020C5
:101D6800E2E70020E0E702207047034690F83420BD
:101D7800012A30D0012280F8342090F83520D2B2E0
:101D8800012A04D00120002283F834207047062954
:101D98001FD8DFE801F004070A0D10131600002011
:101DA800D863F0E700201864EDE700205864EAE7FC
:101DB80000209864E7E70020D864E4E7002018656D
:101DC800E1E70020D863186458649864D8641865FB
:101DD800D9E70120D7E70220704790F8350070470F
:101DE800406D7047F0B583B000244BE04FEAD40E45
:101DF8000EF1080E50F82E2004F00706B6000F2743
:101E0800B74022EA07020F6907FA06F6324340F89C
:101E18002E2046E0072600E0002606FA0EF632439A
:101E280002335E4E46F823205D4B1A68EB4302EA04
:101E380003064F6817F4803F01D045EA0206584A66
:101E48001660526803EA02064F6817F4003F01D093
:101E580045EA0206524A5660926803EA02064F684B
:101E680017F4801F01D045EA02064D4A9660D268F1
:101E780013404E6816F4001F01D045EA0203484A91
:101E8800D36001340F2C00F286800123A3400A6836
:101E980003EA0205AB42F4D14A68022AA6D0122A04
:101EA800A4D006684FEA440E032202FA0EF2D24387
:101EB80016404F6807F0030707FA0EF73E4306601F
:101EC8004E68771E012F03D9112E01D0122E0FD183
:101ED80086681640CF6807FA0EF73E438660466864
:101EE80026EA03034E68C6F30016A6403343436050
:101EF800C3681A408B6803FA0EF31A43C2604B6832
:101F080013F0805FBDD000230193264B5A6C42F436
:101F180080425A645B6C03F480430193019BA308DD
:101F28009E1C1E4A52F8262004F003064FEA860E2D
:101F38000F2606FA0EF622EA06021B4FB8423FF4B5
:101F48006BAF1A4EB0421AD006F58066B04218D070
:101F580006F58066B04216D006F58066B04214D009
:101F680006F58066B04212D006F58066B04210D001
:101F780006F58066B0423FF44DAF08264DE70126CE
:101F88004BE7022649E7032647E7042645E70526E7
:101F980043E7062641E703B0F0BD00BF0038014023
:101FA800003C0140003802400000024000040240AA
:101FB80000230F2B00F28780F0B529E0072700E007
:101FC800002707FA05F5AE4264D005685E000324D1
:101FD800B440E44325400560DD08083550F8256025
:101FE80003F007074FEA870E0F2707FA0EF726EACE
:101FF800070640F82560856825408560456825EA1C
:1020080002024260C2681440C46001330F2B59D8E1
:1020180001229A4002EA0104A242F6D14FEA930E45
:102028000EF10206284D55F8266003F00305AD00B1
:102038000F2707FA05FC06EA0C06244FB842BFD062
:1020480007F58067B84219D007F58067B84217D0FE
:1020580007F58067B84215D007F58067B84213D0F6
:1020680007F58067B84211D007F58067B8420FD0EE
:1020780007F58067B842A1D00827A2E70127A0E7A3
:1020880002279EE703279CE704279AE7052798E796
:10209800062796E70C4E0EF1020556F8257027EA3A
:1020A8000C0746F825700A4D2E68E44326402E603A
:1020B8006E6826406E60AE682640AE60EE683440BA
:1020C800EC6082E7F0BD7047003801400000024034
:1020D800003C01400369194201D1002070470120EA
:1020E800704712B90904816170478161704743697B
:1020F80031EA030301D081617047090481617047A7
:1021080082B04FF480330193019B0B430193019BF1
:10211800C361C161019BC361C3690193C36913F4BE
:10212800803F02D1012002B070470020FBE77047D2
:1021380008B5054B5B69034200D108BD024B5861E5
:10214800FFF7F5FFF9E700BF003C0140F8B5066866
:10215800346A04F00F07C4F34343C4F30A14022B90
:102168002ED16CB307EB8702D3000344596C39B303
:1021780005462246304608F019FEBA003A44D30014
:102188002B445A6C22445A64DA6C2244DA6406EB13
:102198004713D3F810150B4A0A408AB1D3F8002523
:1021A80022F0804242F00042C3F80025BB00D91952
:1021B800CA002A4492F8503083F0010382F8503064
:1021C800F8BD00BF0000F81FF0B585B09DF8285095
:1021D8009DF82C60BDF8307090F8B842012C41D0C1
:1021E800012480F8B8424FEA810E8E444FEACE04AB
:1021F80004444FF0000E84F83DE084F83830A4F829
:10220800407084F8391084F83F6002F07F0E84F83B
:102218003AE012F0800F1BD101EB810E4FEACE0499
:1022280004444FF0000E84F83BE0044601EB810EB5
:102238004FEACE00204480F83C5002970196009562
:10224800206808F0DFFF002384F8B83205B0F0BD3D
:1022580001EB810E4FEACE0404444FF0010E84F8DE
:102268003BE0E2E70220F1E790F8B832012B01D118
:102278000220704710B50446012380F8B832006880
:1022880009F047F8002084F8B80210BD704700280C
:1022980045D0F0B58BB00646046890F8B932002BEB
:1022A80038D0032386F8B932E36B13F4807F01D169
:1022B80000233361306808F091F9344654F810EB84
:1022C8006D460FCC0FC50FCC0FC594E8030085E809
:1022D8000300371D97E80E00704608F0BDF801218D
:1022E800306808F081F9344654F810EB6D460FCC8D
:1022F8000FC50FCC0FC594E8030085E8030097E8E5
:102308000E00704608F0EFFE012386F8B93200206F
:102318000BB0F0BD80F8B8320AF00CFFC1E701201D
:102328007047704768B110B50446032380F8B93286
:102338000AF04CFF206808F051F9002084F8B9022F
:1023480010BD01207047F8B59DF81870BDF82060E1
:102358008D000D44EC00044484F83B2084F83F30A1
:102368006FB901EB8105EC000444032584F8425061
:10237800032B00F29680DFE803F00A8D2F5E01EB55
:102388008105EC000444022584F84250F0E7012F4F
:1023980040F08780002A40F0848036B901EB810242
:1023A800D3000344012283F8512001EB8102D300BA
:1023B800034493F851303BB901EB8102D300034445
:1023C800002283F842206CE001EB8102D300034431
:1023D800022283F8422064E0B2B901EB8102D30003
:1023E800034493F851303BB901EB8102D300034415
:1023F800002283F8422054E001EB8102D300034419
:10240800022283F842204CE001EB8102D30003440E
:1024180093F850303BB901EB8102D300034400220A
:1024280083F842203DE001EB8102D30003440222FD
:1024380083F8422035E0B2B901EB8102D3000344AE
:1024480093F851303BB901EB8102D30003440022D9
:1024580083F8422025E001EB8102D30003440222E5
:1024680083F842201DE001EB8102D300034493F876
:1024780050303BB901EB8102D3000344002283F8BA
:1024880042200EE001EB8102D3000344022283F8CC
:10249800422006E001EB8102D3000344002283F8C6
:1024A80042208A005418E3000344079C5C649E643D
:1024B800002483F85C40DC6483F8391083F85D40BD
:1024C8001144CB0003F13801027C0144006808F094
:1024D80099FFF8BD7047704770477047704730B52F
:1024E80083B005460468D4F840340193D4F84034E6
:1024F8000093009B23F02E030093019B13F0020F1F
:1025080007D0019B13F0010F28D1009B43F0020371
:102518000093019B13F0080F13D0009B43F00803AE
:102528000093019B13F0040F34D0AB69022B1CD02D
:10253800EB68012B29D028460AF073FE28460AF0DA
:1025480063FE019B13F0200F03D0009B43F0200390
:102558000093009BC4F8403403B030BDA36923F056
:102568000053A3610AF050FECFE7019B03F4C02398
:10257800B3F5802F04D00121286808F053FDDAE76D
:102588000221286808F04EFDD5E74EF66022C4F80F
:102598000424D0E728460AF04AFED4F8403423F051
:1025A8002E03C4F840342A68936943F000539361BA
:1025B800C7E77047F8B506460D46076807EB4117A9
:1025C80007F5A064A36813F0040F3ED00423A360AA
:1025D800E36843F00203E360A36813F4007F6AD161
:1025E800A36813F0010F00F0878033694BB1AA008C
:1025F8002A44D30033449A6C2169C1F31201521A58
:10260800DA64AA002A44D3003344012283F85D2007
:1026180000219965A26093F83F30002B57D0022B18
:1026280055D0032B5DD1D7F8003543F00053C7F8D8
:10263800003505EB8502D3003344012283F85C2082
:10264800294630460AF0ECFD4BE0A36813F0200F52
:1026580002D02023A360BFE7A36813F0080F17D1A7
:10266800A36813F4806FB7D0E36843F00203E36014
:10267800006808F04EFE1023A36005EB8502D30026
:102688003344082283F85D204FF48063A360A3E7F6
:10269800E36843F00203E36001EB8102D3000344E3
:1026A800052283F85D201023A3600823A360006837
:1026B80008F02FFE90E7E36843F00203E360294641
:1026C800306808F026FE4FF40073A360F8BDE36895
:1026D80043F00203E3602946306808F01AFE10232D
:1026E800A360AB005919CA00324492F8503083F005
:1026F800010382F85030F8BDA36813F0020F62D0CE
:10270800E36823F00203E36005EB8502D30033445A
:1027180093F85D30012B17D0052B29D0062B2FD02D
:10272800082B2DD0032B16D105EB8502D30033449B
:10273800022283F85C20D7F8003523F0804343F069
:102748000043C7F8003506E005EB8502D3003344A3
:10275800012283F85C200223A36005EB8502D300E5
:10276800334493F85C20294630460AF059FDF8BDF9
:1027780005EB8502D3003344052283F85C20EAE7A1
:10278800AA002A44D30033449A6D01329A65032A79
:1027980011D9AA002A44D300334400229A6504229E
:1027A80083F85C20D7F8003523F0804343F00043DA
:1027B800C7F80035CFE705EB8502D3003344022282
:1027C80083F85C20EEE7A36813F0800F19D1A368A3
:1027D80013F0100F14D005EB8502D300334493F89F
:1027E8003F30032B25D00BB1022B07D105EB850217
:1027F800D300334400229A6533694BB31023A36096
:10280800F8BDE36843F00203E360AB005919CA005E
:102818003244916D013191652B44DA00324406232C
:1028280082F85D302946306808F073FD8023A36084
:10283800F8BD05EB8502D300334400229A65E368AE
:1028480043F00203E3602946306808F062FDD5E7EB
:1028580005EB8502D3003344032283F85D20E36847
:1028680043F00203E3602946306808F052FDC5E7EB
:10287800F8B5036803EB411303F5A064A26812F0EE
:10288800040F11D10E460546A26812F0200F26D07B
:102898002023A36001EB8102D3001A46034493F876
:1028A8003D30012B07D0F8BD0423A360E36843F053
:1028B8000203E360F8BD8B000244002182F83D105A
:1028C8003344DA000244022382F85C30E36843F0C0
:1028D8000203E3603146006808F01BFDF8BDA268FA
:1028E80012F0400F34D1A26812F4007F4AD1A268D6
:1028F80012F0010F51D1A26812F0080F62D1A2683C
:1029080012F0100F6FD08A000A44D300034400224B
:102918009A65032283F85D2093F83D306BB901EB8B
:102928008102D300034493F83C3033B901EB8102B0
:10293800D3000344012283F83D20E36843F00203F7
:10294800E3603146286808F0E4FC1023A360F8BD72
:102958008B005918CA000244042182F85D10012135
:1029680082F83D103344DA00024400239365E3689B
:1029780043F00203E3603146006808F0CAFC4023D4
:10298800A360F8BDE36843F00203E360006808F061
:10299800C0FC4FF40073A360F8BD8F007A18D30011
:1029A800034400229A65E36843F00203E360006889
:1029B80008F0AFFC0123A360B919C800284480F8C7
:1029C8005D30F8BD0823A360E36843F00203E360C9
:1029D800006808F09EFC06EB8601C8002844052321
:1029E80080F85D30F8BDA26812F0800F3AD1A26875
:1029F80012F4806F47D1A26812F0020F3FF453AF70
:102A0800E26822F00202E26001EB8101CA0011468D
:102A1800024492F85D20012A49D0032A68D0042A8A
:102A28006ED0052A74D0062A01D0082A4AD1B100EE
:102A38003144CA002A44916D0131916503296FD947
:102A4800B1003144CA002A4400219165042182F86A
:102A58005C10D3F8002522F0804242F00042C3F80F
:102A680000252FE0E36843F00203E360006808F004
:102A780050FC06EB8601CB002B44062283F85D2030
:102A88008023A360F8BDE36843F00203E3600068B5
:102A980008F03FFC1023A3604FF48063A36006EBAB
:102AA8008601CB002B44082283F85D20F8BD0B4635
:102AB8000344012283F85C2093F83F30023BDBB2E9
:102AC80093420CD90223A36006EB8602D3002B4461
:102AD80093F85C20314628460AF0A2FBE3E60B4651
:102AE800034493F8512082F0010283F85120E9E76A
:102AF80006EB8602D3000344022283F85C20E1E758
:102B080006EB8602D3000344022283F85C20D9E74F
:102B180006EB8602D3000344052283F85C20D1E744
:102B280006EB8601CA002A44022182F85C1090E76D
:102B3800F8B504460568284608F025FA012800D0AB
:102B4800F8BD206808F0ECF90028F9D0206808F0F2
:102B5800E7F910F4001F03D023684FF400125A61FC
:102B6800206808F0DDF910F4801F03D023684FF4C3
:102B780080125A61206808F0D3F910F0806F03D0F2
:102B880023684FF080625A61206808F0C9F910F094
:102B9800020F02D0236802225A61206808F0C0F9A7
:102BA80010F0005F28D1206808F0BAF910F0807F93
:102BB80034D1206808F0B4F910F0080F32D1206839
:102BC80008F0AEF910F0007F33D1206808F0A8F9BA
:102BD80010F0100F53D00123002BB1D02268936955
:102BE80023F0100393612046FFF7B0FA2268936937
:102BF80043F010039361A3E7D5F8403423F02E0384
:102C0800C5F8403420460AF005FB0121206808F089
:102C180009FA23684FF000525A61C4E72046FFF7CB
:102C28005EFCC6E720460AF0E9FA236808225A61E2
:102C3800C5E7206808F068FB0746002604E0F1B203
:102C48002046FFF715FE0136A3689E4212D206F011
:102C58000F0327FA03F313F0010FF4D005EB461323
:102C6800D3F8003513F4004FE9D0F1B22046FFF74E
:102C7800A1FCE8E723684FF000725A61A5E700233A
:102C8800AAE738B590F8B832012B01D1022038BD37
:102C98000446012580F8B852006807F099FC2946D7
:102CA800206808F0FDF9002084F8B80238BD90F8D3
:102CB800B832012B01D10220704710B50446012318
:102CC80080F8B832006808F049FC002084F8B8029F
:102CD80010BD08B5006808F0C4F908BD90F8B9023D
:102CE800704701EB8101CB00184490F85C007047F5
:102CF80001EB8101CB001844C06C704701EB8101E6
:102D0800CB00184490F85D00704708B5006808F0DB
:102D180074FA08BD08B5006808F064FA08BD00BF79
:102D280090F83E30DBB2402B0AD00369B3F5804FF0
:102D380015D0036D002B36D0036D012B3DD07047A5
:102D4800036D2BB90268436C03F0FE0313617047EF
:102D58000268436C43F00103DBB21361704790F8DB
:102D68003D30DBB2212B0FD00268436C43F00103E6
:102D7800DBB21361436B6BB1DB6B7BB102685368E9
:102D880043F40063536070470268436C03F0FE032A
:102D98001361EFE7826B002AEED1D0E7836BDB6B20
:102DA800002BEBD1CBE70268436CC3F3C81303F0E5
:102DB800060343F0F003136170470268436CC3F3E2
:102DC800C81303F0060343F0F1031361B7E7026881
:102DD800436CDBB21361436B3BB1DB6B4BB10268F5
:102DE800536843F4006353607047826B002AF4D140
:102DF800FAE7836BDB6B002BF1D1F5E710B48BB0EE
:102E080090F83E30DAB2C16A046B90F83D30DBB21C
:102E1800222B0AD00023099303685A6909929B69F7
:102E28000993099B0BB010BC7047036D0BB9402A7E
:102E380017D0036D1BB90369B3F5404F19D0438D03
:102E48009BB2002B25D1029303685A6902929A69B2
:102E58000292029A1A6842F400721A60002303650B
:102E6800E0E7009303685A6900929B690093009B0E
:102E7800D8E70023019303685A6901929A6901927D
:102E8800019A1A6842F480721A60036D013303656F
:102E9800C8E7438D9BB2012B25D0438D9BB2022BF3
:102EA8007BD00268136843F48063136003685A6830
:102EB80012F4006F0ED011F5803F07D0012905D01C
:102EC800082903D0102901D0202903D15A6842F4D7
:102ED80080525A600023089303685A6908929B69D4
:102EE8000893089BBAE711F5803F11D0082934D020
:102EF800202932D0122C2ED0042940D002293ED0CD
:102F080010293CD00268136823F4806313603BE007
:102F18000268136823F48063136003685A6812F424
:102F2800006F0CD01A6822F480621A6000230393A1
:102F380003685A6903929B690393039B8EE70022F7
:102F480004925A6904929A690492049A1A6842F49B
:102F580000721A6082E70129CED00268136823F450
:102F6800806313600023069303685A6906929A697E
:102F78000692069A1A6842F400721A606EE70268AE
:102F8800136843F4806313600023059303685A6948
:102F980005929B690593059B60E704290ED00229D9
:102FA8000CD010290AD00268136823F480631360D8
:102FB8000268136843F40063136004E0026813684E
:102FC80043F48063136003685A6812F4006F0ED0EC
:102FD80011F5803F07D0012905D0082903D0102911
:102FE80001D0202903D15A6842F480525A60002344
:102FF800079303685A6907929B690793079B2DE714
:10300800438D9BB25BB10368426A12781A61436AC6
:1030180001334362438D9BB2013B9BB243857047AA
:10302800438D9BB25BB1436A026812691A70436AA6
:1030380001334362438D9BB2013B9BB2438570478A
:1030480003685A6912F4806F11D06FF480625A6174
:1030580000230363202280F83D2080F83E30026C74
:1030680042F00402026480F83C30012070470020DE
:103078007047C36AB3F52A0F04D0C36AB3F12A4F65
:1030880003D070470123C36270470823C362F8E77F
:10309800F8B506460C4617461D4622E0FEF7D2F85C
:1030A800069BC01A854200D3DDB900233363202272
:1030B80086F83D2086F83E30326C42F020023264B9
:1030C80086F83C300120F8BD33685B6924EA0303C5
:1030D8009BB2B3FA83F35B09BB420FD1B5F1FF3F53
:1030E800DCD1C4F30743012BEED033689B6924EA93
:1030F80003039BB2B3FA83F35B09EDE70020F8BD45
:10310800F8B504460D4616461F463CE01A6842F4D8
:1031180000721A6023686FF480625A610023236387
:10312800202284F83D2084F83E30226C42F00402CC
:10313800226484F83C300120F8BDFEF783F8C01BF8
:10314800864200D3FEB900232363202284F83D2061
:1031580084F83E30226C42F02002226484F83C302D
:103168000120F8BD23685B6925EA03039BB200339D
:1031780018BF0123A3B123685A6912F4806FC5D11F
:10318800B6F1FF3FD9D1C5F30743012BEAD0236835
:103198009B6925EA03039BB2003318BF0123E9E7C3
:1031A8000020F8BDF0B583B004460F4615461E460C
:1031B800C36A082B0DD0012B0BD013F5803F08D024
:1031C800036B122B0AD10268136843F480731360EF
:1031D80004E02268136843F48073136000962B465A
:1031E80000224FF001112046FFF752FF18BB236958
:1031F800B3F5804F11D02268FB1103F0060343F0AA
:10320800F003136133462A460E492046FFF778FF3C
:10321800A8B92368FFB21F6103E0236807F0FE071F
:103228001F6133462A4608492046FFF769FF0346CF
:1032380010B1012300E00123184603B0F0BD0123BB
:10324800FAE700BF08000100020001002DE9F04183
:1032580084B004460D4616461F46C26A01680B68CC
:1032680043F480630B60082A0DD0012A0BD012F5B5
:10327800803F08D0036B112B0AD10268136843F40E
:103288008073136004E02268136843F4807313604A
:103298000097334600224FF001112046FFF7F8FE51
:1032A800002848D12369B3F5804F10D023684FEA2E
:1032B800E51808F0060848F0F0021A613B46324665
:1032C80020492046FFF71CFF80B1012334E0236822
:1032D80045F00105EDB21D613B4632461A492046CC
:1032E800FFF70EFF034638B3012325E02368EDB24C
:1032F8001D613B46324614492046FFF701FF08B1DD
:10330800012319E0002203922368596903919969FE
:1033180003910399196841F4807119600097334645
:103328004FF001112046FFF7B3FE48B9226848F074
:10333800F1031361D0E70123184604B0BDE8F0811A
:103348000123F9E7080001000200010070B50446F6
:103358000D46164623685B6913F0800F1CD1204682
:10336800FFF76EFED0B9B5F1FF3FF3D0FDF76AFF66
:10337800801B854201D3002DECD10023236320223A
:1033880084F83D2084F83E30226C42F0200222640A
:1033980084F83C30012070BD002070BD012070BD54
:1033A8002DE9F04184B004460E46174698460B9D19
:1033B8000268136843F48073136000950A9B002227
:1033C8004FF00111FFF764FE20B10123184604B045
:1033D800BDE8F081236806F0FE061E612B460A9AB6
:1033E80021492046FFF78CFE08B10123EEE70023B0
:1033F800039323685A6903929B690393039B2A46A4
:103408000A992046FFF7A2FF034658B1236C042B04
:1034180001D00123DAE72268136843F400731360CC
:103428000123D3E7B8F1010F0ED023683A0A1A61D5
:103438002A460A992046FFF789FF034678B1236C8C
:10344800042B05D00123C1E72268FFB21761BDE74D
:103458002268136843F4007313600123B6E72268F7
:10346800FFB21761B2E700BF020001002DE9F04189
:1034780084B004460E46174698460B9D02681368AA
:1034880043F4806313600268136843F48073136025
:1034980000950A9B00224FF00111FFF7F9FD20B1BA
:1034A8000123184604B0BDE8F0812368F6B206F09F
:1034B800FE021A612B460A9A38492046FFF720FE79
:1034C80008B10123EDE70023039323685A690392A7
:1034D8009B690393039B2A460A992046FFF736FF08
:1034E80058B1236C042B01D00123DAE72268136852
:1034F80043F4007313600123D3E7B8F1010F0DD033
:1035080023683A0A1A612A460A992046FFF71EFFDD
:10351800C8B1236C042B0FD00123C2E72368FFB284
:103528001F612A460A992046FFF710FFB0B1236CA5
:10353800042B0CD00123B4E72268136843F400730A
:1035480013600123ADE72368FFB21F61E9E7226832
:10355800136843F4007313600123A2E72268136819
:1035680043F48073136000950A9B00224FF0011109
:103578002046FFF78DFD08B1012392E7236846F046
:1035880001061E612B460A9A04492046FFF7B8FD3A
:103598000346002885D0012383E700BF020001000D
:1035A80070B504460D46164623685B6913F0040F90
:1035B8001CD12046FFF744FDD0B9B5F1FF3FF3D049
:1035C800FDF740FE801B854201D3002DECD100237E
:1035D8002363202284F83D2084F83E30226C42F098
:1035E8002002226484F83C30012070BD002070BDA8
:1035F800012070BD70B505460C4616462B685A6901
:1036080012F0400F29D15A6912F0100F15D1FDF7A9
:1036180019FE801BA04201D8002CEFD100232B6398
:10362800202285F83D2085F83E302A6C42F02002A1
:103638002A6485F83C30012070BD6FF010025A6191
:1036480000232B63202285F83D2085F83E302A6C24
:103658002A6485F83C30012070BD002070BD70B52B
:1036680004460D46164623685B6913F0100F19D1FE
:103678002046FFF7E5FCB8B9FDF7E4FD801BA8423A
:1036880001D8002DEFD100232363202284F83D20A8
:1036980084F83E30226C42F02002226484F83C30E8
:1036A800012070BD002070BD012070BD704700284A
:1036B80000F0BE80F8B5044690F83D30002B6BD082
:1036C800242384F83D302268136823F00103136033
:1036D80005F068F86268584B9A4262D8574B98428E
:1036E8008CBF00230123002B40F0A480544BA3FB84
:1036F80000239A0C21684B6823F03F0313434B6067
:103708002568296A21F03F0166684B4B9E424ED8D6
:10371800531C0B432B622268D16921F44F4121F0DD
:10372800FF016368444DAB424BD801385B00B0FBE6
:10373800F3F30133C3F30B03042B38BF04230B4308
:10374800D36121680B6823F0C003E269206A024351
:1037580013430B6021688B6823F4034323F0FF03B2
:103768002269E068024313438B602168CB6823F029
:10377800FF036269A06902431343CB6022681368A0
:1037880043F00103136000202064202384F83D30B7
:10379800206384F83E00F8BD80F83C3009F0C6F993
:1037A8008EE7284B98428CBF002301239BE74FF4F8
:1037B800967303FB02F3244AA2FB03239B090133FC
:1037C800A7E7A668BEB9451E03EB4307B5FBF7F5A7
:1037D8000135C5F30B05B5FA85F56D0935BBC6B9D5
:1037E800013803EB4303B0FBF3F30133C3F30B03DB
:1037F80043F40043A3E7451E03EB830707EB870762
:10380800B5FBF7F50135C5F30B05B5FA85F56D0977
:10381800E4E7013803EB830303EB8303B0FBF3F323
:103828000133C3F30B0343F4404388E7012386E7DE
:10383800012070470120F8BDA08601007F841E008A
:1038480083DE1B43FF083D00D34D62107047A8B1CB
:1038580010B50446242380F83D300268136823F02D
:103868000103136009F09AF90020206484F83D00F0
:10387800206384F83E0084F83C0010BD01207047A6
:103888002DE9F04184B004460D4690461F46FDF7E9
:10389800D9FC94F83D30DBB2202B04D00225284611
:1038A80004B0BDE8F08106460090192301224F4973
:1038B8002046FFF7EDFB08B10225F0E794F83C300D
:1038C800012B00F08E80012384F83C3023681A68AD
:1038D80012F0010F03D11A6842F001021A6022683F
:1038E800136823F400631360212384F83D30102308
:1038F80084F83E3000232364C4F824806785638DF0
:1039080023853B4BE36233460A9A29462046FFF754
:1039180049FC0546002866D10023039323685A69A9
:1039280003929B690393039B12E0236C042B01D041
:103938000125B4E72268136843F400731360012576
:10394800ADE732460A992046FFF72AFE00282ED115
:10395800238D002B37D032460A992046FFF7F6FC14
:103968000028E2D12368626A12781A61616A4B1CE6
:103978006362638D9BB2013B9BB26385238D013BE0
:103988009BB223852268506910F0040FD9D0002B10
:10399800D7D04B781361636A01336362638D9BB23E
:1039A800013B9BB26385238D013B2385C9E7236CCB
:1039B800042B01D0012572E72268136843F40073D1
:1039C800136001256BE72268136843F400731360E2
:1039D800202384F83D30002384F83E3084F83C30BE
:1039E8005DE702255BE7012559E700BF02001000EB
:1039F8000000FFFF2DE9F04186B004460D469046D1
:103A08001F46FDF71FFC94F83D30DBB2202B04D095
:103A18000225284606B0BDE8F08106460090192325
:103A2800012288492046FFF733FB08B10225F0E759
:103A380094F83C30012B00F03D81012384F83C30A0
:103A480023681A6812F0010F03D11A6842F00102C4
:103A58001A602268136823F400631360222384F831
:103A68003D30102384F83E3000232364C4F82480BA
:103A78006785638D2385744BE36233460C9A294628
:103A88002046FFF7E3FB0546002840F01581238D0B
:103A98005BB9029323685A6902929A690292029A60
:103AA8001A6842F400721A607AE0012B0FD0022BD8
:103AB8001FD02268136843F48063136000230593C2
:103AC80023685A6905929B690593059B68E02268FB
:103AD800136823F4806313600023039323685A69EF
:103AE80003929A690392039A1A6842F400721A6060
:103AF80056E02268136823F4806313602268136811
:103B080043F4006313600023049323685A69049202
:103B18009B690493049B43E032460C992046FFF7C7
:103B280069FD002840F0CA80636A226812691A7029
:103B3800636A01336362238D013B2385638D9BB2E6
:103B4800013B9BB263852BE000960C9B00223F490A
:103B58002046FFF79DFA002840F0B28022681368DB
:103B680043F400731360636A226812691A70626A08
:103B7800531C6362238D013B2385638D9BB2013BFC
:103B88009BB2638523681B695370636A0133636260
:103B9800238D013B2385638D9BB2013B9BB26385DB
:103BA800238D002B7DD0032B52D8012BB4D0022BB0
:103BB800CAD000960C9B002224492046FFF768FAD9
:103BC80000287FD12268136823F480631360636A36
:103BD800226812691A70636A01336362238D013B9C
:103BE8002385638D9BB2013B9BB2638500960C9B3A
:103BF800002216492046FFF74BFA002864D12268B4
:103C0800136843F400731360636A226812691A70B8
:103C1800626A531C6362238D013B2385638D9BB2CB
:103C2800013B9BB2638523681B695370636A013348
:103C38006362238D013B2385638D9BB2013B9BB25D
:103C48006385ADE7020010000000FFFF04000100DB
:103C580032460C992046FFF7CDFC002836D1636A1E
:103C6800226812691A70626A531C6362238D013BD1
:103C78002385638D9BB2013B9BB263852368596999
:103C880011F0040F8CD01B695370636A01336362AF
:103C9800238D013B2385638D9BB2013B9BB26385DA
:103CA8007EE7202384F83D30002384F83E3084F8F2
:103CB8003C30AEE60225ACE60125AAE60125A8E6D9
:103CC8000125A6E60125A4E60125A2E60125A0E630
:103CD8002DE9F04184B004460F4690461D46FDF795
:103CE800B1FA94F83D30DBB2202B04D002231846F9
:103CF80004B0BDE8F0810646002F00F0A680B8F1B8
:103D0800000F00F0A48094F83C30012B00F0A18053
:103D1800012384F83C3023681A6812F0010F03D19C
:103D28001A6842F001021A602268136823F40063DB
:103D38001360212384F83D30202384F83E3000228C
:103D480022646762A4F82A80638D2385454BE36269
:103D580021680B6843F480630B6000962B46424948
:103D68002046FFF795F9002875D1002302932368B0
:103D78005A6902929B690293029B2369B3F5404FEB
:103D88002ED0238D002B44D0324629462046FFF7FB
:103D9800DDFA002836D12368626A12781A61616AEE
:103DA8004B1C6362638D9BB2013B9BB26385238D81
:103DB800013B9BB223852268506910F0040FE0D0C4
:103DC800002BDED04B781361636A01336362638D25
:103DD8009BB2013B9BB26385238D013B2385D0E7D2
:103DE80000962B46002220492046FFF751F900286B
:103DF80033D10023039323685A6903929B69039381
:103E0800039BBEE72268136823F4806313600123D1
:103E18006DE700962B4600224FF482312046FFF7CB
:103E280037F90346D8B922686FF480615161216877
:103E38000A6822F480620A60202284F83D20002269
:103E480084F83E2084F83C2051E701234FE7012302
:103E58004DE702234BE7012349E7012347E7012305
:103E680045E700BF0000FFFF020001002DE9F04117
:103E780084B004460F4690461D46FDF7E3F994F8D2
:103E88003D30DBB2202B04D00223184604B0BDE835
:103E9800F0810646002F00F09880B8F1000F00F07E
:103EA800968094F83C30012B00F09380012384F82D
:103EB8003C3023681A6812F0010F03D11A6842F0E7
:103EC80001021A602268136823F400631360222336
:103ED80084F83D30202384F83E3000222264676253
:103EE800A4F82A80638D23853C4BE36221680B6824
:103EF80043F480630B6000962B4639492046FFF750
:103F0800C7F8002867D10023029323685A690292F0
:103F18009B690293029B238D002B31D032462946A0
:103F28002046FFF767FB20BB636A226812691A7094
:103F3800616A4B1C6362228D013A92B22285638DBD
:103F48009BB2013B9BB263852368586910F0040F4C
:103F5800E1D0002ADFD01B694B70636A01336362CA
:103F6800238D013B2385638D9BB2013B9BB2638507
:103F7800D1E72268136823F480631360012384E780
:103F8800324629462046FFF76AFB0346B0B90022AD
:103F98000392216848690390086840F001000860AE
:103FA80003992068016821F480610160202184F868
:103FB8003D1084F83E2084F83C2066E722681368A8
:103FC80023F48063136001235FE701235DE7012386
:103FD8005BE7022359E7012357E700BF0000FFFF13
:103FE8000200010030B482B00024019490F83D40F2
:103FF800E4B2202C03D0022002B030BC70472C4C15
:104008002468E4082B4DA5FB0454240A04EB84041B
:1040180004EB84040194019C013C0194019C002C54
:1040280035D00468A56915F0020FF4D190F83C501A
:10403800012D3BD0012580F83C50256815F0010F73
:1040480003D1256845F00105256005682C6824F42E
:1040580000642C60212480F83D40102480F83E4004
:104068000024046442624385438D0385124BC36276
:1040780041640268136843F48073136080F83C401D
:104088000268536843F4E06353602046B4E70023B2
:104098000363202280F83D2080F83E30026C42F015
:1040A8002002026480F83C300120A5E70220A3E743
:1040B8007C00002089B5F8140000FFFF30B482B0FE
:1040C8000024019490F83D40E4B2202C03D0022053
:1040D80002B030BC70472F4C2468E4082E4DA5FB75
:1040E8000454240A04EB840404EB84040194019C22
:1040F800013C0194019C002C3AD00468A56915F094
:10410800020FF4D190F83C50012D40D0012580F8E1
:104118003C50256815F0010F03D1256845F00105CD
:10412800256005682C6824F400642C60222480F83B
:104138003D40102480F83E400024046442624385D8
:10414800438D0385154BC36241640268136843F4C9
:10415800806313600268136843F48073136080F807
:104168003C400268536843F4E06353602046AFE77D
:1041780000230363202280F83D2080F83E30026C43
:1041880042F02002026480F83C300120A0E70220BF
:104198009EE700BF7C00002089B5F8140000FFFFEF
:1041A80090F83D30DBB2202B01D002207047002967
:1041B80034D0002A34D090F83C30012B32D010B4DF
:1041C800012380F83C3003681C6814F0010F03D108
:1041D8001C6844F001041C600468236823F400632D
:1041E8002360212380F83D30202380F83E300023CF
:1041F800036441624285428D02850B4AC2620168AE
:104208000A6842F480620A6080F83C3001684A68B3
:1042180042F4E0624A60184610BC704701207047BB
:1042280001207047022070470000FFFF90F83D30E2
:10423800DBB2202B01D002207047002934D0002A9D
:1042480034D090F83C30012B32D010B4012380F8E0
:104258003C3003681C6814F0010F03D11C6844F05B
:1042680001041C600468236823F40063236022238C
:1042780080F83D30202380F83E30002303644162FB
:104288004285428D02850B4AC26201680A6842F47F
:1042980080620A6080F83C3001684A6842F4E06253
:1042A8004A60184610BC70470120704701207047CB
:1042B800022070470000FFFF30B583B0002401944E
:1042C80090F83D40E4B2202C03D00223184603B0F6
:1042D80030BD504C2468E4084F4DA5FB0454240A13
:1042E80004EB840404EB84040194019C013C0194D4
:1042F800019C002C3DD00468A56915F0020FF4D18B
:1043080090F83C50012D00F08280012580F83C5047
:10431800256815F0010F03D1256845F001052560D2
:1043280005682C6824F400642C60212480F83D4042
:10433800102480F83E400024046442624385438D83
:104348009BB20385354AC26241640BBB026813689D
:1043580043F4806313600268136843F48073136046
:10436800002380F83C3001684A6842F4E0624A6001
:10437800ACE700230363202280F83D2080F83E301C
:10438800026C42F02002026480F83C3001239DE771
:104398000446436B224ADA63436B224ADA64426B6F
:1043A80000231364426B5364426B9364426B13653E
:1043B8000268038D1032416A406BFDF78EFA03469E
:1043C800B8B921680A6842F480620A6021680A68FC
:1043D80042F480720A60002284F83C2021684A680E
:1043E80042F440724A6021684A6842F400624A60B6
:1043F8006CE7202384F83D30002284F83E20236CAB
:1044080043F01003236484F83C2001235EE7022371
:104418005CE700BF7C00002089B5F8140000FFFFAE
:10442800E1620008A362000830B583B0002401945B
:1044380090F83D40E4B2202C03D00223184603B084
:1044480030BD504C2468E4084F4DA5FB0454240AA1
:1044580004EB840404EB84040194019C013C019462
:10446800019C002C3DD00468A56915F0020FF4D119
:1044780090F83C50012D00F08280012580F83C50D6
:10448800256815F0010F03D1256845F00105256061
:1044980005682C6824F400642C60222480F83D40D0
:1044A800102480F83E400024046442624385438D12
:1044B8009BB20385354AC26241640BBB026813682C
:1044C80043F4806313600268136843F480731360D5
:1044D800002380F83C3001684A6842F4E0624A6090
:1044E800ACE700230363202280F83D2080F83E30AB
:1044F800026C42F02002026480F83C3001239DE700
:104508000446836B224ADA63836B224ADA64826B3D
:1045180000231364826B5364826B9364826B13650C
:104528000168038D426A1031806BFDF7D6F90346A6
:10453800B8B921680A6842F480620A6021680A688A
:1045480042F480720A60002284F83C2021684A689C
:1045580042F440724A6021684A6842F400624A6044
:104568006CE7202384F83D30002284F83E20236C39
:1045780043F01003236484F83C2001235EE7022300
:104588005CE700BF7C00002089B5F8140000FFFF3D
:10459800E1620008A362000890F83D30DBB2202BEE
:1045A80002D002231846704700295FD0002A5FD046
:1045B80090F83C30012B5DD010B5012380F83C30D9
:1045C80003681C6814F0010F03D11C6844F001044F
:1045D8001C6004460068036823F400630360212319
:1045E80084F83D30202384F83E3000232364616240
:1045F8006285628D2285204AE262626B1F49D1631F
:10460800626B1F49D164626B1364626B5364626BA3
:104618009364626B13652268238D1032616A606B44
:10462800FDF75BF9034670B1202384F83D30002282
:1046380084F83E20236C43F01003236484F83C2064
:104648000123184610BD21680A6842F480620A6096
:10465800002284F83C2021684A6842F440724A608B
:1046680021684A6842F400624A60EAE7012399E750
:10467800012397E7022395E70000FFFFE1620008A6
:10468800A362000890F83D30DBB2202B02D0022351
:104698001846704700295FD0002A5FD090F83C3058
:1046A800012B5DD010B5012380F83C3003681C68ED
:1046B80014F0010F03D11C6844F001041C60044687
:1046C8000068036823F400630360222384F83D3004
:1046D800202384F83E300023236461626285628D62
:1046E8002285204AE262A26B1F49D163A26B1F494F
:1046F800D164A26B1364A26B5364A26B9364A26B24
:1047080013652168238D626A1031A06BFDF7E5F807
:10471800034670B1202384F83D30002284F83E20FF
:10472800236C43F01003236484F83C2001231846CB
:1047380010BD21680A6842F480620A60002284F889
:104748003C2021684A6842F440724A6021684A68FD
:1047580042F400624A60EAE7012399E7012397E7F8
:10476800022395E70000FFFFE1620008A36200084A
:104778002DE9F04182B004460E4617469846FCF7EC
:1047880061FD94F83D30DBB2202B04D0022318469B
:1047980002B0BDE8F08105460090192301224C497A
:1047A8002046FEF775FC08B10223F0E794F83C3088
:1047B800012B00F08880012384F83C3023681A68B4
:1047C80012F0010F03D11A6842F001021A60226840
:1047D800136823F400631360212384F83D304023D9
:1047E80084F83E3000232364089B6362BDF82430BC
:1047F8006385638D2385374BE36201950A9B00939C
:1048080043463A4631462046FEF7CAFD00285CD1A9
:10481800238D002B36D02A460A992046FEF796FDAE
:1048280020BB2368626A12781A61616A4B1C636252
:10483800228D013A92B22285638D9BB2013B9BB2D5
:1048480063852368586910F0040FE1D0002ADFD08F
:104858004A781A61636A01336362238D013B2385B9
:10486800638D9BB2013B9BB26385D1E7236C042B1C
:1048780001D001238BE72268136843F400731360A7
:10488800012384E72A460A992046FEF789FE034653
:1048980058B1236C042B01D0012378E722681368F0
:1048A80043F400731360012371E721680A6842F436
:1048B80000720A60202284F83D20002284F83E20FD
:1048C80084F83C2063E7022361E701235FE700BF28
:1048D800020010000000FFFF2DE9F04186B00446F9
:1048E8000D4617469846FCF7ADFC94F83D30DBB210
:1048F800202B04D00225284606B0BDE8F0810646E4
:1049080000901923012288492046FEF7C1FB08B10F
:104918000225F0E794F83C30012B00F03D8101239B
:1049280084F83C3023681A6812F0010F03D11A6822
:1049380042F001021A602268136823F400631360CE
:10494800222384F83D30402384F83E30002323643A
:104958000C9B6362BDF834306385638D2385734B8C
:10496800E36201960E9B009343463A462946204649
:10497800FEF77CFD0546002840F01081238D5BB9C9
:10498800029323685A6902929A690292029A1A68F3
:1049980042F400721A6075E0012B0AD0022B1AD07B
:1049A8000023059323685A6905929B690593059B23
:1049B80068E02268136823F480631360002303937C
:1049C80023685A6903929A690392039A1A6842F40F
:1049D80000721A6056E02268136823F4806313603B
:1049E8002268136843F40063136000230493236868
:1049F8005A6904929B690493049B43E032460E99DA
:104A08002046FEF7F7FD002840F0CA80636A226856
:104A180012691A70636A01336362238D013B23852F
:104A2800638D9BB2013B9BB263852BE000960E9B86
:104A380000223F492046FEF72BFB002840F0B280B9
:104A48002268136843F400731360636A226812696A
:104A58001A70626A531C6362238D013B2385638D40
:104A68009BB2013B9BB2638523681B695370636AE1
:104A780001336362238D013B2385638D9BB2013B28
:104A88009BB26385238D002B7DD0032B52D8012B3D
:104A9800B4D0022BCAD000960E9B0022244920468F
:104AA800FEF7F6FA00287FD12268136823F48063A2
:104AB8001360636A226812691A70636A0133636259
:104AC800238D013B2385638D9BB2013B9BB263859C
:104AD80000960E9B002216492046FEF7D9FA0028B8
:104AE80064D12268136843F400731360636A226810
:104AF80012691A70626A531C6362238D013B238515
:104B0800638D9BB2013B9BB2638523681B6953701D
:104B1800636A01336362238D013B2385638D9BB2F6
:104B2800013B9BB26385ADE7020010000000FFFF68
:104B38000400010032460E992046FEF75BFD00286E
:104B480036D1636A226812691A70626A531C6362FA
:104B5800238D013B2385638D9BB2013B9BB263850B
:104B68002368596911F0040F8CD01B695370636A6C
:104B780001336362238D013B2385638D9BB2013B27
:104B88009BB263857EE7202384F83D30002384F8B8
:104B98003E3084F83C30AEE60225ACE60125AAE6B4
:104BA8000125A8E60125A6E60125A4E60125A2E639
:104BB8000125A0E630B482B00024019490F83D406D
:104BC800E4B2202C03D0022002B030BC70472F4C36
:104BD8002468E4082E4DA5FB0454240A04EB84043D
:104BE80004EB84040194019C013C0194019C002C79
:104BF8003BD00468A56915F0020FF4D190F83C5039
:104C0800012D41D0012580F83C50256815F0010F91
:104C180003D1256845F00105256005682C6824F452
:104C280000642C60212480F83D40402480F83E40F8
:104C380000240464049D4562BDF814504585458DE3
:104C48000585144DC56241648264C36404650268C5
:104C5800136843F48073136080F83C40026853681B
:104C680043F4E06353602046AEE700230363202249
:104C780080F83D2080F83E30026C42F02002026449
:104C880080F83C3001209FE702209DE77C0000204F
:104C980089B5F8140000FFFF30B482B000240194F5
:104CA80090F83D40E4B2202C03D0022002B030BC82
:104CB8007047344C2468E408334DA5FB0454240A97
:104CC80004EB840404EB84040194019C013C0194EA
:104CD800019C002C42D00468A56915F0020FF4D19C
:104CE80090F83C50012D48D0012580F83C502568AB
:104CF80015F0010F03D1256845F001052560056809
:104D08002C6824F400642C60222480F83D40402460
:104D180080F83E4000240464049D4562BDF81450A8
:104D28004585458D0585194DC56241648264C36416
:104D380004650268136843F48063136002681368AB
:104D480043F48073136080F83C40038DBBB1026864
:104D5800536843F4E06353602046A7E700230363E6
:104D6800202280F83D2080F83E30026C42F020027C
:104D7800026480F83C30012098E7022096E7002082
:104D880094E700BF7C00002089B5F8140000FFFFFD
:104D98002DE9F04184B004460D4616461F4600230F
:104DA8000393FCF74FFA94F83D30DBB2202B04D084
:104DB8000223184604B0BDE8F0818046514B1B68B9
:104DC800DB08514AA2FB03231B0A03EB830303EB13
:104DD80083030393039B013B0393039B002B3AD06C
:104DE80023689A6912F0020FF4D194F83C20012A42
:104DF80000F08480012284F83C201A6812F0010F28
:104E080003D11A6842F001021A602268136823F479
:104E180000631360212384F83D30402384F83E303A
:104E2800002323640A9B6362BDF82C306385638D7D
:104E38009BB22385354AE262DBB9202384F83D30F2
:104E4800002284F83E20236C43F04003236484F856
:104E58003C200123ADE72363202284F83D2084F819
:104E68003E30226C42F02002226484F83C30012358
:104E78009FE7636B264ADA63636B264ADA64626BE0
:104E880000231364626B5364626B9364626B1365F3
:104E98002268238D1032616A606BFCF71EFD68B1D1
:104EA800202384F83D30002284F83E20236C43F010
:104EB8001003236484F83C2001237AE7CDF80480AA
:104EC800232300933B46324629462046FEF768FADC
:104ED8000346A8B90021029122685069029090699E
:104EE8000290029884F83C10516841F48071516036
:104EF80021684A6842F400624A605AE7022358E788
:104F0800012356E77C00002089B5F8140000FFFF54
:104F1800E1620008A36200082DE9F04186B004466A
:104F28000D4616461F46FCF78DF90023059394F8A5
:104F38003D30DBB2202B04D00223184606B0BDE872
:104F4800F0818046624B1B68DB08624AA2FB0323A0
:104F58001B0A03EB830303EB83030593059B013BC8
:104F68000593059B002B52D023689A6912F0020F13
:104F7800F4D194F83C20012A00F0A380012284F89F
:104F88003C201A6812F0010F03D11A6842F001029E
:104F98001A602268136823F400631360222384F8DC
:104FA8003D30402384F83E30002323640C9B636229
:104FB800BDF834306385638D9BB22385464AE2622F
:104FC800002B61D0A36B454ADA63A36B444ADA64C9
:104FD800A26B00231364A26B5364A26B9364A26B4D
:104FE80013652168238D626A1031A06BFCF775FC8C
:104FF800D8B1202384F83D30002284F83E20236C69
:1050080043F01003236484F83C20012395E72363CD
:10501800202284F83D2084F83E30226C42F02002A1
:10502800226484F83C30012387E7CDF804802323E9
:1050380000933B46324629462046FEF717FA0346B8
:10504800002840D1228D012A18D021684A6842F4EC
:1050580080524A6000210391226850690390906948
:105068000390039884F83C10516841F480715160B2
:1050780021684A6842F400624A605EE721680A686B
:1050880022F480620A60E5E7CDF8048023230093C8
:105098003B46324629462046FEF7E8F90346A0B9C2
:1050A80004902268516904919169049104991168E6
:1050B80041F400711160202284F83D2084F83C00FE
:1050C8003BE7022339E7012337E7012335E700BF30
:1050D8007C00002089B5F8140000FFFFE162000899
:1050E800A36200082DE9F04385B004460F469046B8
:1050F8001D46FCF7A7F894F83D30DBB2202B04D00E
:105108000223184605B0BDE8F0830646009019232F
:10511800012254492046FDF7BBFF08B10223F0E7FE
:1051280094F83C30012B00F09480012384F83C3043
:1051380023681A6812F0010F03D11A6842F00102BD
:105148001A602268136823F400631360242384F828
:105158003D3000232364A3F58033E3624FF0010957
:1051680035E0A02384F83D3023685A69C2F3400231
:105178005969C1F3802194F83D30DBB2A02B09D0E6
:1051880042B939B9FCF75EF8801B8542E9D3002D96
:10519800EAD1E6E7202384F83D3023685A6912F003
:1051A800020F32D11A6842F400721A6023686FF451
:1051B80080625A610096192301222A492046FDF788
:1051C80067FF00284BD109F10109C14539D222688E
:1051D800136843F48073136000962B4600224FF047
:1051E80001112046FDF754FF002834D1236807F049
:1051F800FE021A61FCF726F8064623685A69C2F3CC
:1052080040025969C1F38021B5E71A6842F4007277
:105218001A600023039323685A6903929B690393D6
:10522800039B0096192301220E492046FDF730FF03
:10523800034690B9202284F83D20002284F83C20BF
:105248005FE7202384F83D30002384F83C300123B5
:1052580057E7022355E7012353E7012351E70123C9
:105268004FE700BF0200100030B482B00024019460
:10527800009490F83D40E4B2202C03D0022002B004
:1052880030BC7047049C082C39D0012C37D090F8DA
:105298003C40012C68D0012480F83C400468256813
:1052A80015F0010F03D1256845F001052560056853
:1052B8002C6824F400642C60212480F83D401024DC
:1052C80080F83E400024046442624385438D038590
:1052D800049BC3624164036B0193019B112B34D07F
:1052E8000268136843F480731360002380F83C302D
:1052F80001684A6842F4E0624A601846BFE71B4CFE
:105308002468E4081A4DA5FB0454240A04EB840419
:1053180004EB84040094009C013C0094009C2CB194
:105328000468A46914F0020FF5D1B0E70023036301
:10533800202280F83D2080F83E30026C42F02002A6
:10534800026480F83C30012099E7049BB3F52A0FEA
:1053580008D0B3F12A4F03D00023002BC5D0BFE7F4
:105368000123FAE70123F8E7022088E77C00002000
:1053780089B5F81430B583B000240194009490F8EE
:105388003D40E4B2202C03D00223184603B030BDC0
:10539800069C082C42D0012C40D090F83C40012CAF
:1053A80000F0C780012480F83C400468256815F0A7
:1053B800010F03D1256845F00105256005682C68B3
:1053C80024F400642C60212480F83D40102480F8E7
:1053D8003E400024046442624385438D9BB20385AA
:1053E800069AC2624164026B0192002B3CD10268AA
:1053F800136843F480631360019B112B00F08980CC
:105408000268136843F480731360002380F83C300B
:1054180001684A6842F4E0624A60B6E7464C24688C
:10542800E408464DA5FB0454240A04EB840404EB69
:1054380084040094009C013C0094009C2CB10468F6
:10544800A46914F0020FF5D1A7E700230363202213
:1054580080F83D2080F83E30026C42F02002026461
:1054680080F83C30012390E70446436B344ADA6302
:10547800436B344ADA64426B00231364426B13654E
:105488000268038D1032416A406BFCF726FA034626
:10549800002830D121680A6842F480620A60019AC3
:1054A800112A19D021680A6842F480720A60002221
:1054B80084F83C20069A042A03D0202A01D0102A16
:1054C80004D121684A6842F400624A6021684A6847
:1054D80042F440724A6058E7069AB2F52A0F08D09B
:1054E800B2F12A4F03D00022002AE0D0DAE70122E5
:1054F800FAE70122F8E7202384F83D30002284F8F7
:105508003E20236C43F01003236484F83C200123DD
:105518003BE7069BB3F52A0F09D0B3F12A4F04D015
:105528000023002B3FF471AF6AE70123F9E7012359
:10553800F7E7022329E700BF7C00002089B5F814AB
:10554800E1620008A362000830B482B0002401942C
:10555800009490F83D40E4B2202C03D0022002B021
:1055680030BC7047049C082C44D0012C42D090F8E1
:105578003C40012C00F08880012480F83C400468FD
:10558800256815F0010F03D1256845F00105256050
:1055980005682C6824F400642C60222480F83D40BF
:1055A800102480F83E400024046442624385438D01
:1055B8000385049BC3624164036B0193438D9BB2D3
:1055C800022B3DD00268136843F4806313604FF4E4
:1055D800E062019B122B48D001680B6843F480738A
:1055E8000B60002380F83C300168486802434A6039
:1055F8001846B4E7254C2468E408254DA5FB045457
:10560800240A04EB840404EB84040094009C013C09
:105618000094009C2CB10468A46914F0020FF5D121
:10562800A5E700230363202280F83D2080F83E3060
:10563800026C42F02002026480F83C3001208EE7C0
:10564800049B202B04D0B3F12A4F01D0102BB9D1E1
:105658000268136823F4806313600268136843F4D4
:10566800006313604FF44072B3E7049BB3F52A0F4D
:1056780008D0B3F12A4F03D00023002BB1D0ABE7F9
:105688000123FAE70123F8E7022068E77C000020FD
:1056980089B5F81430B583B000240194009490F8CB
:1056A8003D40E4B2202C03D00223184603B030BD9D
:1056B800069C082C7AD0012C78D090F83C40012C1C
:1056C80000F0F480012480F83C400468256815F057
:1056D800010F03D1256845F00105256005682C6890
:1056E80024F400642C6005686C6824F480546C60B1
:1056F800222480F83D40102480F83E4000240464B1
:1057080042624385438D9BB20385069AC262416417
:10571800026B0192002B00F0A480438D9BB2022BF8
:105728006AD00268136843F480631360069B202BD9
:1057380004D0B3F12A4F01D0102B04D1026853686A
:1057480043F4805353600446836B594ADA63836B8E
:10575800584ADA64826B00231364826B136501680C
:10576800038D426A1031806BFCF7B7F803460028B6
:1057780069D1019A122A57D021680A6842F48072C6
:105788000A60002284F83C20069A042A03D0202AC2
:1057980001D0102A04D121684A6842F400624A60A4
:1057A80021684A6842F440724A607EE7424C2468A5
:1057B800E408424DA5FB0454240A04EB840404EBDA
:1057C80084040094009C013C0094009C2CB1046863
:1057D800A46914F0020FF5D16FE7002303632022B8
:1057E80080F83D2080F83E30026C42F020020264CE
:1057F80080F83C30012358E7069B202B04D0B3F1F6
:105808002A4F01D0102B8CD10268136823F48063CF
:1058180013600268136843F40063136002685368F6
:1058280043F4805353608EE7069AB2F52A0F08D0E6
:10583800B2F12A4F03D00022002AA2D09CE701220D
:10584800FAE70122F8E7202384F83D30002284F8A3
:105858003E20236C43F01003236484F83C2001238A
:1058680023E70268136843F480631360019B122BDB
:105878000DD00268136843F480731360002380F826
:105888003C3001684A6842F4E0624A600DE7069BD2
:10589800B3F52A0F08D0B3F12A4F03D00023002B09
:1058A800ECD0E6E70123FAE70123F8E70223FCE658
:1058B800E1620008A36200087C00002089B5F814A2
:1058C80030B482B090F83D4004F02804282C03D06E
:1058D800022002B030BC7047002932D0002A32D0F2
:1058E80090F83C40012C30D0012480F83C400468FA
:1058F800256815F0010F03D1256845F001052560DD
:1059080005682C6824F400642C60292480F83D4044
:10591800202480F83E400024046441624285428D80
:105928000285C362019403685A6901929A690192D7
:10593800019A80F83C405A6842F4E0625A60204676
:10594800C7E70120C5E70120C3E70220C1E7F0B59A
:1059580083B090F83D4004F02804282C03D002239B
:10596800184603B0F0BD002900F0A380002A00F01B
:10597800A28090F83C40012C00F09F801F461646FC
:105988000D460446012380F83C300268536823F42E
:105998004073536090F83D30DBB22A2B41D090F829
:1059A8003D30DBB2292B54D023681A6812F0010F5E
:1059B80003D11A6842F001021A602268136823F4BE
:1059C80000631360292384F83D30202384F83E3097
:1059D8000023236465626685628D2285E762626BB7
:1059E8003749D163626B3749D164626B1364626B68
:1059F80013652268238D1032616A606BFBF76DFFB7
:105A0800034600283CD0202384F83D30002284F847
:105A18003E20236C43F01003236484F83C200123C8
:105A28009EE703685A6812F4006FBDD0826B002AA3
:105A3800BAD05A6822F400625A60836B224A1A6507
:105A4800806BFBF7CEFF0028AED0A06B036D9847A4
:105A5800AAE703685A6812F4006FA5D05A6822F4BE
:105A680000625A60436B002B9ED0174A1A65406B40
:105A7800FBF7B7FF002897D0606B036D984793E753
:105A880021680A6842F480620A6000210191226854
:105A98005069019090690190019884F83C10516810
:105AA80041F44071516021684A6842F400624A60DA
:105AB80056E7012354E7012352E7022350E700BFCA
:105AC800E1620008A3620008FF63000830B482B0F6
