:020000040800F2
:1000000000000220BD720008156A0008176A000887
:10001000196A00081B6A00081D6A00080000000039
:100020000000000000000000000000001F6A00083F
:10003000216A000800000000236A0008256A000801
:100040000D7300080D7300080D7300080D73000890
:100050000D7300080D7300080D7300080D73000880
:100060000D7300080D7300080D7300080D73000870
:100070000D7300080D7300082D6A00080D73000849
:100080003D6A00080D7300080D7300080D73000829
:100090000D7300080D7300080D7300080D73000840
:1000A0000D7300080D7300080D7300080D73000830
:1000B0000D7300080D7300080D7300080D73000820
:1000C0000D7300080D7300080D7300080D73000810
:1000D0000D7300080D7300080D7300080D73000800
:1000E0000D7300080D7300080D7300080D730008F0
:1000F0000D7300080D7300080D7300080D730008E0
:100100000D7300080D7300080D7300080D730008CF
:100110000D7300080D7300080D7300080D730008BF
:100120000D7300080D7300080D7300080D730008AF
:100130000D7300080D7300080D7300080D7300089F
:100140000D7300080D7300080D7300084D6A000858
:100150000D7300080D7300080D7300080D7300087F
:100160000D7300080D7300080D7300080D7300086F
:100170000D7300080D7300080D73000800000000E7
:080180000D7300080D73000867
:1001880010B5054C237833B9044B13B10448AFF3C9
:1001980000800123237010BD9000002000000000A3
:1001A8001075000808B5034B1BB103490348AFF3AA
:1001B800008008BD000000009400002010750008B1
:1001C8007047704710B5094B4FF0FF321A62002490
:1001D8001C625A625C621A611C615A615C619A61B4
:1001E8009C61FFF7EEFF204610BD00BF00380240BB
:1001F80010B504460E4B18784FF47A73B3FBF0F33E
:100208000C4A1068B0FBF3F000F05AF968B90F2CEB
:1002180001D9012010BD002221464FF0FF3000F027
:10022800E9F8034B5C60002010BD012010BD00BF41
:10023800000000202800002008B50B4B1A6842F483
:1002480000721A601A6842F480621A601A6842F4EE
:1002580080721A60032000F0BBF80020FFF7C8FF87
:1002680006F010FA002008BD003C0240034A11685D
:10027800034B1B780B441360704700BFC400002079
:1002880000000020014B1868704700BFC400002020
:10029800014B5868704700BF0000002008B5064BA6
:1002A8001B78834205D0044B18705868FFF7A0FFED
:1002B80008BD002008BD00BF00000020014B1878D1
:1002C800704700BF0000002038B50446FFF7DAFF8A
:1002D8000546B4F1FF3F02D0044B1B781C44FFF7DE
:1002E800D1FF401B8442FAD838BD00BF000000206F
:1002F800024A136823F002031360704710E000E01D
:10030800024A136843F002031360704710E000E0EC
:100318000048704700060701014B1868000C704739
:10032800002004E0024B1868C0F30B00704700BFC0
:10033800002004E0024A536843F001035360704709
:10034800002004E0024A536823F001035360704719
:10035800002004E0024A536843F0020353607047E8
:10036800002004E0024A536823F0020353607047F8
:10037800002004E0024A536843F0040353607047C6
:10038800002004E0024A536823F0040353607047D6
:10039800002004E00122014B1A6070470004274244
:1003A8000022014B1A60704700042742014B18686D
:1003B800704700BF107AFF1F014B1868704700BFD5
:1003C800147AFF1F014B1868704700BF187AFF1F87
:1003D800074AD36823F4E0631B041B0C000200F4F3
:1003E800E060184340F0BF6040F40030D0607047D0
:1003F80000ED00E030B4164BDB68C3F30223C3F111
:100408000704042C28BF04241D1D062D17D9033BFF
:10041800012505FA04F4013C2140994005FA03F34B
:10042800013B1340194300280BDB0901C9B200F155
:10043800604000F5614080F8001330BC704700232D
:10044800E6E700F00F000901C9B2024B1954F4E7BE
:1004580000ED00E014ED00E0002808DB420900F0A0
:100468001F00012303FA00F0014B43F822007047F4
:1004780000E100E000280DDB430900F01F00012225
:1004880002FA00F02033044A42F82300BFF34F8FEA
:10049800BFF36F8F704700BF00E100E0BFF34F8FDD
:1004A8000549CA6802F4E062044B1343CB60BFF30A
:1004B8004F8F00BFFDE700BF00ED00E00400FA0524
:1004C8000138B0F1807F0AD2064B5860F021064A05
:1004D80082F823100020986007221A6070470120D4
:1004E800704700BF10E000E000ED00E0BFF35F8F51
:1004F800044A536A23F4803353620022024B5A6041
:10050800704700BF00ED00E090ED00E040F0010012
:10051800054B5860054A536A43F480335362BFF36E
:100528004F8FBFF36F8F704790ED00E000ED00E054
:100538004278134B9A60037823B9114B0022DA6092
:100548001A61704743680E4AD360017BC37A1B0661
:1005580043EA0173817A43EAC143417B43EA814319
:10056800817B43EA4143C17B43EA0143417A43EA41
:100578000123017A43EA410301780B431361704771
:1005880090ED00E0024BD868C0F30220704700BF2E
:1005980000ED00E070B400281FDB00F1604000F5BA
:1005A800614090F80003050901F00701C1F1070453
:1005B800042C28BF0424081D062814D9033925FA59
:1005C80001F6012000FA04F4013C3440146088402C
:1005D80001382840186070BC704700F00F00034CC9
:1005E800205C0509E0E70021E9E700BF14ED00E021
:1005F800002809DB430900F01F00012202FA00F07D
:100608004033024A42F82300704700BF00E100E08F
:10061800031E0ADB5A094032054951F8220003F04B
:100628001F03D84000F0010070470020704700BF4A
:1006380000E100E0002809DB430900F01F00012267
:1006480002FA00F06033024A42F82300704700BF04
:1006580000E100E0031E0ADB5A098032054951F81F
:10066800220003F01F03D84000F00100704700206B
:10067800704700BF00E100E0042805D0054A136870
:1006880023F0040313607047024A136843F004031D
:100698001360704710E000E0704708B5FFF7FCFFF3
:1006A80008BD00BF30B405682C6824F480242C6091
:1006B800046863608368402B05D003689960036809
:1006C800DA6030BC704703689A600368D960F8E75D
:1006D8000268D3B2103B0B49A1FB03131B090A495B
:1006E800C95CC165032B06D822F47F7222F003028D
:1006F8008265806D704722F47F7222F00302043213
:100708008265F6E7ABAAAAAA28750008836A8269F7
:1007180092B9012B0AD01BB1022B01D000207047DF
:10072800C36A13F0807F2CD100207047C36AB3F1ED
:10073800C07F28D000207047B2F5005F05D0022B9B
:1007480029D9032B15D000207047032B03D8DFE8E5
:1007580003F01C041C0A00207047C36A13F0807F52
:1007680015D100207047C36AB3F1C07F11D00020B3
:100778007047C36A13F0807F01D0012070470020C2
:100788007047012070470120704701207047012001
:100798007047012070470120704770B50446FFF785
:1007A80071FD002C5DD00546002384F83430022307
:1007B80084F835302268136823F001031360236836
:1007C8001A6812F0010F0AD0FFF75CFD401B0528DC
:1007D800F5D920236365032084F8350070BD1A68B5
:1007E800214911406268A0680243E0680243206919
:1007F800024360690243A0690243E0690243206A38
:1008080002430A43616A042916D01A60266875698A
:1008180025F00705636A1D43042B12D07561204635
:10082800FFF756FFE26D3F23934083600020606529
:10083800012384F8353070BDE16A206B01430A4317
:10084800E3E7A36A1D43E36A002BE7D02046FFF7DE
:100858005DFF0028E2D040236365012084F835005D
:1008680070BD012070BD00BF3F8010F000282ED061
:1008780038B5044690F83530DBB2022B01D102209E
:1008880038BD0268136823F001031360036800256C
:100898001D6003685D6003689D600368DD60036830
:1008A8001D61036821225A61FFF712FFE563256481
:1008B8006564A564E5642565E26D3F239340836024
:1008C800656584F8355084F83450284638BD0120D1
:1008D800704738B590F83440012C1CD0012480F8BA
:1008E800344090F83540E4B2012C04D0002380F85D
:1008F8003430022038BD0546022085F83500002432
:100908006C652846FFF7CEFE2A68136843F001039A
:100918001360204638BD022038BD38B5856D90F883
:100928003440012C31D0012480F8344090F835400F
:10093800E4B2012C04D0002380F83430022038BD02
:100948000446022084F83500002060652046FFF741
:10095800A9FEE26D3F239340AB602268136843F021
:10096800160313602268536943F080035361236CB4
:1009780023B12268136843F00803136022681368E0
:1009880043F001031360002038BD022038BD70B564
:100998000446866DFFF776FC94F83530DBB2022BFF
:1009A80006D080236365002384F83430012070BDAD
:1009B80005462268136823F01603136022685369FA
:1009C80023F080035361236CE3B12268136823F09A
:1009D800080313602268136823F001031360236877
:1009E8001B6813F0010F11D0FFF74CFC401B0528C2
:1009F800F5D920236365002384F83430032084F874
:100A0800350070BDA36C002BDFD1E3E7E26D3F2317
:100A18009340B360002084F83400012384F8353013
:100A280070BD90F83530DBB2022B03D080234365CC
:100A380001207047052380F835300268136823F0D9
:100A480001031360002070472DE9F84304468946E6
:100A58001546FFF717FC94F83530DBB2022B07D0A8
:100A680080236365002384F834300120BDE8F883CF
:100A7800804623681B6813F4807F38D1B9F1000FD2
:100A88003BD1E36D20279F40A66D33681F4243D1B9
:100A9800636D13F0010F3FD1B5F1FF3F07D0002D73
:100AA8002FD0FFF7EFFBA0EB0800854229D333686E
:100AB800E16D08228A40134204D0616D41F00101C2
:100AC8006165B260E16D01228A40134204D0616D14
:100AD80041F002016165B260E16D04228A4013426F
:100AE800D4D0616D41F004016165B260CEE74FF486
:100AF800807363650120BDE8F883E36D10279F408C
:100B0800C2E720236365002384F83430012384F886
:100B180035300320BDE8F883636D1BB1636D13F0B6
:100B2800010F09D1B9F1000F15D0E26D10239340E0
:100B3800B3600020BDE8F8832046FFF728FFE26D88
:100B480030239340B360002384F83430012084F8C4
:100B58003500BDE8F883E26D30239340B360002090
:100B680084F83400012384F83530BDE8F883F0B503
:100B780083B0044600230193724B1D68724BA3FB9C
:100B88000535AD0A876D3E68C26D082393401E4245
:100B980010D003681A6812F0040F0BD01A6822F0FC
:100BA80004021A60C26D08239340BB60436D43F092
:100BB80001034365E26D012393401E4209D0226878
:100BC800526912F0800F04D0BB60636D43F00203DA
:100BD8006365E26D042393401E4209D022681268BF
:100BE80012F0020F04D0BB60636D43F00403636529
:100BF800E26D102393401E4224D02268126812F03E
:100C0800080F1FD0BB6023681A6812F4802F0DD01C
:100C18001B6813F4002F04D1236C9BB1204698471E
:100C280010E0A36C73B1204698470BE01A6812F4E1
:100C3800807F03D11A6822F008021A60236C0BB176
:100C480020469847E26D202393401E4255D02268E3
:100C5800126812F0100F50D0BB6094F83530DBB238
:100C6800052B0ED023681A6812F4802F33D01B6826
:100C780013F4002F2AD1636C002B3ED020469847EE
:100C88003BE02268136823F0160313602268536957
:100C980023F080035361236CA3B12268136823F007
:100CA80008031360E26D3F239340BB60002384F880
:100CB8003430012384F83530236D002B3FD0204693
:100CC80098473CE0A36C002BE7D1EBE7E36BA3B1BB
:100CD8002046984711E01A6812F4807F09D11A68F3
:100CE80022F010021A60002384F83430012384F8BB
:100CF8003530E36B0BB120469847636DFBB1636DEC
:100D080013F0010F17D0052384F8353022681368D3
:100D180023F001031360019B013301939D4204D327
:100D280023681B6813F0010FF5D1002384F83430D1
:100D3800012384F83530E36C0BB12046984703B0A3
:100D4800F0BD00BF28000020B5814E1B034690F877
:100D58003400012827D0012083F8340093F83500A7
:100D6800C0B2012804D00120002283F83420704743
:100D7800052916D8DFE801F00306090C0F12DA631B
:100D88000020F1E71A640020EEE75A640020EBE740
:100D98009A640020E8E7DA640020E5E71A65002095
:100DA800E2E70020E0E702207047034690F834208D
:100DB800012A30D0012280F8342090F83520D2B2B0
:100DC800012A04D00120002283F834207047062924
:100DD8001FD8DFE801F004070A0D101316000020E1
:100DE800D863F0E700201864EDE700205864EAE7CC
:100DF80000209864E7E70020D864E4E7002018653D
:100E0800E1E70020D863186458649864D8641865CA
:100E1800D9E70120D7E70220704790F835007047DE
:100E2800406D7047F0B583B000244BE04FEAD40E14
:100E38000EF1080E50F82E2004F00706B6000F2712
:100E4800B74022EA07020F6907FA06F6324340F86C
:100E58002E2046E0072600E0002606FA0EF632436A
:100E680002335E4E46F823205D4B1A68EB4302EAD4
:100E780003064F6817F4803F01D045EA0206584A36
:100E88001660526803EA02064F6817F4003F01D063
:100E980045EA0206524A5660926803EA02064F681B
:100EA80017F4801F01D045EA02064D4A9660D268C1
:100EB80013404E6816F4001F01D045EA0203484A61
:100EC800D36001340F2C00F286800123A3400A6806
:100ED80003EA0205AB42F4D14A68022AA6D0122AD4
:100EE800A4D006684FEA440E032202FA0EF2D24357
:100EF80016404F6807F0030707FA0EF73E430660EF
:100F08004E68771E012F03D9112E01D0122E0FD152
:100F180086681640CF6807FA0EF73E438660466833
:100F280026EA03034E68C6F30016A640334343601F
:100F3800C3681A408B6803FA0EF31A43C2604B6801
:100F480013F0805FBDD000230193264B5A6C42F406
:100F580080425A645B6C03F480430193019BA308AD
:100F68009E1C1E4A52F8262004F003064FEA860EFD
:100F78000F2606FA0EF622EA06021B4FB8423FF485
:100F88006BAF1A4EB0421AD006F58066B04218D040
:100F980006F58066B04216D006F58066B04214D0D9
:100FA80006F58066B04212D006F58066B04210D0D1
:100FB80006F58066B0423FF44DAF08264DE701269E
:100FC8004BE7022649E7032647E7042645E70526B7
:100FD80043E7062641E703B0F0BD00BF00380140F3
:100FE800003C01400038024000000240000402407A
:100FF80000230F2B00F28780F0B529E0072700E0D7
:10100800002707FA05F5AE4264D005685E000324A0
:10101800B440E44325400560DD08083550F82560F4
:1010280003F007074FEA870E0F2707FA0EF726EA9D
:10103800070640F82560856825408560456825EAEB
:1010480002024260C2681440C46001330F2B59D8B1
:1010580001229A4002EA0104A242F6D14FEA930E15
:101068000EF10206284D55F8266003F00305AD0081
:101078000F2707FA05FC06EA0C06244FB842BFD032
:1010880007F58067B84219D007F58067B84217D0CE
:1010980007F58067B84215D007F58067B84213D0C6
:1010A80007F58067B84211D007F58067B8420FD0BE
:1010B80007F58067B842A1D00827A2E70127A0E773
:1010C80002279EE703279CE704279AE7052798E766
:1010D800062796E70C4E0EF1020556F8257027EA0A
:1010E8000C0746F825700A4D2E68E44326402E600A
:1010F8006E6826406E60AE682640AE60EE6834408A
:10110800EC6082E7F0BD7047003801400000024003
:10111800003C01400369194201D1002070470120B9
:10112800704712B90904816170478161704743694A
:1011380031EA030301D08161704709048161704776
:1011480082B04FF480330193019B0B430193019BC1
:10115800C361C161019BC361C3690193C36913F48E
:10116800803F02D1012002B070470020FBE77047A2
:1011780008B5054B5B69034200D108BD024B5861B5
:10118800FFF7F5FFF9E700BF003C0140F8B5066836
:10119800346A04F00F07C4F34343C4F30A14022B60
:1011A8002ED16CB307EB8702D3000344596C39B3D3
:1011B80005462246304603F0E9FBBA003A44D3001C
:1011C8002B445A6C22445A64DA6C2244DA6406EBE3
:1011D8004713D3F810150B4A0A408AB1D3F80025F3
:1011E80022F0804242F00042C3F80025BB00D91922
:1011F800CA002A4492F8503083F0010382F8503034
:10120800F8BD00BF0000F81FF0B585B09DF8285064
:101218009DF82C60BDF8307090F8B842012C41D090
:10122800012480F8B8424FEA810E8E444FEACE047A
:1012380004444FF0000E84F83DE084F83830A4F8F8
:10124800407084F8391084F83F6002F07F0E84F80B
:101258003AE012F0800F1BD101EB810E4FEACE0469
:1012680004444FF0000E84F83BE0044601EB810E85
:101278004FEACE00204480F83C5002970196009532
:10128800206803F0AFFD002384F8B83205B0F0BD44
:1012980001EB810E4FEACE0404444FF0010E84F8AE
:1012A8003BE0E2E70220F1E790F8B832012B01D1E8
:1012B8000220704710B50446012380F8B832006850
:1012C80003F017FE002084F8B80210BD704700280C
:1012D80045D0F0B58BB00646046890F8B932002BBB
:1012E80038D0032386F8B932E36B13F4807F01D139
:1012F80000233361306802F061FF344654F810EB84
:101308006D460FCC0FC50FCC0FC594E8030085E8D8
:101318000300371D97E80E00704602F08DFE01218C
:10132800306802F051FF344654F810EB6D460FCC8C
:101338000FC50FCC0FC594E8030085E8030097E8B4
:101348000E00704603F0BFFC012386F8B932002076
:101358000BB0F0BD80F8B83205F0B8FCC1E7012049
:101368007047704768B110B50446032380F8B93256
:1013780005F0F8FC206802F021FF002084F8B9028B
:1013880010BD01207047F8B59DF81870BDF82060B1
:101398008D000D44EC00044484F83B2084F83F3071
:1013A8006FB901EB8105EC000444032584F8425031
:1013B800032B00F29680DFE803F00A8D2F5E01EB25
:1013C8008105EC000444022584F84250F0E7012F1F
:1013D80040F08780002A40F0848036B901EB810212
:1013E800D3000344012283F8512001EB8102D3008A
:1013F800034493F851303BB901EB8102D300034415
:10140800002283F842206CE001EB8102D300034400
:10141800022283F8422064E0B2B901EB8102D300D2
:10142800034493F851303BB901EB8102D3000344E4
:10143800002283F8422054E001EB8102D3000344E8
:10144800022283F842204CE001EB8102D3000344DE
:1014580093F850303BB901EB8102D30003440022DA
:1014680083F842203DE001EB8102D30003440222CD
:1014780083F8422035E0B2B901EB8102D30003447E
:1014880093F851303BB901EB8102D30003440022A9
:1014980083F8422025E001EB8102D30003440222B5
:1014A80083F842201DE001EB8102D300034493F846
:1014B80050303BB901EB8102D3000344002283F88A
:1014C80042200EE001EB8102D3000344022283F89C
:1014D800422006E001EB8102D3000344002283F896
:1014E80042208A005418E3000344079C5C649E640D
:1014F800002483F85C40DC6483F8391083F85D408D
:101508001144CB0003F13801027C0144006803F068
:1015180069FDF8BD7047704770477047704730B530
:1015280083B005460468D4F840340193D4F84034B5
:101538000093009B23F02E030093019B13F0020FEE
:1015480007D0019B13F0010F28D1009B43F0020341
:101558000093019B13F0080F13D0009B43F008037E
:101568000093019B13F0040F34D0AB69022B1CD0FD
:10157800EB68012B29D0284605F01FFC284605F00A
:101588000FFC019B13F0200F03D0009B43F02003B6
:101598000093009BC4F8403403B030BDA36923F026
:1015A8000053A36105F0FCFBCFE7019B03F4C023C4
:1015B800B3F5802F04D00121286803F023FBDAE774
:1015C8000221286803F01EFBD5E74EF66022C4F816
:1015D8000424D0E7284605F0F6FBD4F8403423F07D
:1015E8002E03C4F840342A68936943F0005393618A
:1015F800C7E77047F8B506460D46076807EB411779
:1016080007F5A064A36813F0040F3ED00423A36079
:10161800E36843F00203E360A36813F4007F6AD130
:10162800A36813F0010F00F0878033694BB1AA005B
:101638002A44D30033449A6C2169C1F31201521A27
:10164800DA64AA002A44D3003344012283F85D20D7
:1016580000219965A26093F83F30002B57D0022BE8
:1016680055D0032B5DD1D7F8003543F00053C7F8A8
:10167800003505EB8502D3003344012283F85C2052
:101688002946304605F098FB4BE0A36813F0200F7D
:1016980002D02023A360BFE7A36813F0080F17D177
:1016A800A36813F4806FB7D0E36843F00203E360E4
:1016B800006803F01EFC1023A36005EB8502D3002D
:1016C8003344082283F85D204FF48063A360A3E7C6
:1016D800E36843F00203E36001EB8102D3000344B3
:1016E800052283F85D201023A3600823A360006807
:1016F80003F0FFFB90E7E36843F00203E360294649
:10170800306803F0F6FB4FF40073A360F8BDE3689C
:1017180043F00203E3602946306803F0EAFB102334
:10172800A360AB005919CA00324492F8503083F0D4
:10173800010382F85030F8BDA36813F0020F62D09D
:10174800E36823F00203E36005EB8502D30033442A
:1017580093F85D30012B17D0052B29D0062B2FD0FD
:10176800082B2DD0032B16D105EB8502D30033446B
:10177800022283F85C20D7F8003523F0804343F039
:101788000043C7F8003506E005EB8502D300334473
:10179800012283F85C200223A36005EB8502D300B5
:1017A800334493F85C202946304605F005FBF8BD24
:1017B80005EB8502D3003344052283F85C20EAE771
:1017C800AA002A44D30033449A6D01329A65032A49
:1017D80011D9AA002A44D300334400229A6504226E
:1017E80083F85C20D7F8003523F0804343F00043AA
:1017F800C7F80035CFE705EB8502D3003344022252
:1018080083F85C20EEE7A36813F0800F19D1A36872
:1018180013F0100F14D005EB8502D300334493F86E
:101828003F30032B25D00BB1022B07D105EB8502E6
:10183800D300334400229A6533694BB31023A36065
:10184800F8BDE36843F00203E360AB005919CA002E
:101858003244916D013191652B44DA0032440623FC
:1018680082F85D302946306803F043FB8023A3608B
:10187800F8BD05EB8502D300334400229A65E3687E
:1018880043F00203E3602946306803F032FBD5E7F2
:1018980005EB8502D3003344032283F85D20E36817
:1018A80043F00203E3602946306803F022FBC5E7F2
:1018B800F8B5036803EB411303F5A064A26812F0BE
:1018C800040F11D10E460546A26812F0200F26D04B
:1018D8002023A36001EB8102D3001A46034493F846
:1018E8003D30012B07D0F8BD0423A360E36843F023
:1018F8000203E360F8BD8B000244002182F83D102A
:101908003344DA000244022382F85C30E36843F08F
:101918000203E3603146006803F0EBFAF8BDA26801
:1019280012F0400F34D1A26812F4007F4AD1A268A5
:1019380012F0010F51D1A26812F0080F62D1A2680B
:1019480012F0100F6FD08A000A44D300034400221B
:101958009A65032283F85D2093F83D306BB901EB5B
:101968008102D300034493F83C3033B901EB810280
:10197800D3000344012283F83D20E36843F00203C7
:10198800E3603146286803F0B4FA1023A360F8BD79
:101998008B005918CA000244042182F85D10012105
:1019A80082F83D103344DA00024400239365E3686B
:1019B80043F00203E3603146006803F09AFA4023DB
:1019C800A360F8BDE36843F00203E360006803F036
:1019D80090FA4FF40073A360F8BD8F007A18D30013
:1019E800034400229A65E36843F00203E360006859
:1019F80003F07FFA0123A360B919C800284480F8CE
:101A08005D30F8BD0823A360E36843F00203E36098
:101A1800006803F06EFA06EB8601C8002844052327
:101A280080F85D30F8BDA26812F0800F3AD1A26844
:101A380012F4806F47D1A26812F0020F3FF453AF3F
:101A4800E26822F00202E26001EB8101CA0011465D
:101A5800024492F85D20012A49D0032A68D0042A5A
:101A68006ED0052A74D0062A01D0082A4AD1B100BE
:101A78003144CA002A44916D0131916503296FD917
:101A8800B1003144CA002A4400219165042182F83A
:101A98005C10D3F8002522F0804242F00042C3F8DF
:101AA80000252FE0E36843F00203E360006803F0D9
:101AB80020FA06EB8601CB002B44062283F85D2032
:101AC8008023A360F8BDE36843F00203E360006885
:101AD80003F00FFA1023A3604FF48063A36006EBB2
:101AE8008601CB002B44082283F85D20F8BD0B4605
:101AF8000344012283F85C2093F83F30023BDBB2B9
:101B080093420CD90223A36006EB8602D3002B4430
:101B180093F85C203146284605F04EF9E3E60B467B
:101B2800034493F8512082F0010283F85120E9E739
:101B380006EB8602D3000344022283F85C20E1E727
:101B480006EB8602D3000344022283F85C20D9E71F
:101B580006EB8602D3000344052283F85C20D1E714
:101B680006EB8601CA002A44022182F85C1090E73D
:101B7800F8B504460568284602F0F5FF012800D0AC
:101B8800F8BD206802F0BCFF0028F9D0206802F0F8
:101B9800B7FF10F4001F03D023684FF400125A61F6
:101BA800206802F0ADFF10F4801F03D023684FF4C3
:101BB80080125A61206802F0A3FF10F0806F03D0F2
:101BC80023684FF080625A61206802F099FF10F094
:101BD800020F02D0236802225A61206802F090FFA7
:101BE80010F0005F28D1206802F08AFF10F0807F93
:101BF80034D1206802F084FF10F0080F32D1206839
:101C080002F07EFF10F0007F33D1206802F078FFE9
:101C180010F0100F53D00123002BB1D02268936924
:101C280023F0100393612046FFF7B0FA2268936906
:101C380043F010039361A3E7D5F8403423F02E0353
:101C4800C5F84034204605F0B1F80121206802F0BB
:101C5800D9FF23684FF000525A61C4E72046FFF7C6
:101C68005EFCC6E7204605F095F8236808225A610D
:101C7800C5E7206803F038F90746002604E0F1B20A
:101C88002046FFF715FE0136A3689E4212D206F0E1
:101C98000F0327FA03F313F0010FF4D005EB4613F3
:101CA800D3F8003513F4004FE9D0F1B22046FFF71E
:101CB800A1FCE8E723684FF000725A61A5E700230A
:101CC800AAE738B590F8B832012B01D1022038BD07
:101CD8000446012580F8B852006802F069FA2946DE
:101CE800206802F0CDFF002084F8B80238BD90F8D3
:101CF800B832012B01D10220704710B504460123E8
:101D080080F8B832006803F019FA002084F8B802A5
:101D180010BD08B5006802F094FF08BD90F8B9023C
:101D2800704701EB8101CB00184490F85C007047C4
:101D380001EB8101CB001844C06C704701EB8101B5
:101D4800CB00184490F85D00704708B5006803F0B0
:101D580044F808BD08B5006803F034F808BD00BFB2
:101D68002DE9F04105460F4616461C46FEF78AFA4D
:101D780080462B689B6837EA03030CBF01230023C6
:101D8800B34213D0B4F1FF3FF3D0FEF77BFAA0EBD8
:101D98000800844201D9002CEBD1012385F8413099
:101DA800002385F840300320BDE8F0810020BDE81D
:101DB800F0817047002800F0BF8070B5044690F8A5
:101DC8004130002B51D0022284F841202168CB6990
:101DD80023F47B6323F00F03CB6123681A626369E2
:101DE800934263D0E368002B46D11025A368202BCB
:101DF80000D86D00012001F0DBFF2369B3F5007FF7
:101E08003CD0B0FBF5F000EB800043006269B3FB07
:101E1800F2F30533494AA2FB0323DB0803F001026E
:101E28009B1A5B081202991EFD2941D82168206976
:101E3800024313430B622168CB6923F47B6323F0CD
:101E48000F036268A0680243E0680243A069024386
:101E5800134343F40063CB61236A012B2ED0002087
:101E68006064012384F8413070BD80F84030344B01
:101E7800436304F077FCA6E72025B7E7E36853B18E
:101E8800AD00B0FBF5F000EB800043006269B3FBE6
:101E9800F2F30533BEE7ED00B0FBF5F000EB800090
:101EA80043006269B3FBF2F30533B3E70022BAE7F4
:101EB800636C43F010036364012070BD214B6363BE
:101EC8002268214B9A422BD04FF04022D36923F449
:101ED8007B6323F00F03D36122681B4B9A4221D006
:101EE8004FF0402302221A622268174B9A421CD0F4
:101EF8004FF04021CA6992B26368B3F5007F16D0EB
:101F0800C3B94FF48070A568E668238B33439BB24E
:101F18002B439BB20343134343F40063CB619EE717
:101F28000A4AD3E7A3F58063DCE70849E2E74FF400
:101F38008070E8E70020E6E701207047CDCCCCCCE4
:101F4800AF2700086932000800380040003400401C
:101F5800704790B110B50446022380F841300268FA
:101F6800D36923F48063D36104F0CAFC0020606461
:101F780084F8410084F8400010BD01207047F0B596
:101F880083B0002900F09B800C46002A00F099805D
:101F980090F84010C9B2012900F09780012180F81B
:101FA800401090F84110C9B2012904D0002380F8EC
:101FB8004030022786E0032180F841100021416467
:101FC80044620168C96901F0070103293CD0052969
:101FD8003AD0028542850268D669D16911F4806FCA
:101FE80003D1D16941F48061D1611D4604460122C3
:101FF8000221FFF7B5FE074600282AD1638D9BB260
:10200800002B3CD02368626A1288DA60636A023364
:102018006362628D92B2013A92B262852B460122C6
:1020280002212046FFF79CFEF0B923689A6812F057
:10203800080FE3D0002201929B680193019B636C17
:1020480043F004036364D9E7520092B202854285E3
:10205800C1E7636C43F001036364012784F84170AE
:10206800002384F840302DE0636C43F0010363647F
:10207800012784F84170002384F8403022E016F4E8
:10208800407609D0B6F5807F06D0012384F8413028
:10209800002384F8403015E02B460022802120469A
:1020A800FFF75EFE0028F0D0636C43F00103636421
:1020B800012784F84170002384F8403002E00127AA
:1020C80000E00127384603B0F0BD0227FAE70029EF
:1020D80000F0818030B583B00C46002A7DD090F89E
:1020E8004010C9B201297BD0012180F8401090F836
:1020F8004110C9B2012904D0002380F840300220E1
:102108006CE0042180F8411000214164C462016838
:10211800C96901F0070103293ED005293CD0028690
:1021280042860268D16911F4806F03D1D16941F404
:102138008061D1611D4604460268D36903F4407387
:10214800B3F5407F2DD0628E92B2002A3CD02B4648
:10215800012211462046FFF703FE002829D1E36A31
:102168002268D2681A80E36A0233E362628E92B20E
:10217800013A92B2628623689A6812F0400FE2D060
:1021880000220192DA6801929B680193019B636CBB
:1021980043F002036364D6E7520092B20286428695
:1021A800BFE700230093D368009393680093009BD4
:1021B800C9E7636C43F001036364012084F84100BC
:1021C800002384F8403009E0012384F841300020DE
:1021D80084F8400002E001207047012003B030BDC0
:1021E8000220FBE700293CD010B4002A3BD090F82D
:1021F8004030DBB2012B39D0012380F8403090F811
:102208004130DBB2012B04D0002380F8403002209B
:102218002AE0032380F841300023436441620368C5
:10222800DB6903F00703032B16D0052B14D00285B6
:1022380042850268536843F0A00353600368DA6973
:1022480012F4806F03D1DA6942F48062DA61002304
:1022580080F84030184607E0520092B20285428565
:10226800E7E701207047012010BC70470220FBE718
:1022780000293CD010B4002A3BD090F84030DBB2A3
:10228800012B39D0012380F8403090F84130DBB27F
:10229800012B04D0002380F8403002202AE00423D8
:1022A80080F8413000234364C1620368DB6903F0AE
:1022B8000703032B16D0052B14D00286428602682A
:1022C800536843F0600353600368DA6912F4806F5F
:1022D80003D1DA6942F48062DA61002380F8403081
:1022E800184607E0520092B202864286E7E70120CC
:1022F8007047012010BC70470220FBE700295ED020
:1023080010B5002A5ED090F84030DBB2012B5CD0CB
:10231800012380F8403090F84130DBB2012B04D023
:10232800002380F8403002234DE0032380F8413039
:102338000023436441620368DB6903F00703032B4E
:102348002DD0052B2BD0028542850446836B204A6D
:102358001A64836B1F4ADA63836B1F4ADA64026864
:10236800038D9BB20C32416A806BFEF7D6FA0346A6
:10237800D0B92268D16911F4806F03D1D16941F4D1
:102388008061D1612268516811F0020F03D1516850
:1023980041F002015160002284F8402013E052000D
:1023A80092B202854285D0E7636C43F00803636408
:1023B800012384F84130002284F8402003E00123FF
:1023C800184670470123184610BD0223FBE700BFDB
:1023D800DB2600081F2700087F28000800296DD089
:1023E80010B582B0002A6CD090F84030DBB2012BD7
:1023F8006BD0012380F8403090F84130DBB2012BDC
:1024080004D0002380F8403002235BE0042380F8E6
:10241800413000234364C1620368DB6903F00703AA
:10242800032B33D0052B31D002864286C36B284A52
:102438001A64C36B274ADA63C36B274ADA640168F4
:10244800CB6903F44073B3F5407F24D00446038E70
:102458009BB2C26A0C31C06BFEF75FFA034610BB31
:102468002268D16911F4806F03D1D16941F4806188
:10247800D1612268516811F0010F03D1516841F010
:1024880001015160002284F840201BE0520092B202
:1024980002864286CAE700230193CB6801938B68C2
:1024A8000193019BD2E7636C43F008036364012343
:1024B80084F84130002284F8402003E001231846C4
:1024C80070470123184602B010BD0223FAE700BF87
:1024D80045270008892700087F28000890F8403021
:1024E800DBB2012B34D0012380F8403090F8413022
:1024F800DBB2032B0ED090F84130DBB2042B0FD0A7
:1025080090F84130DBB2052B10D0002380F8403022
:10251800184670470268536823F002035360F4E7D3
:102528000268536823F001035360EEE702685368BA
:1025380023F0030353600268064B9A4206D04FF01B
:102548004022536823F003035360DEE7024AF8E7AA
:1025580002207047003800400034004090F84030B6
:10256800DBB2012B4ED0012380F8403090F8413087
:10257800DBB2032B17D090F84130DBB2042B18D014
:1025880090F84130DBB2052B19D00368DA6912F4F0
:10259800806F03D1DA6942F48062DA61002380F83F
:1025A8004030184670470268536843F0020353608E
:1025B800EBE70268536843F001035360E5E70268FC
:1025C800536843F00303536002680F4B9A4214D0D8
:1025D8004FF04022536843F00303536002680A4BEC
:1025E8009A420CD04FF04023DA6912F4806FCCD1B4
:1025F800DA6942F48062DA61C7E7044AEAE7A3F5D8
:102608008063F1E702207047003800400034004042
:1026180038B504460268536823F002035360026821
:10262800536823F001035360806B08B3FEF7AFF9DA
:10263800054620B1636C43F0080363640125E06B31
:1026480038B1FEF7A4F920B1636C43F00803636462
:10265800012594F84130DBB2052B0BD02268D369F1
:1026680023F48063D361012384F84130284638BDC0
:102678000025E4E72268124B9A421AD04FF0402214
:10268800536823F00203536022680D4B9A4212D01C
:102698004FF04022536823F0010353602268084B2F
:1026A8009A420AD04FF04022D36923F48063D36161
:1026B800D4E7044AE4E7034AECE7024AF4E700BF38
:1026C800003800400034004008B5436B984708BD07
:1026D800704708B5806BFFF7FBFF08BD704708B56A
:1026E8000368426A1288DA60436A02334362438DA0
:1026F8009BB2013B9BB24385438D9BB203B108BD9E
:102708000268536823F0A0035360012380F8413026
:10271800FFF7E4FFF3E708B5836BC2694AB91968A4
:102728004A6822F002024A6000225A85012283F890
:1027380041201846FFF7D2FF08BD704708B5806BE7
:1027480003F012FF08BD704708B5C36A0268D26873
:102758001A80C36A0233C362438E9BB2013B9BB2A9
:102768004386438E9BB203B108BD0268536823F0C9
:1027780060035360012380F8413003F0F6FEF3E76D
:1027880008B5836BC2694AB919684A6822F0010220
:102798004A6000225A86012283F84120184603F035
:1027A800E4FE08BD704710B584B00446026893681B
:1027B800039390F84130DBB2042B06D094F84130F3
:1027C800DBB2032B2CD004B010BD039B13F0010F18
:1027D80003D0536813F0400F1FD1039B13F0400F31
:1027E800ECD023685A6812F0200FE7D05A6822F01C
:1027F80060025A60002301932368DA6801929B689B
:102808000193019B012384F84130636C43F0020378
:1028180063642046FFF7C6FFD0E7FFF795FFDCE7C4
:10282800039B13F0020F04D023685B6813F0800F3A
:102838001DD1039B13F0080FC5D023685A6812F006
:10284800200FC0D05A6822F0A0025A6000230293D9
:1028580023689B680293029B012384F84130636CD0
:1028680043F0040363642046FFF79CFFABE7204670
:10287800FFF735FFDDE708B5806B0268536823F082
:1028880003035360002343854386012380F84130C6
:10289800436C43F008034364FFF784FF08BD90F8D6
:1028A80041007047406C70472DE9F84305460E46D5
:1028B80017461C469DF82090FDF7E4FC8046B9F1C8
:1028C800000F16D038E02CB1FDF7DCFCA0EB0800B7
:1028D80084420ED2012385F84130002385F8403028
:1028E8000320BDE8F8830123BB4209D0B4F1FF3FC0
:1028F800E9D12B689B6836EA0303F4D00023F3E799
:102908000020BDE8F8832CB1FDF7BCFCA0EB080063
:10291800844211D2012385F84130002385F84030E4
:102928000320BDE8F883A3F580630BE00123BB42D5
:102938000ED0B4F1FF3FE6D12A68074B9A42F2D095
:102948004FF040239B6836EA0303EFD00023EEE7FD
:102958000020BDE8F88300BF0038004008B5806B50
:102968000268536823F00303536002680B4B9A42D2
:1029780012D04FF04022536823F003035360002322
:1029880043854386012380F84130436C43F00803B4
:102998004364FFF707FF08BD014AECE70038004031
:1029A80000340040F0B589B00446154690F841203F
:1029B800D2B2012A08D00220012384F84130002332
:1029C80084F8403009B0F0BD002900F08F81002D57
:1029D80000F08E81002B00F08D8190F84020D2B25B
:1029E800012A00F08981012280F840200268D2691A
:1029F80002F00702032A3FD0052A3DD0038543850C
:102A08000386438600236364052384F841302368E2
:102A1800DF6907F44077B7F5007F02D0002F40F058
:102A2800B4808E1C0A88DA60638D9BB2013B9BB22E
:102A380063852268944B9A4225D04FF04022D3698F
:102A480043F48063D3612268D36943F48063D3611C
:102A58002268D36903F44073B3F5007F1FD10023C4
:102A68000293894B9A4210D04FF04023DA680292C1
:102A78009B680293029B12E05B009BB223856385EF
:102A880023866386BEE7814AD9E7A3F58063EDE72D
:102A9800638D9BB28BB9638E9BB2002B3AD1638E48
:102AA8009BB2002BF4D1638D9BB2002BF0D1636CE9
:102AB800002B40F0198100207EE7002300930E9B35
:102AC800012202212046FFF7EFFEC8B92368B11C96
:102AD8003288DA60638D9BB2013B9BB263852368C1
:102AE8009A6812F0080F11D097B9002203929B68D8
:102AF8000393039B636C43F0040363640E46CAE7C5
:102B0800636C43F001036364012055E70E46C2E796
:102B18000E46C0E7012100910E9B0A462046FFF7AA
:102B2800C3FE20BBAA1C2168574B994225D04FF001
:102B38004023DB682B80638E9BB2013B9BB263868C
:102B4800236851498B421BD04FF04021896811F00E
:102B5800400F18D000210491D96804919B68049310
:102B6800049B636C43F002036364154697E7636C48
:102B780043F00103636401201EE7A3F58063D8E7EF
:102B8800A1F58061E2E7154689E73F4A934227D0DD
:102B98004FF040228E1C0B88D360638D9BB2013BA3
:102BA8009BB263852268384B9A421CD04FF0402272
:102BB800D36943F48063D3612268D36943F48063A3
:102BC800D3612268D36903F44073B3F5407F13D10E
:102BD80000230593D368059393680593059B0BE041
:102BE800A2F58062D6E7294AE2E7638D9BB263B912
:102BF800638E9BB2002B4BD1638E9BB2002BF4D11A
:102C0800638D9BB2002BF0D151E7012200920E9BFD
:102C180002212046FFF748FEE0B922681A4B9A4283
:102C28001ED04FF04023B21C3188D960638D9BB20F
:102C3800013B9BB26385236813498B4213D04FF045
:102C48004021896811F0080F1BD0B7F5807F0DD09F
:102C58001646CDE7636C43F0010363640120ABE6DD
:102C6800A3F58063DFE7A1F58061EAE7002106911B
:102C78009B680693069B636C43F0040363641646E3
:102C8800B6E71646B4E700BF0038004000340040FD
:102C9800002300930E9B012211462046FFF704FEF5
:102CA800D0B9AA1C2368DB682B80638E9BB2013BDA
:102CB8009BB263862368996811F0400F12D00021F7
:102CC8000791D96807919B680793079B636C43F04A
:102CD8000203636415468FE7636C43F00103636482
:102CE800012069E6154687E7012065E6012069E6C7
:102CF800012067E6012065E6022063E610B490F83B
:102D08004140E4B2012C06D00223002280F8402082
:102D1800184610BC7047002900F09A80002A00F07D
:102D28009980002B00F0988090F84040E4B2012C84
:102D380000F09480012480F840404162C262026839
:102D4800D26902F00702032A43D0052A41D003853D
:102D580043850386438600234364052380F8413076
:102D68004368B3F5007F01D0002B3BD102683C4B90
:102D78009A4235D04FF04022536843F060035360C5
:102D88000268536843F0A00353600268436A991CC1
:102D980041621B88D360438D9BB2013B9BB2438544
:102DA800438D9BB223B90268536823F0A003536094
:102DB80002682B4B9A4249D04FF04022D36943F422
:102DC8008063D3610268D36943F48063D3610023CD
:102DD8009BE75B009BB20385438503864386BAE77E
:102DE800204AC9E702681E4B9A4229D04FF0402278
:102DF800536843F0A00353600268536843F06003CC
:102E080053600268164B9A421CD04FF04022436A26
:102E1800991C41621B88D360438D9BB2013B9BB2D6
:102E28004385438D9BB2002BC2D102680C4B9A425A
:102E38000AD04FF04022536823F0A0035360B7E74D
:102E4800084AD5E7074AE2E7064AF4E7054AB5E73C
:102E580001235DE701235BE7012359E7022357E7D5
:102E6800003800400034004070B582B00446164671
:102E780090F84120D2B2012A05D00220002384F81C
:102E8800403002B070BD0D46002900F0D180002E00
:102E980000F0D080002B00F0CF8090F84020D2B214
:102EA800012A00F0CB80012280F840206162C662CE
:102EB8000268D26902F00702032A5AD0052A58D0BC
:102EC800038543850386438600236364052384F8CA
:102ED8004130E36B5A491964E36B5A4ADA63E06B91
:102EE800594BC364A06B0164A16BCA63A26BD36422
:102EF8002268D36903F44073B3F5007F01D0002B37
:102F080045D1E06B514B9A423AD04FF04021238E85
:102F18009BB232460C31FDF700FD22684B4B9A42BA
:102F280030D04FF04022536843F0010353602268C9
:102F3800238D9BB20C322946A06BFDF7EEFC22686C
:102F4800536843F0020353602368DA6912F4806F10
:102F58006AD13E4A934217D04FF04022D36943F4D6
:102F68008063D3612268D36943F48063D36100200E
:102F780084E75B009BB22385638523866386A3E78A
:102F88003349C4E7324ACEE7A2F58062E6E7D3695F
:102F980003F44073B3F5407F37D0A06B2B4B9A42B4
:102FA8003BD04FF04022238D9BB20C322946FDF7CF
:102FB800B4FC2268254B9A4231D04FF04022536826
:102FC80043F0020353602168238E9BB232460C31D2
:102FD800E06BFDF7A2FC2268536843F001035360DD
:102FE8002368DA6912F4806F20D1184A934218D006
:102FF8004FF04022D36943F48063D3612268D369D8
:1030080043F48063D361002038E700230193D36839
:10301800019393680193019BBFE70D4AC3E70C4AEC
:10302800CDE7A2F58062E5E7002027E7002025E745
:10303800012026E7012024E7012022E7022020E7DB
:103048005F3000086B300008652900080038004030
:1030580000340040704708B5806BFFF7FBFF08BDE0
:10306800704738B5856BC36933B90446EB6B984232
:1030780003D0AB6B9C4229D038BD2B68DA6902F4C7
:103088004072B2F5007F03D0DA6912F4407F18D19C
:10309800234A934212D04FF04022536823F0010391
:1030A800536000236B866B8D9BB2002BE1D101230B
:1030B80085F841302846FFF7D3FFDAE7A2F58062AA
:1030C800EBE75A6822F001025A60EAE72B68DA69EE
:1030D80002F44072B2F5007F03D0DA6912F4407F3F
:1030E80010D15A6822F002025A6000236B856B8E59
:1030F8009BB2002BC0D1012385F841302846FFF749
:10310800AFFFB9E7064A934206D04FF04022536812
:1031180023F002035360E8E7A2F58062F7E700BFF7
:103128000038004008B50268436A991C41621B8850
:10313800D360438D9BB2013B9BB24385438D9BB2C9
:103148003BB90268536823F0A0035360438E9BB2D7
:1031580003B108BD012380F84130FFF781FFF8E78C
:1031680008B5C36A9A1CC2620168144A914219D010
:103178004FF04022D2681A80438E9BB2013B9BB22B
:103188004386438E9BB263B902680C4B9A420CD0BB
:103198004FF04022536823F060035360438D9BB285
:1031A8002BB108BDA2F58062E4E7054AF2E70123E6
:1031B80080F84130FFF754FFF3E700BF00380040C4
:1031C8000034004008B50268144B9A421CD04FF0F6
:1031D8004022436A991C41621B88D360438D9BB28D
:1031E800013B9BB24385438D9BB263B902680B4B8D
:1031F8009A420BD04FF04022536823F0A00353604B
:10320800438E9BB223B108BD054AE2E7044AF3E7BF
:10321800012380F84130FFF723FFF4E7003800402E
:103228000034004008B5C36A9A1CC2620268D268BA
:103238001A80438E9BB2013B9BB24386438E9BB25E
:103248003BB90268536823F060035360438D9BB217
:1032580003B108BD012380F84130FFF701FFF8E70B
:1032680010B586B0044603689A680592704A93427E
:103278006FD04FF04022916804915B6803935368C4
:1032880002936368B3F5007F01D0002B70D1059BD2
:1032980013F0020F03D0039B13F0800F5CD1049B43
:1032A80013F0010F03D0029B13F0400F58D1049B79
:1032B80013F0400F24D0029B13F0200F20D0226877
:1032C8005B4B9A4250D04FF04022536823F0600382
:1032D80053602268536823F0A003536000230093CF
:1032E8002368DA6800929B680093009B012384F8A6
:1032F8004130636C43F0020363642046FFF752FADF
:10330800059B13F0080F22D0039B13F0200F1ED04B
:103318002268536823F0A00353602268444B9A4202
:1033280024D04FF04022536823F0600353600023F9
:10333800019323689B680193019B012384F8413022
:10334800636C43F0040363642046FFF72BFA06B06E
:1033580010BDA2F580628EE72046FFF7E3FE9EE7E8
:103368002046FFF7FDFEA2E7324AAEE7314ADAE728
:10337800049B13F0020F03D0029B13F0800F4AD175
:10338800059B13F0010F03D0039B13F0400F46D1A8
:10339800059B13F0400F1CD0039B13F0200F18D08F
:1033A8002268536823F0600353602268204B9A42D6
:1033B80039D04FF04022536823F0A0035360012313
:1033C80084F84130636C43F0020363642046FFF7DE
:1033D800E9F9049B13F0080FB9D0029B13F0200FF2
:1033E800B5D02268124B9A421FD04FF04022536842
:1033F80023F0A00353602268536823F060035360EE
:10340800012384F84130636C43F00403636420466D
:10341800FFF7C8F99BE72046FFF7D4FEB0E7204640
:10342800FFF700FFB4E7034AC5E7024ADFE700BF3A
:10343800003800400034004000207047002800F0A9
:10344800BB8170B582B00446036813F0010F3BD00E
:10345800A74B9B6803F00C03042B2CD0A44B9B6850
:1034680003F00C03082B21D06368B3F5803F4FD0DD
:10347800B3F5A02F52D09E4B1A6822F480321A60FE
:103488001A6822F480221A606368002B50D0FCF777
:10349800F9FE0546964B1B6813F4003F14D1FCF760
:1034A800F1FE401B6428F5D903208AE1904B5B6844
:1034B80013F4800FD8D08E4B1B6813F4003F03D051
:1034C8006368002B00F07A81236813F0020F55D04F
:1034D800874B9B6813F00C0F3ED0854B9B6803F01D
:1034E8000C03082B33D0E368002B68D00122814BF2
:1034F8001A60FCF7C7FE05467D4B1B6813F0020FE8
:1035080054D1FCF7BFFE401B0228F5D9032058E12F
:10351800774A136843F480331360B5E7744B1A682D
:1035280042F480221A601A6842F480321A60ABE7CB
:10353800FCF7A8FE05466E4B1B6813F4003FC3D08A
:10354800FCF7A0FE401B6428F5D9032039E1684B3D
:103558005B6813F4800FC6D1654B1B6813F0020F2C
:1035680004D0E368012B01D001202AE1604A1368E6
:1035780023F0F803216943EAC1031360236813F0B9
:10358800080F40D0636963B301225B4B1A60FCF7F4
:1035980079FE0546564B5B6F13F0020F33D1FCF7EB
:1035A80071FE401B0228F5D903200AE1504A13682E
:1035B80023F0F803216943EAC1031360DEE7002220
:1035C8004C4B1A60FCF75EFE0546494B1B6813F02E
:1035D800020FD3D0FCF756FE401B0228F5D9032072
:1035E800EFE00022444B1A60FCF74CFE0546404BC6
:1035F8005B6F13F0020F06D0FCF744FE401B022855
:10360800F5D90320DDE0236813F0040F79D0384B97
:103618001B6C13F0805F33D100230193344B1A6C79
:1036280042F080521A641B6C03F080530193019B93
:103638000125324B1B6813F4807F23D0A368012B2C
:1036480034D0052B38D02A4B1A6F22F001021A67A2
:103658001A6F22F004021A67A368002B36D0FCF711
:1036680011FE0646224B1B6F13F0020F48D1FCF7E0
:1036780009FE801B41F288339842F3D90320A0E069
:103688000025D6E71D4A136843F480731360FCF7DE
:10369800F9FD0646194B1B6813F4807FCED1FCF761
:1036A800F1FD801B0228F5D903208AE0104A136F28
:1036B80043F001031367CFE70D4B1A6F42F0040282
:1036C8001A671A6F42F001021A67C5E7FCF7DAFDBC
:1036D8000646074B1B6F13F0020F11D0FCF7D2FD03
:1036E800801B41F288339842F3D9032069E000BF78
:1036F8000038024000004742800E474200700040F8
:10370800E5B9A369002B5BD0304A926802F00C023D
:10371800082A58D0022B17D000222D4B1A60FCF72C
:10372800B1FD0446294B1B6813F0007F42D0FCF71B
:10373800A9FD001B0228F5D9032042E0234A136C97
:1037480023F080531364DCE70022214B1A60FCF756
:1037580099FD05461D4B1B6813F0007F06D0FCF74A
:1037680091FD401B0228F5D903202AE0E369226A6B
:103778001343626A43EA8213A26A5208013A43EA8F
:103788000243E26A43EA0263104A53600122104B83
:103798001A60FCF777FD04460C4B1B6813F0007F9A
:1037A80006D1FCF76FFD001B0228F5D9032008E0BD
:1037B800002006E0002004E001207047012000E01E
:1037C800002002B070BD0120FBE700BF00380240B6
:1037D8006000474270B588B00C46164608B300230F
:1037E8000293204D2A6B42F004022A632A6B02F0EE
:1037F80004020292029A4FF4007203920222049287
:10380800032206920593079303A91748FDF70AFBBD
:10381800AB6823F0784344EAC6041C43AC6008B0A4
:1038280070BD002301930F4D2A6B42F001022A63F9
:103838002A6B02F001020192019A4FF480720392FE
:1038480002220492032206920593079303A90748CC
:10385800FDF7E8FAAB6823F0EC6334431C43AC6033
:10386800DDE700BF003802400008024000000240C7
:103878000122014B1A6070474C0047420022014B5D
:103888001A6070474C004742F8B5314B9B6803F00B
:103898000C03042B59D0082B01D02E48F8BD2C4B13
:1038A8005A6802F03F025B6813F4800F2AD0284B55
:1038B8005B68C3F388131E4600275C010025E41AE1
:1038C80065EB0705A90141EA9461A001001B61EBC2
:1038D8000501CB0043EA5073C400A01943EB07016C
:1038E8004B0243EAD053440220461946002303F012
:1038F80059FB174B5B68C3F3014301335B00B0FB13
:10390800F3F0F8BD124B5B68C3F388131E4600271B
:103918005C010025E41A65EB0705A90141EA9461F9
:10392800A001001B61EB0501CB0043EA5073C40002
:10393800A01943EB07018B0243EA90538402204607
:103948001946002303F02EFBD3E70348F8BD00BF58
:10395800003802400024F40000127A00002800F029
:103968009D8070B504464F4B1B6803F00F038B42D4
:1039780009D2CBB24B4A1370136803F00F03994274
:1039880001D0012070BD236813F0020F17D013F087
:10399800040F04D0444A936843F4E05393602368C7
:1039A80013F0080F04D0404A936843F460439360CF
:1039B8003D4A936823F0F003A068034393600D46E3
:1039C800236813F0010F32D06368012B21D09A1EAF
:1039D800012A25D9344A126812F0020F60D0324900
:1039E8008A6822F0030213438B60FCF74BFC0646FF
:1039F8002D4B9B6803F00C036268B3EB820F16D063
:103A0800FCF740FC801B41F288339842F0D9032030
:103A180070BD254A126812F4003FE0D1012070BD44
:103A2800214A126812F0007FD9D1012070BD1D4BC8
:103A38001B6803F00F039D4209D2EAB2194B1A70B2
:103A48001B6803F00F039D4201D0012070BD23685D
:103A580013F0040F06D0144A936823F4E053E16886
:103A68000B439360236813F0080F07D00E4A93683E
:103A780023F46043216943EAC1039360FFF704FF1D
:103A8800094B9B68C3F30313084AD35CD840084B1F
:103A980018600020FCF7ACFB002070BD01207047C7
:103AA800012070BD003C024000380240307500081B
:103AB80028000020014B1868704700BF280000202C
:103AC80008B5FFF7F7FF044B9B68C3F38223034A4B
:103AD800D35CD84008BD00BF0038024040750008DC
:103AE80008B5FFF7E7FF044B9B68C3F34233034A6B
:103AF800D35CD84008BD00BF0038024040750008BC
:103B08000F230360304B1B6813F4802F3CD04FF415
:103B1800A02343602C4B1B6813F0010F40D00123F6
:103B2800C360294A1368C3F3C4030361136F13F016
:103B3800040F38D005238360234B5B6F13F0010F0C
:103B48003CD001234361204B1B6813F0807F38D1A0
:103B5800012383611C4A536803F48003C3615368DB
:103B680003F03F0303625368C3F388134362536847
:103B780003F4403303F580335B001B0C8362536806
:103B8800C3F30363C36270470F4B1B6813F4803F92
:103B980003D04FF480334360BCE700234360B9E7A8
:103BA8000023C360BDE7084B1B6F13F0010F02D061
:103BB80001238360C0E700238360BDE700234361DE
:103BC800C1E702238361C5E7003802400F23036081
:103BD8000B4B9A6802F0030242609A6802F0F00206
:103BE80082609A6802F4E052C2609B68DB0803F4C2
:103BF800E0530361034B1B6803F00F030B6070472E
:103C080000380240003C0240704708B5054BDB68AD
:103C180013F0800F00D108BDFFF7F6FF8022024B9A
:103C28001A70F8E7003802400E38024030B583B009
:103C38000546036813F0050F06D12B6813F0020F31
:103C48002ED1002003B030BD0022494B1A60FCF78A
:103C580019FB0446474B1B6813F0006F06D0FCF7AE
:103C680011FB001B0228F5D90320EBE76A68AB6853
:103C78001B0743EA82133F4AC2F8843001223C4BB7
:103C88001A60FCF7FFFA04463A4B1B6813F0006F02
:103C9800D3D1FCF7F7FA001B0228F5D90320D1E7A6
:103CA80000230193334B1A6C42F080521A641B6C48
:103CB80003F080530193019B2F4A136843F48073E8
:103CC8001360FCF7DFFA04462B4B1B6813F4807F64
:103CD80006D1FCF7D7FA001B0228F5D90320B1E773
:103CE800244B1B6F13F4407312D0EA6802F440723D
:103CF80093420DD01F4B1A6F22F440721F490120C6
:103D08000860002008601A671B6F13F0010F13D1B9
:103D1800EB6803F44072B2F5407F1ED0154A9368F1
:103D280023F4F813936013490B6FEA68C2F30B028C
:103D380013430B67002085E7FCF7A4FA04460D4BF4
:103D48001B6F13F0020FE3D1FCF79CFA001B41F242
:103D580088339842F3D9032074E706498A6822F425
:103D6800F81223F0704323F4407313438B60DAE7AF
:103D7800680047420038024000700040400E474249
:103D880003230360094AD2F88430C3F388134360DD
:103D9800D2F88430C3F302738360936803F4F81392
:103DA800126F02F440721343C36070470038024038
:103DB80001282AD1174B9B6813F4000303D0012B69
:103DC80025D115487047134B5B6813F4800F14D046
:103DD800104B5B6803F03F031048B0FBF3F30D4A48
:103DE800D2F88400C0F3881000FB03F0D2F88430C6
:103DF800C3F30273B0FBF3F07047064B5B6803F044
:103E08003F030748B0FBF3F3E9E7002070470020C1
:103E1800704700BF003802400080BB0000127A00E3
:103E28000024F40038B505460022164B1A60FCF74A
:103E380029FA0446144B1B6813F0006F06D0FCF7F0
:103E480021FA001B0228F5D9032038BD2A686B68BF
:103E58001B0743EA82130C4AC2F884300122094B3B
:103E68001A60FCF70FFA0446074B1B6813F0006F43
:103E780006D1FCF707FA001B0228F5D9032038BD44
:103E8800002038BD680047420038024010B50022C3
:103E9800094B1A60FCF7F6F90446084B1B6813F047
:103EA800006F06D0FCF7EEF9001B0228F5D90320B5
:103EB80010BD002010BD00BF680047420038024016
:103EC80038B5FCF7DFF90446474A136843F00103A5
:103ED8001360454B1B6813F0020F07D1FCF7D2F9AA
:103EE800001B0228F5D90323184638BD3E4D2B6820
:103EF80043F080032B60FCF7C5F904460023AB6050
:103F0800394B9B6813F00C0F08D0FCF7BBF9001B6A
:103F180041F288339842F3D90323E5E7FCF7B2F975
:103F28000446314A136823F4502313602E4B1B6850
:103F380013F4003F06D0FCF7A5F9001B6428F5D957
:103F48000323D1E7FCF79EF90446274A136823F0B8
:103F580080731360244B1B6813F0007F06D0FCF7B6
:103F680091F9001B0228F5D90323BDE7FCF78AF96C
:103F780004461D4A136823F0806313601A4B1B68BC
:103F880013F0006F06D0FCF77DF9001B0228F5D965
:103F98000323A9E7144B154A5A60154AC3F884202D
:103FA800DA6822F4F852DA60DA6822F40052DA6049
:103FB800DA6842F41F02DA60DA6842F40012DA6062
:103FC8005A6F22F001025A675A6F42F080725A679C
:103FD800084A094B1A600020FCF70AF90346002832
:103FE80082D0012380E700BF00380240103000046F
:103FF800003000200024F4002800002000230133B2
:104008000C4A934211D80269002AF8DA036943F08E
:104018000103036100230133064A934207D802696A
:1040280012F0010FF7D100207047032070470320DA
:10403800704700BF400D030084B010B5044603A8C4
:1040480080E80E00089B012B0DD0E36843F0400385
:10405800E3602046FFF7D2FF0C9B23BBA36B43F41E
:104068008033A36313E0A36B23F48033A363E36873
:1040780023F4840323F04003E360E36823F440134C
:10408800E3600F9B012B09D02046FFF7B7FF069B83
:10409800012B0DD0BDE8104004B07047E36843F42D
:1040A8008013E360F0E7A36B23F48033A363EEE7A8
:1040B800A36843F00603A360A36843F02003A3604A
:1040C800E8E7022A0AD00921C26822F47052C260C5
:1040D800C36843EA8123C360002070472A4B0B441E
:1040E8002A4A93423FD92A4B0B442A4A93423CD945
:1040F800A1F57403A3F51053274A934237D9A1F1C8
:104108008373A3F5E74302F5C332A032934230D953
:10411800224B0B44224A93422DD9224B0B4402F5E1
:10412800922202F57872934227D91F4B0B4402F56D
:10413800C32202F52072934221D9A1F1B773A3F5E6
:10414800585302F5B71202F55872934219D9174B12
:104158000B4402F5122202F5F862934201D90621B6
:10416800B2E70721B0E70F21AEE70E21ACE70D213A
:10417800AAE70C21A8E70B21A6E70A21A4E7092151
:10418800A2E70821A0E700BF405327FFFF340C0037
:10419800401E1BFF3F420F007F4F120060B6E5FE36
:1041A8005FE3160000D3CEFEC05BB3FEE05459FEB9
:1041B800836843F00103836000207047836823F01D
:1041C800010383600020704708B5C36823F0C0432B
:1041D800C360012909D069B9C36843F08043C3604B
:1041E8003220FCF771F8002008BDC36843F0005383
:1041F800C360F5E7012008BD890141F02001016194
:1042080000230133054A934205D8026912F0200FB2
:10421800F7D1002070470320704700BF400D03000E
:104228001023036100230133054A934205D802692C
:1042380012F0100FF7D1002070470320704700BF1D
:10424800400D0300D0F800381943C0F800180020CA
:10425800704784B02DE9F041044607A880E80E00B5
:104268002546002306E003F1400204EB8202002108
:10427800516001330E2BF6D9119B73BBA36B43F42A
:104288000013A363A36B23F40023A363A36B23F49A
:104298008023A3630023C4F8003E04F50066D4F825
:1042A8000038C4F800380C9B012B1FD0032120468E
:1042B800FFF7C8FF10212046FFF79EFF804608B190
:1042C8004FF001082046FFF7ABFF08B14FF0010897
:1042D800002333617361F3611FE0236823F4001343
:1042E8002360A36B43F40023A363D3E7099B23B99B
:1042F80000212046FFF7A6FFDCE701212046FFF753
:10430800A1FFD7E7C3B94FF00060C2F80009002247
:104318000A614FF67F328A60013307998B4210D2C7
:1043280005EB431202F51061D2F800090028E9DB19
:104338000020C2F80009EAE74FF09040C2F80009EF
:10434800E5E700230AE0BBB14FF09047C2F8007BD5
:10435800002202614FF67F32826001338B4210D215
:1043680005EB431202F53060D2F8007B002FEADB40
:104378000027C2F8007BEBE74FF00067C2F8007B2C
:10438800E6E7336923F4807333610A9B012B1BD062
:104398000022A2616FF0804262611BB9A36943F0F9
:1043A8001003A361A269104B1343A3610D9B1BB1BA
:1043B800A36943F00803A361119B012B0DD040466C
:1043C800BDE8F04104B07047084A3263326B42F4EA
:1043D800803242F003023263DAE7A36943F0804394
:1043E80043F00403A361EAE700383C800001800041
:1043F800D0F8083813F0060307D0022B07D0062B95
:1044080001D00F207047022070470020704702201B
:10441800704770B40B784A78012A22D0D0F81C284B
:1044280003F00F060124B44042EA0442C0F81C28F5
:1044380000EB4310D0F8003B13F4004F0ED1D0F836
:10444800003B8A68C2F30A02C97842EA81421343F0
:1044580043F0805343F40043C0F8003B002070BC95
:104468007047D0F81C4803F00F06B24092B22243BE
:10447800C0F81C2800EB4310D0F8002912F4004FB4
:10448800ECD1D0F800298C68C4F30A04C97844EA4E
:10449800814444EA8353134343F0805343F4004375
:1044A800C0F80039DAE770B40A784B78012B23D0CA
:1044B80000EB4214D4F8003B13F4004F0ED1D4F8AB
:1044C800005B8B68C3F30A03CE7843EA864343EA6A
:1044D80082532B4343F40043C4F8003BD0F83C38E4
:1044E8000A7802F00F0101228A4043EA0243C0F829
:1044F8003C38002070BC704700EB4215D5F80039F5
:1045080013F4004F10D1D5F800398C68C4F30A04AD
:10451800CE7844EA864444EA8252134343F08053F7
:1045280043F40043C5F80039D0F83C280B7803F071
:104538000F0101238B409BB21343C0F83C38D8E7E6
:1045480070B40C784B78012B1FD0D0F83C5804F08D
:104558000F06012202FA06F625EA0645C0F83C587D
:10456800D0F81C58097801F00F018A4025EA024268
:10457800C0F81C2800EB4410D0F8002B124B134055
:10458800C0F8003B002070BC7047D0F83C6804F0CD
:104598000F0203FA02F292B226EA0202C0F83C289D
:1045A800D0F81C28097801F00F018B409BB222EA51
:1045B8000303C0F81C3800EB4410D0F80029034B63
:1045C8001340C0F80039DDE70078F3EF007833ECEA
:1045D8000B784A78012A14D000EB4313D3F8002B48
:1045E80022F40042C3F8002BD0F81C380A7802F0F5
:1045F8000F0101228A4023EA0243C0F81C38002038
:10460800704700EB4313D3F8002922F40042C3F8A3
:104618000029D0F81C280B7803F00F0101238B40E8
:104628009BB222EA0303C0F81C38E8E770B40B78A1
:104638004C78012C26D000EB431000F530631C6940
:10464800E40CE4041C611C6924F0FF5424F4C01435
:104658001C614C690CB18C684C611C6944F40024E1
:104668001C611C698D68C5F312052C431C61012A65
:1046780065D0D0F8003B43F00443C0F8003B00206D
:1046880070BC70474C696CBB00EB4314D4F81059EC
:1046980025F0FF5525F4C015C4F81059D4F8105961
:1046A80045F40025C4F81059D4F81059ED0CED0460
:1046B800C4F81059012A33D000EB4313D3F800296A
:1046C80042F00442C3F800294B69002BD7D0D0F838
:1046D8003428097801F00F040121A1400A43C0F8E9
:1046E8003428CCE700EB431404F510642569ED0C7D
:1046F800ED042561256925F0FF5525F4C0152561D0
:104708004E698D68AE4200D94D61256945F4002592
:10471800256125694E69C6F3120635432561C9E747
:104728000A691AB100EB4311C1F8142900EB4310D0
:10473800D0F8002942F00442C0F800299FE7CA686F
:10474800002A96D05A6194E770B49DF80C4064B979
:1047580003339E0807E000EB023303F5805351F85A
:10476800045B1D600134B442F5D3002070BC70476F
:10477800F0B583B00C784B78012B2BD000EB4414A8
:1047880004F530631D69ED0CED041D611D6925F00C
:10479800FF5525F4C0151D614D69002D40F0C580F9
:1047A8001D698E68C6F3120635431D611D6945F4FF
:1047B80000251D61012A00F0CD80CB78012B00F087
:1047C800CF80D4F8003B43F00443C4F8003B0020FA
:1047D80003B0F0BD4B6983BB00EB4413D3F8105909
:1047E80025F0FF5525F4C015C3F81059D3F8105912
:1047F80045F40025C3F81059D3F81059ED0CED0411
:10480800C3F81059012A4CD000EB4414D4F80039ED
:1048180043F00443C4F80039CB78012B6AD04B69C4
:10482800002BD4D0D0F834380A7802F00F010122D6
:104838008A401343C0F83438C9E700EB4413D3F86F
:104848001059ED0CED04C3F81059D3F8105925F0A0
:10485800FF5525F4C015C3F81059D3F810694D69F0
:104868008F683D44013DB5FBF7F5474F07EAC5455D
:104878003543C3F81059D3F810594E69C6F31206D8
:104888003543C3F8105903F51063CD78012DB9D11C
:104898001D6925F0C0451D611D6945F000551D6164
:1048A800B0E70B691BB100EB4412C2F81439CB789E
:1048B800012B08D000EB4414D4F8003943F004432A
:1048C800C4F8003983E7D0F8083813F4807F08D19A
:1048D80000EB4412D2F8003943F00053C2F8003913
:1048E800E8E700EB4412D2F8003943F08053C2F8ED
:1048F8000039DFE7D0F8083813F4807F0ED1D4F8F8
:10490800003943F00053C4F8003914460B46C9680F
:104918001A789B8A0094FFF717FF58E7D4F80039F4
:1049280043F08053C4F80039EFE78E683544013D01
:10493800B5FBF6F51E69144F07EAC5473E431E61ED
:104948001F698E68ADB206FB05F5C5F312053D4338
:104958001D612FE7CA68002A3FF42FAF5A612CE780
:10496800D0F8083813F4807F06D1D4F8003B43F020
:104978000053C4F8003B24E7D4F8003B43F08053CD
:10498800C4F8003B1DE700BF0000F81F033292087F
:10499800002393420BD210B400F58054246841F8E8
:1049A800044B01339342F7D3084610BC70470846BE
:1049B80070470B784A78012A14D000EB4310D0F8DE
:1049C800002B002A06DB2BB1D0F8003B23F08043F4
:1049D800C0F8003BD0F8003B43F40013C0F8003B9C
:1049E8000020704700EB4310D0F80029002A06DBAE
:1049F8002BB1D0F8003923F08043C0F80039D0F843
:104A0800003943F40013C0F80039E9E70B784A7815
:104A1800012A0ED000EB4310D0F8003B23F400131A
:104A2800C0F8003BCB78023BDBB2012B15D9002044
:104A3800704700EB4310D0F8003923F40013C0F896
:104A48000039CB78023BDBB2012BF0D8D0F8003923
:104A580043F08053C0F80039E9E7D0F8003B43F051
:104A68008053C0F8003BE2E738B50546044600220B
:104A780008E004EB42134FF67F31C3F80819C3F876
:104A8800081B01320E2AF4D90022C5F81028C5F8EF
:104A98001428C5F81C282846FFF7C2FB034608B1AE
:104AA800184638BD10212846FFF7A6FB0346F7E74E
:104AB800D0F8003823F4FE63C0F80038D0F8003886
:104AC800090101F4FE610B43C0F80038002070476B
:104AD80008B5D0F8043823F00203C0F804380320DE
:104AE800FBF7F2FB002008BD08B5D0F8043843F006
:104AF8000203C0F804380320FBF7E6FB002008BDDA
:104B08004269806910407047D0F8183800F5006095
:104B1800C0691840000C7047D0F8183800F50060DC
:104B2800C069184080B2704700EB4111D1F8082BDA
:104B380000F5006040691040704710B4D0F81028A4
:104B4800D0F8343801F00F04E340DB01DBB2134343
:104B580000EB4111D1F80809184010BC70474369AF
:104B6800194341617047406900F001007047D0F86F
:104B7800003923F4FF6323F00703C0F8003900F578
:104B880000639A6802F00602042A05D05A6842F4C3
:104B980080725A6000207047D0F8002942F0030262
:104BA800C0F80029F2E710B4046C154B9C4203D9F5
:104BB800D0F8003B002B16DB0024C0F8104BD0F8CF
:104BC800104B44F40024C0F8104BD0F8104B44F0BC
:104BD8001804C0F8104BD0F8104B44F0C044C0F88B
:104BE800104B012902D0002010BC7047C0F8142BCC
:104BF800D0F8003B43F08023C0F8003BF3E700BF48
:104C08000A30544F10B400F58064D0F8003423F013
:104C18000303C0F80034D0F8003401F00302134352
:104C2800C0F80034012904D0022906D0002010BCA5
:104C380070474BF680336360F8E741F27073636046
:104C4800F4E730B583B0044600250195D0F8403428
:104C58000193019B23F02E030193019B43F480737E
:104C6800C0F840346420FBF72FFB019B23F48073CA
:104C7800C4F840340A20FBF727FB284603B030BDB0
:104C880082B000230193D0F840340193019B23F0B4
:104C98002E030193019B13F4805F01D101290CD0ED
:104CA800019B13F4805F05D021B9019B23F4805345
:104CB800C0F84034002002B07047019B43F4805391
:104CC800C0F84034ECE784B038B5044605A880E85D
:104CD8000E0025460023C4F8003EA36B43F40013DE
:104CE800A363A36B23F40023A363A36B23F48023A0
:104CF800A363E36B13F4807F10D0079B032B06D0CC
:104D0800D4F8003423F00403C4F800340CE0D4F8D9
:104D1800003443F00403C4F8003405E0D4F8003448
:104D280023F00403C4F8003410212046FFF764FA86
:104D38002046FFF775FA002209E005EB42134FF011
:104D4800FF31C3F808150021C3F80C150132069B82
:104D58009A42F2D301212046FFF792FFC820FBF7C1
:104D6800B3FA0023A3614FF0FF336361E36B13F4DD
:104D7800807F17D04FF40073636203F18073A362DE
:104D88000D4BC4F80031089B1BB9A36943F010030D
:104D9800A361A269094B1343A3610020BDE8384011
:104DA80004B070478023636203F5C003A362044B19
:104DB800C4F80031E7E700BF0003E000080020A3C3
:104DC800E000400082B000230193D0F84034019302
:104DD8000198C0F3414002B0704700F580608068D8
:104DE80080B27047F0B59DF8184000EB411505F505
:104DF800A0664FF0FF37B760032C64D8DFE804F0F3
:104E08000255021840F29D47F76012F0800F09D151
:104E1800C76B17F4807F58D0F76847F06007F760D2
:104E280000260CE0F76847F48077F760002606E074
:104E380040F29D67F76012F0800F30D10026D0F85D
:104E4800187401F00F014FF0010E0EFA01F1394309
:104E5800C0F81814816941F00071816112F0800F67
:104E680035D100209DF81410022933D000219B056C
:104E780003F0FE53D20202F4F0421343A20402F4F8
:104E880040221343BDF81C20C2F30A021343034314
:104E98000B43C5F80035032C1FD03046F0BDF7682A
:104EA80047F48077F7600026C9E740F22527F760C6
:104EB80012F0800F01D10026C1E7F76847F4C077E8
:104EC800F7600026BBE70126B9E70026B7E74FF4ED
:104ED8000040C7E74FF40031C9E7D5F8003543F083
:104EE8000053C5F80035D8E700F58060406980B206
:104EF800704710B400EB411101F5A064D1F80035FA
:104F0800C3F381433BB3022B25D0D1F8003543F0DE
:104F18008043C1F80035D0F8103413F47F0F48D11E
:104F2800D1F8003523F00043C1F80035D1F8003539
:104F380043F00043C1F80035D1F8003523F40043AD
:104F4800C1F8003500230133B3F57A7F27D82268EA
:104F5800002AF8DB23E0D1F8003543F08043C1F89C
:104F68000035C36A13F47F0F1CD1D1F8003523F044
:104F78000043C1F80035D1F8003543F00043C1F8CB
:104F88000035D1F8003523F40043C1F8003500237B
:104F98000133B3F57A7F02D82268002AF8DB0020B3
:104FA80010BC7047D1F8003543F00043C1F8003514
:104FB800F5E7D1F8003543F00043C1F80035EEE7D6
:104FC80000EB4111064AC1F81025D1F8003523F04D
:104FD800804343F00043C1F800350020704700BF0C
:104FE80000000880F0B583B04B78C46B14F4807F60
:104FF80007D00C792CB912B94C79012C11D0012A9F
:1050080013D00C69E4B10D892C44013CB4FBF5F4D0
:10501800A4B2B4F5807F14D92D020D614FF48074C9
:105028000FE01946FFF7CCFF75E000EB4314D4F806
:105038000C5525F06005C4F80C5500244C71E0E7C8
:105048000124CD781DB10D8905FB04F50D6100EB38
:1050580043130D69C5F31205364F07EAC4442C43C0
:105068008D7A6D0705F0C0452C43C3F8104512B181
:10507800CC68C3F8144500F58066B46814F0010FD5
:10508800D3F8004524F00054C3F80045D3F8004590
:105098000CBF4FF0005500252C43C3F80045D3F84A
:1050A8000055254C2560256825F080452560CC787D
:1050B800C4B1214D2C6844F400442C601E4C256872
:1050C80045F0004525602468C3F800451ABBCB7835
:1050D8000BBB0B69FBB1CA79032A14D8DFE802F0CD
:1050E800081E081E144D2C6824F400442C60E5E7C3
:1050F8000333C26A92B2C3F38F03934203D983691D
:1051080043F020038361CC684A780B8A0021009120
:105118002146FFF719FB002003B0F0BD03333269C5
:1051280092B2C3F38F039342EDD9836943F080634E
:105138008361E8E70000F81FAC00002070B5054661
:105148000446FFF73BF810212846FFF755F8284694
:10515800FFF766F800220AE004EB4211D1F80035A7
:1051680023F0802343F08043C1F8003501320F2A31
:10517800F2D90020034600E001300F2813D804EBD1
:10518800401606F5A061D6F8002522F4004242F048
:105198004042C6F800250133B3F57A7FECD80A6897
:1051A800002AF8DBE8E74FF0FF33C5F814346B61E9
:1051B8002846FEF7FDFF002070BDD0F8083800F53E
:1051C800006013F0010F03D0436843F0010343600C
:1051D80000207047D0F8043823F00103C0F80438E1
:1051E800002070470020704708B521220274202251
:1051F80042740022428282820722C28200F0F0FEBC
:1052080008BD08B5A12202742122427400224282FC
:1052180082820722C28200F0E3FE08BD38B5044648
:10522800D0F87833D9694031FFF7EBFF054608B16C
:10523800284638BDD4F8C833022120469847F7E7F6
:1052480038B50546D0F87833DC69217879B9217BFF
:10525800B1B9617BF1B9D5F87833D86928B102F0D2
:1052680085F8D5F878330022DA61002038BD01F0DE
:105278005EF82178284601F070F800232370E6E7ED
:10528800284601F054F8217B284601F066F80023EF
:105298002373DEE7284601F04AF8617B284601F0CF
:1052A8005CF800236373D6E770B584B00446012325
:1052B8000222114600F02CFBFF2802D1022004B084
:1052C80070BD06460146204600F015FBD4F8785319
:1052D800502002F043F8E861D4F87833DD691A23E6
:1052E80003FB064393F84A3313F0800F71D16978B2
:1052F800204601F021F80146287094F81C336A789A
:10530800688902900320019094F81D0300902046BC
:1053180000F0FDFF00222978204601F0ADFD0023B2
:105328001A460A21204600F0F3FAFF2869D01A230A
:1053380003FB004393F84A3313F0800F51D1AB734A
:105348001A2303FB0043B3F84C332B831A2303FBC4
:10535800004393F8523313F0800F4AD1AB731A23EA
:1053680003FB0040B0F854332B83A97B204600F0A0
:10537800E3FF6873E97B204600F0DEFF287394F8AA
:105388001C33AA7B697B288B02900226019694F82D
:105398001D030090204600F0BAFF94F81C33EA7B06
:1053A800297B688B0290019694F81D030090204693
:1053B80000F0ADFF002685F84C603246697B204638
:1053C80001F05AFD3246297B204601F055FD304652
:1053D80075E76B701A2303FB0646B6F84C336B81EE
:1053E80085E7EB731A2303FB0043B3F84C336B8355
:1053F800ACE7EB731A2303FB0040B0F854336B831C
:10540800B3E702205BE738B5D0F87833DD69037875
:10541800DBB20B2B01D0002038BD0446002385F8F1
:105428004C30297800F083FF297B204600F07FFF6D
:10543800697B204600F07BFFEDE7D0F87833DA6926
:105448000378DBB20B2B01D000207047012382F8D0
:105458004C309164F8E710B40C46D0F87833DA6928
:105468000378DBB20B2B06D00378DBB2062B02D015
:10547800022010BC7047403292E8030084E8030021
:105488000020F6E708B5D0F87833DA690378DBB29C
:105498000B2B02D0002080B208BD117B01F0D2FC9A
:1054A800F9E7D0F87833DB6993F84C0018B1032892
:1054B80001D001207047D9615A62032283F84C2039
:1054C800012283F84D2000207047D0F87833DB693B
:1054D80093F84C0018B1032801D0012070471962D5
:1054E8009A62032283F84C2083F84E2000207047EC
:1054F800704730B583B00546D0F87833DC6994F846
:105508004D30012B03D0022B19D003B030BD606A97
:10551800228B90420AD9637BE169012000902846DA
:1055280000F07AFE022384F84D30EEE7637BE169F0
:105538000122009282B2284600F06EFEF2E7617BFB
:1055480001F086FC012805D00228DED1012384F869
:105558004D30DAE7636A228B93420AD99B1A636259
:10556800E3691A44E261636A33B1012384F84D3078
:10557800CBE700236362F6E7002384F84D30284622
:10558800FFF7B6FFC1E7704738B50546D0F878335E
:10559800DC6994F84E30032B02D0042B09D038BDB7
:1055A800237B628B216A00F04DFE042384F84E3081
:1055B80038BD217B01F04CFC012800D038BD217B8F
:1055C800284601F03FFCA36A984202D0628B9042C1
:1055D80006D8002384F84E302846FFF7D4FFEDE7BD
:1055E8001B1AA362236A18442062032384F84E30EE
:1055F80038BD704738B50546D0F87833DC6994F87B
:105608004C30042B04D8DFE803F0530516434A0056
:1056180001234EE0A16CFFF7E7FD034630B10128F6
:1056280047D0042384F84C30012342E0022384F855
:105638004C3001233DE004F14001FFF7E2FD034651
:10564800F8B9002384F84C30636C03F0FF12A16CA6
:105658004B6803F0FF139A4201D0012329E094F824
:1056680045204B799A4201D0012322E0226C0B6835
:105678009A4201D001231CE02846FFF7BAFF012314
:1056880017E0012815D0042384F84C30012310E0DA
:10569800FFF72FFF2846FFF777FF012309E00021D6
:1056A80000F071FD38B9002384F84C30012300E084
:1056B8000023184638BD0123FBE7002305E003F16A
:1056C800E002002140F8221001330E2BF7D9002305
:1056D80004E0C218002182F81C110133B3F5007FE1
:1056E800F7D300230370437001228270C0F8BC33E3
:1056F800027640218171437680F81C3380F81D239F
:105708001846704708B50378DBB20B2B00D008BDEC
:10571800D0F87833002BFAD09B699847F7E770B533
:1057280084B004464378072B00F2A480DFE803F036
:10573800042C355E67708192082100F096FC18B140
:105748000125284604B070BD94F82923A2710125CB
:10575800657094F81C33217902920026019694F81A
:105768001D2300928022204600F0D1FD94F81C33BE
:105778006179A2790292019694F81D23009232462B
:10578800204600F0C4FDDCE7122100F06EFC002882
:1057980072D1022363700125D3E7012100F0AFFC29
:1057A80008B10125CDE7022001F093FB012584F81B
:1057B8001C53032363702179A37902930026019671
:1057C80094F81D3300932B468022204600F09FFD5D
:1057D80094F81C336179A2790292019694F81D23FA
:1057E80000923246204600F092FDAAE7092100F017
:1057F80055FC002842D1042363700125A1E7B0F8C5
:10580800361300F04BFCD8BB05236370012598E7DD
:1058180090F8301319B906234370012591E7FF2347
:1058280000F58E7200F053FC60BB062363700125FF
:1058380087E790F8311319B907234370012580E7EA
:10584800FF2300F58E7200F042FCE8B9072363706D
:10585800012576E790F8321309B9002571E7FF238F
:1058680000F58E7200F033FC054600283FF469AF5E
:10587800012566E7012564E7012562E7012560E760
:1058880001255EE701255CE701255AE798B138B59F
:1058980004460D4680F8C0230023C0F87833C0F8CA
:1058A8007C33FFF70AFF0DB1C4F8C853204601F056
:1058B80090FA002038BD0220704710B50446FFF763
:1058C800FCFED4F8C43313B1204601F01FFB0020BE
:1058D80010BD0A4669B1D0F87C330BB1022070477D
:1058E800591CC0F87C13DC3300EB830042600020B5
:1058F80070470220704790F838338B4201D8022055
:10590800704780F820130020704790F843037047D1
:1059180070B4064600200AE01A2404FB056494F8D3
:105928004443944210D0FF2A0ED0441CE0B2012810
:1059380014D805461A2404FB006494F843438C42A7
:10594800EAD0FF29F1D1E7E71A2404FB056595F8A9
:1059580045439C4203D0FF2BE7D100E0FF2070BCF9
:1059680070470023012B17D810B41A2404FB030432
:1059780094F840438C4207D00133DBB2012BF4D9B1
:10598800FF23184610BC70471A2404FB030494F83C
:1059980041439442F0D1F4E7FF231846704710B50D
:1059A800044601F0ABFA0121204601F057FA002025
:1059B80010BD10B5044601F0A9FA0021204601F0F7
:1059C8004DFA2179204600F0C8FC6179204600F0A4
:1059D800C4FC002010BD10B50446FFF7EAFFC8203C
:1059E80001F077FA2046FFF768FE2046FFF7D7FF59
:1059F800002010BDC0F8BC13704708B5D0F8BC3300
:105A08000133C0F8BC33FFF77DFE08BD012380F8E1
:105A18001F337047002380F81F33704790F81F0327
:105A2800704730B587B0044602238DF81730FFF76A
:105A3800F5FF38B923782BB12378DBB2032B01D0DB
:105A4800032323702378DBB20B2B4AD8DFE803F05B
:105A580006131AD0494CB55E687283C794F81E3392
:105A6800002B3ED001232370C82001F032FA2046D3
:105A780001F054FA35E094F81F33012B31D1022399
:105A880023702EE0642001F024FA204601F0CCF9BE
:105A980084F81D03052323700021204600F04CFCE8
:105AA80060718021204600F047FC0146207194F87F
:105AB8001C33A27902920025019594F81D230092C7
:105AC8008022204600F023FC94F81C336179A279E7
